:0A00000002208743D8042280FE226C
:10000B0002263D122BDA53B1F353B2F353917F53C4
:03001B00927F22AF
:0F002300022256E5D830E20653D8FB120CBA225F
:03003B0002277524
:100043000221C590FFFE121153EEF0A3EFF07B00E7
:100053007A007DF57C1B7F0312000390022AE0FFE8
:10006300EF25E025E0241BF582E43404F583E0FC6E
:10007300A3E0FDA3E0FEA3E0FFEF5401FFEE540075
:10008300FEED5400FDEC5400FC7B017A007900780E
:1000930000C312108B7033900492E4F0900493E445
:1000A300F0900494E4F0900495E4F0900496E4F066
:1000B3007B007D557FAA1227D8C28C7B017A0479F5
:1000C300727D0812255FD28C808490022AE0FFEFB4
:1000D30025E025E0241BF582E43404F583E0FCA34A
:1000E300E0FDA3E0FEA3E0FFEF5404FFEE5400FEA7
:1000F300ED5400FDEC5400FC7B047A007900780099
:10010300C312108B7034900492E4F0900493E4F0E3
:10011300900494E4F0900495E4F0900496E4F07B6A
:10012300067D557FAA1227D8C28C7B017A04797287
:100133007D0812255FD28C02005190022AE0FFEF66
:1001430025E025E0241BF582E43404F583E0FCA3D9
:10015300E0FDA3E0FEA3E0FFEF5410FFEE5400FE2A
:10016300ED5400FDEC5400FC7B107A00790078001C
:10017300C312108B7034900492E4F0900493E4F073
:10018300900494E4F0900495E4F0900496E4F07BFA
:10019300057D557FAA1227D8C28C7B017A04797218
:1001A3007D0812255FD28C02005190022AE0FFEFF6
:1001B30025E025E0241BF582E43404F583E0FCA369
:1001C300E0FDA3E0FEA3E0FFEF5420FFEE5400FEAA
:1001D300ED5400FDEC5400FC7B207A00790078009C
:1001E300C312108B7034900492E4F0900493E4F003
:1001F300900494E4F0900495E4F0900496E4F07B8A
:10020300037D557FAA1227D8C28C7B017A047972A9
:100213007D0812255FD28C02005190022AE0FFEF85
:1002230025E025E0241BF582E43404F583E0FCA3F8
:10023300E0FDA3E0FEA3E0FFEF5440FFEE5400FE19
:10024300ED5400FDEC5400FC7B407A00790078000B
:10025300C312108B7034900492E4F0900493E4F092
:10026300900494E4F0900495E4F0900496E4F07B19
:10027300047D557FAA1227D8C28C7B017A04797238
:100283007D0812255FD28C02005190022AE0FFEF15
:1002930025E025E0241BF582E43404F583E0FCA388
:1002A300E0FDA3E0FEA3E0FFEF5480FFEE5400FE69
:1002B300ED5400FDEC5400FC7B807A00790078005B
:1002C300C312108B7034900492E4F0900493E4F022
:1002D300900494E4F0900495E4F0900496E4F07BA9
:1002E300017D557FAA1227D8C28C7B017A047972CB
:1002F3007D0812255FD28C02005190022AE0FFEFA5
:1003030025E025E0241BF582E43404F583E0FCA317
:10031300E0FDA3E0FEA3E0FFEF5400FFEE5401FE77
:10032300ED5400FDEC5400FC7B007A017900780069
:10033300C312108B7034900492E4F0900493E4F0B1
:10034300900494E4F0900495E4F0900496E4F07B38
:10035300027D557FAA1227D8C28C7B017A04797259
:100363007D0812255FD28C02005190022AE0FFEF34
:1003730025E025E0241BF582E43404F583E0FCA3A7
:10038300E0FDA3E0FEA3E0FFEF5400FFEE5402FE06
:10039300ED5400FDEC5400FC7B007A0279007800F8
:1003A300C312108B7034900492E4F0900493E4F041
:1003B300900494E4F0900495E4F0900496E4F07BC8
:1003C300077D557FAA1227D8C28C7B017A047972E4
:1003D3007D0812255FD28C02005190022AE0FFEFC4
:1003E30025E025E0241BF582E43404F583E0FCA337
:1003F300E0FDA3E0FEA3E0FFEF5400FFEE5408FE90
:10040300ED5400FDEC5400FC7B007A087900780081
:10041300C312108B700302005190022AE0FFEF25F4
:10042300E025E0241BF582E43404F583E0FCA3E03B
:10043300FDA3E0FEA3E0FFEF5400FFEE5410FEED3A
:100443005400FDEC5400FC7B007A1079007800C363
:1004530012108B600302005102005190000212112E
:10046300532290FFFC1211531210E47B0A7A007995
:10047300007800852483852582E0FCA3E0FDA3E0CA
:10048300FEA3E0FF120FF9AC00AD01AE02AF03749F
:100493001C2FF582742C3EF583E493FF900486EFC2
:1004A300F0852483852582C083C082E0FCA3E0FD20
:1004B300A3E0FEA3E0FF7B0A7A0079007800120F25
:1004C300F9D082D0831210E47B0A7A007900780095
:1004D300852483852582E0FCA3E0FDA3E0FEA3E061
:1004E300FF120FF9AC00AD01AE02AF03741C2FF580
:1004F30082742C3EF583E493FF900485EFF085240A
:1005030083852582C083C082E0FCA3E0FDA3E0FED7
:10051300A3E0FF7B0A7A0079007800120FF9D082FA
:10052300D0831210E47B0A7A007900780085248353
:10053300852582E0FCA3E0FDA3E0FEA3E0FF120F0C
:10054300F9AC00AD01AE02AF03741C2FF582742C1D
:100553003EF583E493FF900484EFF085248385259F
:1005630082C083C082E0FCA3E0FDA3E0FEA3E0FF22
:100573007B0A7A0079007800120FF9D082D08312B7
:1005830010E47B0A7A00790078008524838525822C
:10059300E0FCA3E0FDA3E0FEA3E0FF120FF9AC0033
:1005A300AD01AE02AF03741C2FF582742C3EF583AC
:1005B300E493FF900483EFF0852483852582C08331
:1005C300C082E0FCA3E0FDA3E0FEA3E0FF7B0A7A88
:1005D3000079007800120FF9D082D0831210E47BE7
:1005E3000A7A0079007800852483852582E0FCA3BC
:1005F300E0FDA3E0FEA3E0FF120FF9AC00AD01AEF6
:1006030002AF03741C2FF582742C3EF583E493FF31
:10061300900482EFF0852483852582C083C082E025
:10062300FCA3E0FDA3E0FEA3E0FF7B0A7A007900D0
:100633007800120FF9D082D0831210E47B0A7A007B
:1006430079007800852483852582E0FCA3E0FDA35F
:10065300E0FEA3E0FF120FF9AC00AD01AE02AF0361
:10066300741C2FF582742C3EF583E493FF90048170
:10067300EFF0852483852582C083C082E0FCA3E05C
:10068300FDA3E0FEA3E0FF7B0A7A00790078001265
:100693000FF9D082D0831210E47B0A7A00790078B4
:1006A30000852483852582E0FCA3E0FDA3E0FEA36F
:1006B300E0FF120FF9AC00AD01AE02AF03741C2FC3
:1006C300F582742C3EF583E493FF900480EFF0856C
:1006D3002483852582C083C082E0FCA3E0FDA3E0E0
:1006E300FEA3E0FF7B0A7A0079007800120FF9D0AD
:1006F30082D0831210E47B0A7A0079007800852483
:1007030083852582E0FCA3E0FDA3E0FEA3E0FF12C6
:100713000FF9AC00AD01AE02AF03741C2FF5827468
:100723002C3EF583E493FF90047FEFF085248385CB
:100733002582C083C082E0FCA3E0FDA3E0FEA3E02A
:10074300FF7B0A7A0079007800120FF9D082D083F8
:100753001210E49000041211532212153190045A1E
:10076300E0FFEF30E02490043BE0FCA3E0FDA3E0D6
:10077300FEA3E0FFEF4401FFEE4400FEED4400FD65
:10078300EC4400FC90043B1210E490045AE0FFEFA9
:1007930030E12490043BE0FCA3E0FDA3E0FEA3E0F2
:1007A300FFEF4404FFEE4400FEED4400FDEC440083
:1007B300FC90043B1210E490045AE0FFEF30E22473
:1007C30090043BE0FCA3E0FDA3E0FEA3E0FFEF44C5
:1007D30010FFEE4400FEED4400FDEC4400FC9004E9
:1007E3003B1210E490045AE0FFEF30E32490043B03
:1007F300E0FCA3E0FDA3E0FEA3E0FFEF4480FFEEF7
:100803004400FEED4400FDEC4400FC90043B121058
:10081300E490045AE0FFEF30E42490043BE0FCA3AF
:10082300E0FDA3E0FEA3E0FFEF4400FFEE4401FE82
:10083300ED4400FDEC4400FC90043B1210E49004F2
:100843005AE0FFEF30E52490043BE0FCA3E0FDA376
:10085300E0FEA3E0FFEF4420FFEE4400FEED440082
:10086300FDEC4400FC90043B1210E490045AE0FFBA
:10087300EF30E62490043BE0FCA3E0FDA3E0FEA3FD
:10088300E0FFEF4440FFEE4400FEED4400FDEC4486
:1008930000FC90043B1210E490045AE0FFEF30E7B1
:1008A3002490043BE0FCA3E0FDA3E0FEA3E0FFEF04
:1008B3004400FFEE4402FEED4400FDEC4400FC90D6
:1008C300043B1210E4900459E0FFEF30E02490045D
:1008D3003BE0FCA3E0FDA3E0FEA3E0FFEF4402FF47
:1008E300EE4400FEED4400FDEC4400FC90043B129A
:1008F30010E4900459E0FFEF30E12490043BE0FC66
:10090300A3E0FDA3E0FEA3E0FFEF4408FFEE4400F5
:10091300FEED4400FDEC4400FC90043B1210E49017
:100923000459E0FFEF30E22490043BE0FCA3E0FD38
:10093300A3E0FEA3E0FFEF4400FFEE4404FEED441A
:1009430000FDEC4400FC90043B1210E4900459E0D9
:10095300FFEF30E32490043BE0FCA3E0FDA3E0FEC3
:10096300A3E0FFEF4400FFEE4404FEED4400FDEC82
:100973004400FC90043B1210E4900459E0FFEF3074
:10098300E42490043BE0FCA3E0FDA3E0FEA3E0FF2E
:10099300EF4400FFEE4404FEED4400FDEC4400FC94
:1009A30090043B1210E4900459E0FFEF30E52490EB
:1009B300043BE0FCA3E0FDA3E0FEA3E0FFEF440063
:1009C300FFEE4404FEED4400FDEC4400FC90043BC8
:1009D3001210E4900459E0FFEF30E62490043BE06A
:1009E300FCA3E0FDA3E0FEA3E0FFEF4400FFEE4421
:1009F30004FEED4400FDEC4400FC90043B1210E4C3
:100A0300900459E0FFEF30E72490043BE0FCA3E0BF
:100A1300FDA3E0FEA3E0FFEF4400FFEE4404FEED80
:100A23004400FDEC4400FC90043B1210E4229004CB
:100A330087EEF0A3EFF0900489ECF0A3EDF09004BF
:100A430089E0FEA3E0FFEF7806C333CE33CED8F9B7
:100A5300FF74002FF58274003EF583AF82AE83EFFF
:100A63002440FFEE3400FE7F00EEFF7E00900489F9
:100A7300E0FCA3E0FD90023875F012ED121121ECB9
:100A830075F012A42583F583EFF0900489E0FEA3AB
:100A9300E0FFEF7806C333CE33CED8F9FF74002FCF
:100AA300F58274003EF583AF82EF2440FFEF54FFDD
:100AB300FF900489E0FCA3E0FD90023975F012ED8C
:100AC300121121EC75F012A42583F583EFF0900445
:100AD30087E0FEA3E0FF7F00EEFF7E00900489E045
:100AE300FCA3E0FD90023A75F012ED121121EC75B2
:100AF300F012A42583F583EFF0900487E0FEA3E0D2
:100B0300FFEF54FFFF900489E0FCA3E0FD90023B5C
:100B130075F012ED121121EC75F012A42583F58303
:100B2300EFF0900489E0FEA3E0FF122AF0EF64FFE8
:100B33006034900489E0FEA3E0FF122AF0EF75F021
:100B430015A42436F8AF00900489E0FCA3E0FD90DF
:100B5300023C75F012ED121121EC75F012A42583FD
:100B6300F583EFF0801D900489E0FEA3E0FF90027F
:100B73003C75F012EF121121EE75F012A42583F5E6
:100B830083E4F090048BE0FCA3E0FDA3E0FEA3E08C
:100B9300FFEF5400FFEE5400FEED5400FDEC54FF54
:100BA300FC781812109C900489E0FCA3E0FD9002ED
:100BB3003475F012ED121121EC75F012A42583F5B2
:100BC30083EFF090048BE0FCA3E0FDA3E0FEA3E041
:100BD300FFEF5400FFEE5400FEED54FFFDEC540014
:100BE300FC781012109C900489E0FCA3E0FD9002B5
:100BF3003575F012ED121121EC75F012A42583F571
:100C030083EFF090048BE0FCA3E0FDA3E0FEA3E000
:100C1300FFEF5400FFEE54FFFEED5400FDEC5400D3
:100C2300FC780812109C900489E0FCA3E0FD90027C
:100C33003675F012ED121121EC75F012A42583F52F
:100C430083EFF090048BE0FCA3E0FDA3E0FEA3E0C0
:100C5300FFEF54FFFFEE5400FEED5400FDEC540093
:100C6300FC900489E0FCA3E0FD90023775F012EDDF
:100C7300121121EC75F012A42583F583EFF0900493
:100C830089E0FEA3E0FF74212FF58274023EF58311
:100C93007403F0900220E0FF900489E0FCA3E0FDE0
:100CA300AE057401A806088002C333D8FCFEEF4EDC
:100CB300FF900220EFF0229004ADE515F0AF127E15
:100CC30000EF7F00FEAD137C00EF2DFFEE3CFE90A6
:100CD30004AEEEF0A3EFF0AF107E00EF7F00FEADA9
:100CE300117C00EF2DFFEE3CFE9004B0EEF0A3EF7D
:100CF300F09004ADE0FFEFB401051222E022229050
:100D030004ADE0FFEF6402705990043FE0FF9002EE
:100D13002AE0FE7401A806088002C333D8FCFEEF64
:100D23004EFF90043FEFF090022AE0FFEF25E0250D
:100D3300E0241BF582E43404F5831210F000002054
:100D4300009004AEE0FEA3E0FF90022AE0FDED2553
:100D5300E024BBF582E43402F583EEF0A3EFF080E8
:100D630099229004ADE0FFEF6403706190043FE0CB
:100D7300FF90022AE0FE7401A806088002C333D85C
:100D8300FCFEEF4EFF90043FEFF09004AEE0FEA3B5
:100D9300E0FFE4FCFD90022AE0FBEB25E025E024E4
:100DA3001BF582E43404F5831210E49004B0E0FEF2
:100DB300A3E0FF90022AE0FDED25E024BBF582E4E9
:100DC3003402F583EEF0A3EFF0020CFD229004ADA4
:100DD300E0FFEF7023900220E0FF90022AE0FE7410
:100DE30001A806088002C333D8FCFEEEF4FEEF5ED2
:100DF300FF900220EFF022229004ADE0FFEFB40455
:100E0300159004AEE0FEA3E0FF9004B0E0FCA3E085
:100E1300FD122AAC22229004ADE0FFEFB4050D9041
:100E230004AEE0FEA3E0FF121C5622229004ADE0C4
:100E3300FFEFB406179004AEE0FEA3E0FF122469AF
:100E4300EF7003020CFD2222020CFD229004ADE0A0
:100E5300FFEF64076003020F279004AEE0FEA3E0F8
:100E6300FF7401A807088002C333D8FCFF90043F36
:100E7300E0FEEF5EFFEF7003020F279004AEE0FE8B
:100E8300A3E0FFEF7802C333CE33CED8F9FF741B50
:100E93002FF58274043EF583E0F8A3E0F9A3E0FAAA
:100EA300A3E0FB9004B0E0FEA3E0FFE4FCFDEF5BF6
:100EB300FFEE5AFEED59FDEC58FCEC4D4E4F6064CD
:100EC30090043BE0FCA3E0FDA3E0FEA3E0FFC0042D
:100ED300C005C006C0079004AEE0FEA3E0FFEF78B4
:100EE30002C333CE33CED8F9FF741B2FF5827404BB
:100EF3003EF583D007D006D005D0041210E4900449
:100F03003FE0FF9004AEE0FCA3E0FDAE057401A852
:100F130006088002C333D8FCFEEEF4FEEF5EFF90BA
:100F2300043FEFF022BB010689828A83E02250024C
:100F3300E722BBFE02E32289828A83E49322BB0178
:100F43000CE58229F582E5833AF583E0225006E930
:100F53002582F8E622BBFE06E92582F8E222E58235
:100F630029F582E5833AF583E49322E88FF0A4CC54
:100F73008BF0A42CFCE98EF0A42CFC8AF0EDA42CBD
:100F8300FCEA8EF0A4CDA8F08BF0A42DCC3825F08C
:100F9300FDE98FF0A42CCD35F0FCEB8EF0A4FEA977
:100FA300F0EB8FF0A4CFC5F02ECD39FEE43CFCEA84
:100FB300A42DCE35F0FDE43CFC2275F008758200CB
:100FC300EF2FFFEE33FECD33CDCC33CCC58233C50B
:100FD300829BED9AEC99E58298400CF582EE9BFE9C
:100FE300ED9AFDEC99FC0FD5F0D6E4CEFBE4CDFAF7
:100FF300E4CCF9A88222B800C1B90059BA002DEC9B
:101003008BF084CFCECDFCE5F0CBF97818EF2FFF32
:10101300EE33FEED33FDEC33FCEB33FB10D70399DA
:101023004004EB99FB0FD8E5E4F9FA227818EF2F87
:10103300FFEE33FEED33FDEC33FCC933C910D705A6
:101043009BE99A4007EC9BFCE99AF90FD8E0E4C9C5
:10105300FAE4CCFB2275F010EF2FFFEE33FEED33F5
:10106300FDCC33CCC833C810D7079BEC9AE8994022
:101073000AED9BFDEC9AFCE899F80FD5F0DAE4CD84
:10108300FBE4CCFAE4C8F922EB9FF5F0EA9E42F0C8
:10109300E99D42F0E89C45F022E8600FECC313FCA5
:1010A300ED13FDEE13FEEF13FFD8F1227401FF33AE
:1010B30095E0FEFDFCA3A3A3E02FFFF0E5821582DC
:1010C30070021583E03EFEF0E582158270021583FF
:1010D300E03DFDF0E582158270021583E03CFCF0F3
:1010E30022ECF0A3EDF0A3EEF0A3EFF022A88285AB
:1010F30083F0D083D0821211071211071211071245
:101103001107E473E493A3C583C5F0C583C8C582FF
:10111300C8F0A3C583C5F0C583C8C582C822A4256A
:1011230082F582E5F03583F58322D083D082F8E41B
:10113300937012740193700DA3A393F8740193F544
:10114300828883E4737402936860EFA3A3A380DFB0
:10115300E5252582F582E5243583F583B5240485C9
:1011630082252210AF06858225F52422858225F566
:1011730024D2AF22E5252582F582E5243583F58344
:10118300229004C2EFF09004C3E4F053C9EF53CAB2
:10119300EFD296D2CCD295C2959004C2E0FFEF3045
:1011A300E003D38001C392CCD295C2959004C2E0F0
:1011B300FFEF30E103D38001C392CCD295C2959067
:1011C30004C2E0FFEF30E203D38001C392CCD29597
:1011D300C2959004C2E0FFEF30E303D38001C392D2
:1011E300CCD295C2959004C2E0FFEF30E403D380E4
:1011F30001C392CCD295C2959004C2E0FFEF30E5D3
:1012030003D38001C392CCD295C295D2CCD295C2DE
:101213009543C91053CAEF9004C3E0FFEF54FEFF98
:101223009004C3EFF09004C3E0FFA2CCE433FEEFDD
:101233004EFF9004C3EFF0D295C2959004C3E0FF34
:10124300EF54FDFF9004C3EFF09004C3E0FFA2CC82
:10125300E433FEEE25E0FEEF4EFF9004C3EFF0D241
:1012630095C2959004C3E0FFEF54FBFF9004C3EFD6
:10127300F09004C3E0FFA2CCE433FEEE25E025E0CA
:10128300FEEF4EFF9004C3EFF0D295C2959004C3D6
:10129300E0FFEF54F7FF9004C3EFF09004C3E0FFC7
:1012A300A2CCE433FEEE33333354F8FEEF4EFF901B
:1012B30004C3EFF0D295C2959004C3E0FFEF54EF5F
:1012C300FF9004C3EFF09004C3E0FFA2CCE433FE2D
:1012D300EEC454F0FEEF4EFF9004C3EFF0D295C27C
:1012E300959004C3E0FFEF54DFFF9004C3EFF09049
:1012F30004C3E0FFA2CCE433FEEEC43354E0FEEFBC
:101303004EFF9004C3EFF0D295C2959004C3E0FF63
:10131300EF54BFFF9004C3EFF09004C3E0FFA2CCEF
:10132300E433FEEEC4333354C0FEEF4EFF9004C3E8
:10133300EFF0D295C2959004C3E0FFEF547FFF9086
:1013430004C3EFF09004C3E0FFA2CCE433FEEEC489
:101353003333335480FEEF4EFF9004C3EFF0D29546
:10136300C295C296C295C2CC9004C3E0FF22AF08D7
:101373007E009002BBE0FCA3E0FDC3ED9FEC9E402A
:101383001D9002BBE0FEA3E0FFAD087C00C3EF9D10
:10139300FFEE9CFE9002BBEEF0A3EFF080089002FC
:1013A300BBE4F0A3E4F0AF087E009002BDE0FCA331
:1013B300E0FDC3ED9FEC9E401D9002BDE0FEA3E067
:1013C300FFAD087C00C3EF9DFFEE9CFE9002BDEED7
:1013D300F0A3EFF080089002BDE4F0A3E4F0AF08BF
:1013E3007E009002BFE0FCA3E0FDC3ED9FEC9E40B6
:1013F3001D9002BFE0FEA3E0FFAD087C00C3EF9D9C
:10140300FFEE9CFE9002BFEEF0A3EFF08008900287
:10141300BFE4F0A3E4F0AF087E009002C1E0FCA3B8
:10142300E0FDC3ED9FEC9E401D9002C1E0FEA3E0F2
:10143300FFAD087C00C3EF9DFFEE9CFE9002C1EE62
:10144300F0A3EFF080089002C1E4F0A3E4F0AF084A
:101453007E009002C3E0FCA3E0FDC3ED9FEC9E4041
:101463001D9002C3E0FEA3E0FFAD087C00C3EF9D27
:10147300FFEE9CFE9002C3EEF0A3EFF08008900213
:10148300C3E4F0A3E4F0AF087E009002C5E0FCA340
:10149300E0FDC3ED9FEC9E401D9002C5E0FEA3E07E
:1014A300FFAD087C00C3EF9DFFEE9CFE9002C5EEEE
:1014B300F0A3EFF080089002C5E4F0A3E4F0AF08D6
:1014C3007E009002C7E0FCA3E0FDC3ED9FEC9E40CD
:1014D3001D9002C7E0FEA3E0FFAD087C00C3EF9DB3
:1014E300FFEE9CFE9002C7EEF0A3EFF0800890029F
:1014F300C7E4F0A3E4F0AF087E009002C9E0FCA3C8
:10150300E0FDC3ED9FEC9E401C9002C9E0FEA3E00A
:10151300FFAD087C00C3EF9DFFEE9CFE9002C9EE79
:10152300F0A3EFF0229002C9E4F0A3E4F0229004C8
:1015330059E4F090045AE4F09004CA7413F0900450
:10154300CAE0FFEFC39401402A9004CAE0FF745A33
:101553002FF582E43404F583E0FF9004CAE0FE74BF
:101563005B2EF582E43404F583EFF09004CAE014B3
:10157300F080CB7F07122A6890046FEFF090045B32
:10158300E4F090045BE0FFA2B2B350047E0180025A
:101593007E00EF4EFF90045BEFF090045BE0FFA250
:1015A300B3B350047E0280027E00EF4EFF90045BD3
:1015B300EFF090045BE0FF90046FE0FEEEC4135481
:1015C30007FEEE70047E0480027E00EF4EFF90045F
:1015D3005BEFF090045BE0FF90046FE0FEEEC4135A
:1015E3005407FEEEB404047E2080027E00EF4EFF1B
:1015F30090045BEFF090045BE0FF90046FE0FEEE7D
:10160300C4135407FEEEB401047E4080027E00EF53
:101613004EFF90045BEFF090045BE0FF90046FE0FB
:10162300FEEEC4135407FEEEB405047E0880027E6A
:1016330000EF4EFF90045BEFF090045BE0FF90043B
:101643006FE0FEEEC4135407FEEEB402047E108076
:10165300027E00EF4EFF90045BEFF090045BE0FF2F
:1016630090046FE0FEEEC4135407FEEEB403047E51
:101673008080027E00EF4EFF90045BEFF09004CA7F
:10168300E4F09004CAE0FFEFC3941350229004CA1D
:10169300E0FF745B2FF582E43404F583E0FF9004EC
:1016A3005BE0FEEF6E703C9004CAE004F080D390E0
:1016B300046EE0FF90045BE0FEEE6FFF90045BE0DE
:1016C300FEEF5EFF90045AEFF090046EE0FF90048B
:1016D3005BE0FEEE6FFF90046EE0FEEF5EFF9004B2
:1016E30059EFF0229004B2EFF09004B574FFF0903C
:1016F30004B3E4F09004B3E0FFEFC39405504390C8
:1017030004B3E0FFEF75F015A4244AF8E6FF740173
:10171300A807088002C333D8FCFFEF70047F018061
:10172300027F00900220E0FEEF5EFFEF600C90046A
:10173300B3E0FF9004B5EFF080089004B3E004F049
:1017430080B21229467B057A0079007800120FF9DE
:10175300AC00AD01AE02AF039004B5EFF09004B35B
:10176300E4F09004B3E0FFEFC3941540030217FCC9
:101773009004B3E0FF9004B5E0FEEE75F015A424E9
:1017830036F8E82FF8E6FF9004B4EFF09004B3E0E6
:10179300FF9004B2E0FEEE75F015A424DCF582E4BC
:1017A3003403F583E5822FF582E43583F583E0FF87
:1017B3009004B3E0FE9004B5E0FDED75F015A424AC
:1017C30036F8E82EF8A6079004B4E0FF9004B3E0DF
:1017D300FE9004B2E0FDED75F015A424DCF582E47F
:1017E3003403F583E5822EF582E43583F583EFF048
:1017F3009004B3E004F00217659004B2E0FFEF75C4
:10180300F015A424F0F582E43403F583E0FFEF75CB
:10181300F012A4243CF582E43402F583C083C08231
:10182300E0FF9004B5E0FEEE75F015A42436F8AEA3
:1018330000C3EF9EFFD082D083EFF09004B5E0FFAA
:10184300EF75F015A42436F8AF009004B5E0FEEE72
:1018530075F015A4244AF8E6FEEE75F012A4243CB4
:10186300F582E43402F583E02FF02290FFFD12119C
:1018730053EBF0A3EAF0A3E9F0852483852582E006
:10188300FBA3E0FAA3E0F9120F28FFEF3395E0FE84
:10189300741C2FF582742C3EF583E493FF90047F30
:1018A300EFF0852483852582E0FBA3E0FAA3E0F92A
:1018B300758201758300120F41FFEF3395E0FE74CB
:1018C3001C2FF582742C3EF583E493FF900480EF84
:1018D300F0852483852582E0FBA3E0FAA3E0F97574
:1018E3008202758300120F41FFEF3395E0FE741CF3
:1018F3002FF582742C3EF583E493FF900481EFF07F
:10190300852483852582E0FBA3E0FAA3E0F97582B1
:1019130003758300120F41FFEF3395E0FE741C2F14
:10192300F582742C3EF583E493FF900482EFF085F7
:101933002483852582E0FBA3E0FAA3E0F975820402
:10194300758300120F41FFEF3395E0FE741C2FF5F2
:1019530082742C3EF583E493FF900483EFF0852497
:1019630083852582E0FBA3E0FAA3E0F97582057580
:101973008300120F41FFEF3395E0FE741C2FF582B5
:10198300742C3EF583E493FF900484EFF085248365
:10199300852582E0FBA3E0FAA3E0F975820675834F
:1019A30000120F41FFEF3395E0FE741C2FF5827494
:1019B3002C3EF583E493FF900485EFF08524838523
:1019C3002582E0FBA3E0FAA3E0F9758207758300A3
:1019D300120F41FFEF3395E0FE741C2FF582742C38
:1019E3003EF583E493FF900486EFF0900003121119
:1019F30053229004CEEFF09004CEE0FF7401A807C9
:101A0300088002C333D8FCFF90043FE0FEEF5EFF83
:101A1300EF7003021B269004CEE0FFEF25E025E0E4
:101A2300241BF582E43404F583E0FCA3E0FDA3E08A
:101A3300FEA3E0FF90043BE0F8A3E0F9A3E0FAA3E0
:101A4300E0FBEF5BFFEE5AFEED59FDEC58FCEC4D6D
:101A53004E4F604690043BE0FCA3E0FDA3E0FEA3F1
:101A6300E0FF9004CEE0FBEB25E025E0241BF582AC
:101A7300E43404F5831210E490043FE0FF9004CEB5
:101A8300E0FE7401A806088002C333D8FCFEEEF41E
:101A9300FEEF5EFF90043FEFF0229004CEE0FFEFF5
:101AA30025E025E0241BF582E43404F583E0FCA360
:101AB300E0FDA3E0FEA3E0FFEF5400FFEE5420FEA1
:101AC300ED5400FDEC5400FCEC4D4E4F605590047A
:101AD300CEE0FFEF25E024BBF582E43402F583E09A
:101AE300FEA3E0FFEF4E703B9004CEE0FFEF25E056
:101AF30025E0241BF582E43404F5831210F0000082
:101B0300200090043FE0FF9004CEE0FE7401A8069D
:101B1300088002C333D8FCFEEEF4FEEF5EFF9004B0
:101B23003FEFF0229004C0EFF09004C1EDF053C9F1
:101B3300EF53CAEFD296C2CCD295C2959004C0E0BF
:101B4300FFEF30E003D38001C392CCD295C29590CE
:101B530004C0E0FFEF30E103D38001C392CCD29500
:101B6300C2959004C0E0FFEF30E203D38001C3923B
:101B7300CCD295C2959004C0E0FFEF30E303D3804D
:101B830001C392CCD295C2959004C0E0FFEF30E43C
:101B930003D38001C392CCD295C2959004C0E0FFD9
:101BA300EF30E503D38001C392CCD295C295D2CC5A
:101BB300D295C2959004C1E0FFEF30E003D38001DA
:101BC300C392CCD295C2959004C1E0FFEF30E103FC
:101BD300D38001C392CCD295C2959004C1E0FFEFAC
:101BE30030E203D38001C392CCD295C2959004C155
:101BF300E0FFEF30E303D38001C392CCD295C295CB
:101C03009004C1E0FFEF30E403D38001C392CCD250
:101C130095C2959004C1E0FFEF30E503D38001C383
:101C230092CCD295C2959004C1E0FFEF30E603D386
:101C33008001C392CCD295C2959004C1E0FFEF30EE
:101C4300E703D38001C392CCD295C295C295C2CC8F
:101C5300C296229004C6EFF09004C6E0FF74512FA1
:101C6300F582E43404F583E0FFEF70139004C6E0DB
:101C7300FF74412FF582E43404F583E004F02290ED
:101C830004C6E0FF74492FF582E43404F583E0FFD2
:101C9300EF25E0FF9004C6E0FE74492EF582E4349C
:101CA30004F583E0FEEEC41313135401FEEE2FFF7D
:101CB3009004C7EFF09004C6E0FF74512FF582E45F
:101CC3003404F583E0FF9004C7E0FEEE5FFFEF709E
:101CD300209004C7E0FFEF25E0FF9004C7E0FEEE8D
:101CE300C41313135401FEEE2FFF9004C7EFF080CB
:101CF300C49004C6E0FF74512FF582E43404F583E5
:101D0300C083C082E0FF9004C7E0FEEEF4FEEF5E06
:101D1300FFD082D083EFF0900440E0FF9004C7E04F
:101D2300FEEEF4FEEF5EFF900440EFF09004C7E098
:101D3300FF9004C6E0FE74492EF582E43404F58373
:101D4300EFF02290047DE0FFEF12112D1D6E001DB8
:101D530084011D9A021DB0031DC6041DDC051DF27E
:101D6300061E08071E1E0800001E2D90047FE0FFBC
:101D73008F80C2A0C2A1C2A2C2A390047DE004F0DE
:101D830022900480E0FF8F80D2A0C2A1C2A2C2A38E
:101D930090047DE004F022900481E0FF8F80C2A0D4
:101DA300D2A1C2A2C2A390047DE004F022900482D7
:101DB300E0FF8F80D2A0D2A1C2A2C2A390047DE093
:101DC30004F022900483E0FF8F80C2A0C2A1D2A2BC
:101DD300C2A390047DE004F022900484E0FF8F808E
:101DE300D2A0C2A1D2A2C2A390047DE004F02290AB
:101DF3000485E0FF8F80C2A0D2A1D2A2C2A3900427
:101E03007DE004F022900486E0FF8F80D2A0D2A16F
:101E1300D2A2C2A390047DE004F02290047EE0FFEE
:101E23008F80D2A390047DE4F02290047DE4F0221D
:101E33007B007A007927AF018F817B017A027920B9
:101E4300AE02AF01122C0D784A7600785F760178E6
:101E530074760278897603789E76049003F074058D
:101E6300F09004057406F090041A7407F05393007D
:101E73004394FF5395F043960FD2A375800012004D
:101E83000E7F807E257D007C001224E77F807E25E7
:101E93007D007C001223E97B017A0479709004AC05
:101EA3007402F07F0A122B2E90047EE4F07BFF7AFB
:101EB300007946AE02AF01C006C00790048B121032
:101EC300F000000000D007D0067D007C00120A312C
:101ED3007BFF7A2B79A2AE02AF01C006C007900444
:101EE3008B1210F000000000D007D0067D017C00AB
:101EF300120A3153D8FB75DC01C2BFC28C5389F07F
:101F0300538E7F758A67758CFCD2AFD2A9C2B9D2C2
:101F13008C80FE2290FFFF121153EBF090FFFF1213
:101F23001153EDF090FFFF121153EFF085248385D9
:101F33002582E0FFEF902C1C93FF90047FEFF08548
:101F43002483852582A3E0FFEF902C1C93FF90044C
:101F530080EFF0852483852582A3A3E0FFEF902CF7
:101F63001C93FF900481EFF0900003121177E0FFC0
:101F7300EF902C1C93FF900482EFF0900004121159
:101F830077E0FFEF902C1C93FF900483EFF0900019
:101F930005121177E0FFEF902C1C93FF900484EF60
:101FA300F0900006121177E0FFEF902C1C93FF9046
:101FB3000485EFF0900007121177E0FFEF902C1CDF
:101FC30093FF900486EFF0900008121153229004BF
:101FD300A3EBF0A3EAF0A3E9F09004A6EDF0D2B7E7
:101FE30053AFFE9004A6E0FFEF60419004A7E4F036
:101FF3009004A6E0FF9004A7E0FEEEC39F50795340
:102003009AFD9004A3E0FBA3E0FAA3E0F99004A7F0
:10201300E0FF8F82758300120F41FF8F9BE59A309B
:10202300E1FB9004A7E004F080C6804C9004A7E491
:10203300F0539AFD9004A3E0FBA3E0FAA3E0F99028
:1020430004A7E0FF8F82758300120F41FFEF602822
:102053009004A3E0FBA3E0FAA3E0F99004A7E0FF58
:102063008F82758300120F41FF8F9BE59A30E1FB4E
:102073009004A7E004F080B9C2B7539AFE539AFDC7
:1020830043AF012278FFE4F6D8FD9000007F007E85
:1020930007E4F0A3DFFCDEFA7524007525007581E3
:1020A3009E0220E2021E33E493A3F8E493A34003C9
:1020B300F68001F208DFF48029E493A3F85407249F
:1020C3000CC8C333C4540F4420C8834004F456805F
:1020D3000146F6DFE4800B010204081020408090E3
:1020E3002127E47E019360BCA3FF543F30E50954EC
:1020F3001FFEE493A360010ECF54C025E060A84007
:10210300B8E493A3FAE493A3F8E493A3C8C582C8FD
:10211300CAC583CAF0A3C8C582C8CAC583CADFE9D2
:10212300DEE780BE4404B6F2E0062C4104C9004158
:10213300046FFF41045A00410459004103D7004191
:10214300030D004102CB0041034E0048047F000011
:1021530000000000000041047E0041047D004104B2
:10216300400044043B0000000041043F00602004A1
:102173001B00000000000000000000000000000041
:10218300000000000000000000000000000000004C
:102193000041022A080126004102200041022903CE
:1021A3005002BB000000000000000000000000001F
:1021B300000000041B00000000010800420470AA94
:1021C3005500C0E0C0F0C083C082C0D075D000C04D
:1021D30000C001C002C003C004C005C006C007534D
:1021E300AFFE900356E4F0539AFE900356E0FF04CB
:1021F300F074572FF582E43403F583E59BF09003E5
:10220300D81210F0000001F4E59A20E0DA9003D828
:1022130074FF1210B17B007A0079007800C31210AA
:102223008B70E5800480E180BE539AFE539AFD4390
:10223300AF019003D77401F0D007D006D005D004C6
:10224300D003D002D001D000D0D0D082D083D0F040
:10225300D0E032C0E0C0F0C083C082C0D075D000EF
:10226300C000C001C002C003C004C005C006C0074F
:10227300C2AC9002CCE4F0C2989002CCE0FF04F030
:1022830074CD2FF582E43402F583E599F09003527F
:102293001210F0000001F42098DD90035274FF1235
:1022A30010B17B007A0079007800C312108B70E7BD
:1022B300800480E380C1C299C298D2AC90034E746B
:1022C30001F0D007D006D005D004D003D002D0014E
:1022D300D000D0D0D082D083D0F0D0E03290022A88
:1022E300E0FFEFC3940850031229941226AB900227
:1022F3002AEFF090022AE0FFEF6409603190022A8E
:10230300E0FF74212FF582E43402F583E0FF9002AD
:1023130029EFF090022AE0FF122AF0EFB4FF0B90AE
:10232300022AE0FF122A241216E71229DC227BFF7D
:102333007A007907AE02AF01E4FCFDEF5400FFEE33
:102343005400FEED54FFFDEC54FFFC781012109C7A
:102353008F187BFF7A007907AF01EF54FFF51990CF
:1023630002297401F0227F001211849004C8EFF057
:102373009004C8E0FFE4FCFDFE9004B61210E47F75
:10238300011211849004C8EFF09004B6E0F8A3E0C2
:10239300F9A3E0FAA3E0FB9004C8E0FFE4FCFDFE30
:1023A300EB2FFFEA3EFEE93DFDE83CFC9004B6124C
:1023B30010E47F021211849004C8EFF09004B6E099
:1023C300F8A3E0F9A3E0FAA3E0FB9004C8E0FFE47C
:1023D300FCFDFEEB2FFFEA3EFEE93DFDE83CFC90F1
:1023E30004B61210E4229004971210E453B33F434F
:1023F300B4C053B17F43B28043B34053B4BF9004DE
:1024030097E0F8A3E0F9A3E0FAA3E0FB7F007E30B6
:102413007D2A7C00120FF9C3E49FFFE49EFE900423
:102423009BEEF0A3EFF0538EEF538EF7438E0453DE
:10243300AFFB90049BE0FEA3E0FFEEFF7E008FD690
:1024430090049BE0FEA3E0FF8FD7438E1043B501BA
:10245300539A7F439A10E5BA54FEFFEF4401F5BA4D
:10246300C2B743AF01229004CDEFF09004CDE0FF5B
:1024730074412FF582E43404F583E0FFEF60159097
:1024830004CDE0FF74412FF582E43404F583E014B6
:10249300F07F01229004CDE0FF74512FF582E434E4
:1024A30004F583C083C082E0FF90022AE0FE74013A
:1024B300A806088002C333D8FCFEEF4EFFD082D0BB
:1024C30083EFF0900440E0FF90022AE0FE7401A83D
:1024D30006088002C333D8FCFEEF4EFF900440EFA2
:1024E300F07F002290049D1210E453B1FD43B20229
:1024F30043B10153B2FE90049DE0F8A3E0F9A3E0D9
:10250300FAA3E0FB7F007E307D2A7C00120FF9C323
:10251300E49FFFE49EFE9004A1EEF0A3EFF0438E50
:1025230001538EEF538EF7438E0453AFFB9004A1F8
:10253300E0FEA3E0FFEEFF7E008FD69004A1E0FE55
:10254300A3E0FF8FD7438E10D2BCE598543FFFEF33
:102553004440F598D29C53A23FD2AC228B1F8A20D1
:1025630089218D22C2ACE5226028752300E523C3AF
:1025730095225051C299AB1FAA20A921AF238F8264
:10258300758300120F41FF8F993099FD052380DD7C
:102593008033752300C299AB1FAA20A921AF238FD3
:1025A30082758300120F41FFEF601AAB1FAA20A9A7
:1025B30021AF238F82758300120F41FF8F993099CA
:1025C300FD052380D0C298C299D2AC229004D0EFEB
:1025D300F09004D0E0FF7401A807088002C333D849
:1025E300FCFF900220E0FEEF5EFFEFD39400400378
:1025F300D38001C340037F00229004D0E0FF740125
:10260300A807088002C333D8FCFF900440E0FEEF24
:102613005EFFEF60037F00229004D0E0FF7401A807
:1026230007088002C333D8FCFF90043FE0FEEF5E4F
:10263300FFEF60037F00227F01220508C526706536
:10264300C52685830985820AF50B85F00C85D00D97
:10265300880E890F8A108B118C128D138E148F158F
:10266300852416852517D018D01985811A758127D9
:10267300752400752547122897851A81C019C0183B
:10268300850983850A82E50B850CF0850DD0A80E9C
:10269300A90FAA10AB11AC12AD13AE14AF1585166A
:1026A3002485172532C5263290022AE0FFEFC39412
:1026B30008400590022AE4F090022AE0FF9004CF3C
:1026C300EFF09004CFE0FFEF04FFEF5407FF900417
:1026D300CFEFF0FF90022AE0FEEF6E600F9004CF81
:1026E300E0FF1225CFEF60DA801F80D690022AE048
:1026F300FF1225CFEF600C90022AE0FF9004CFEF8A
:10270300F080069004CF7409F09004CFE0FF22908C
:1027130003D7E0FFEF60299003D7E4F090043BE098
:10272300FCA3E0FDA3E0FEA3E0FFEF4400FFEE44C3
:1027330010FEED4400FDEC4400FC90043B1210E459
:1027430090034EE0FFEF602990034EE4F090043BCA
:10275300E0FCA3E0FDA3E0FEA3E0FFEF4400FFEEF7
:102763004408FEED4400FDEC4400FC90043B1210D1
:10277300E42285830985820AF50B85F00C85D00D4B
:10278300880E890F8A108B118C128D138E148F155E
:10279300852416852517D018D01985811A758127A8
:1027A300752400752547120026851A81C019C018A3
:1027B300850983850A82E50B850CF0850DD0A80E6B
:1027C300A90FAA10AB11AC12AD13AE14AF15851639
:1027D300248517253290048FEFF0900490EDF0904C
:1027E3000491EBF090048FE0FF900472EFF09004FB
:1027F30090E0FF900473EFF0900491E0FF90047475
:10280300EFF0900492E0FF900475EFF0900493E0F2
:10281300FF900476EFF0900494E0FF900477EFF0DC
:10282300900495E0FF900478EFF0900496E0FF9019
:102833000479EFF0229004CBE4F09002CBE0FFEFB9
:102843003395E0FE9004CBE0FD7C00C3ED9FEE6486
:1028530080F8EC648098503990034FE0FBA3E0FAD2
:10286300A3E0F99004CBE0FF8F82758300120F4140
:10287300FF9004CBE0FE74CD2EF582E43402F583A1
:10288300E0FEEE6F60037F00229004CBE004F08053
:10289300A97F0122AF08E4FCFDFEE51E2FF51EE52E
:1028A3001D3EF51DE51C3DF51CE51B3CF51B90028B
:1028B30029E0FFEFC395084011900229E0FFC3EF21
:1028C3009508FF900229EFF08005900229E4F012A9
:1028D3001371750800121D46122B69E5D820E20E0C
:1028E300900229E0FFEFD3940050031222E02290DC
:1028F30004CCE4F0122838EF60429004CCE4F0906A
:1029030004CCE0FFEFC39440502A9004CCE0FF7462
:10291300CD2FF582E43402F583E0FF9004CCE0FE92
:10292300740E2EF582E43403F583EFF09004CCE0CB
:1029330004F080CB7B017A03790E22227B007A009C
:102943007900227F6D7E4E7DC67C419004B6E0F80F
:10295300A3E0F9A3E0FAA3E0FB120F6EEF2439FF23
:10296300EE3430FEED3400FDEC3400FCEF54FFFF99
:10297300EE54FFFEED54FFFDEC547FFC9004B612C1
:1029830010E49004B6E0FCA3E0FDA3E0FEA3E0FFA7
:10299300229004D1E4F09004D1E0FFEFC3941250ED
:1029A300379004D1E0FF74092FF8E6FF9004D1E0DB
:1029B300FE90022AE0FDED75F012A4242BF582E4CB
:1029C3003402F583E5822EF582E43583F583EFF057
:1029D3009004D1E004F080BE229004D2E4F090048D
:1029E300D2E0FFEFC3941250379004D2E0FF90027D
:1029F3002AE0FEEE75F012A4242BF582E43402F5EE
:102A030083E5822FF582E43583F583E0FF9004D2DA
:102A1300E0FE74092EF8A6079004D2E004F080BE0D
:102A2300229004BCEFF09004BDE4F09004BDE0FFFD
:102A3300EFC39403502C9004BDE0FFEF75F015A491
:102A430024F0F582E43403F583E0FF9004BCE0FE58
:102A5300EFB506069004BDE0FF229004BDE004F04C
:102A630080C97FFF229004BEEFF075BD00E5BC5422
:102A7300E0FFEF4408FF9004BEE0FEEF4EF5BC001C
:102A83000000009004BFE4F09004BFE0FFEFC394A4
:102A9300FA5013E5BC30E40653BCEFAFBD229004FB
:102AA300BFE004F080E27F00229004C4EFF09004C2
:102AB300C5EDF09004C4E0FF74512FF582E43404B3
:102AC300F583E4F09004C4E0FF74492FF582E43405
:102AD30004F5837401F09004C5E0FF9004C4E0FEA4
:102AE30074412EF582E43404F583EFF0229004BAA6
:102AF300EFF09004BBE4F09004BBE0FFEFC3940558
:102B030050269004BBE0FFEF75F015A4244AF8E6C5
:102B1300FF9004BAE0FEEFB506069004BBE0FF2287
:102B23009004BBE004F080CF7FFF229004A8EFF075
:102B33009004A9EBF0A3EAF0A3E9F09004A8E0FF66
:102B430090030DEFF09004A9E0FBA3E0FAA3E0F9F2
:102B530090034FEBF0A3EAF0A3E9F09004ACE0FF9D
:102B63009002CBEFF02290043B1210F00000000023
:102B730012075D1227127F001219F57F011219F552
:102B83007F021219F57F031219F57F041219F57FDD
:102B9300051219F57F061219F57F071219F5229010
:102BA300FFFE121153EEF0A3EFF090FFFF1211534B
:102BB300852483852582E4F07B007A007D017C00F7
:102BC3007F02120003852483852582E004F080E8D8
:102BD300900003121153229004C9E0FFEF701B759C
:102BE3009D9C43BC80E5BC549FFFEF4460F5BC5300
:102BF30097DFC2AD9004C97401F02210AF05AE2473
:102C0300AF2522AE24AF25D2AF2210AF058E248F7D
:102C130025228E248F25D2AF223F065B4F666D7D22
:102C2300077F6F777C395E7971BF86DBCFE6EDFD79
:102C330087FFEF3D760F0E753837545C7367314964
:092C4300783E1C7E646E5A00FF0D
:00000001FF
