:102504003F065B4F666D7D077F6F777C395E79711F
:10251400BF86DBCFE6EDFD87FFEF3D760F0E753806
:1025240037545C73673149783E1C7E646E5A00FFF1
:052534004000A8C000FA
:0A0E1F00022D1029012B00014A01E9
:06296F00AE071FEE60112F
:0F29750000000075550B7556BED556FDD555FAA9
:0329840080E922C5
:1029B7008F398D3A8B3B85583C85593D855A3E85E5
:0629C7005B3F855C40222D
:1029870085335B85345C85355D85365E85375FAB22
:0829970032AD31AF3002283AE5
:0D27D500F55BF55CF55DF55EF55FFBFDFF66
:1027E2008F308D318B32855B33855C34855D3585E9
:0627F2005E36855F372210
:1029CD008F4C8D4D8B4E85584F855950855A51855D
:0629DD005B52855C5322F1
:10145E00E52B04FF122B12E52B7003021568E52B0A
:04146E00640170683D
:10147200AF4A1228D18F54E54A04FF1228D18F5562
:10148200E54A2402FF1228D18F56E54A2403FF12AF
:1014920028D18F57E55475F00A84FFE55475F00A98
:1014A20084ADF0E55575F00A84FBE55575F00A84C4
:1014B20085F05BE55675F00A84F55CE55675F00A31
:1014C2008485F05DE55775F00A84F55EE55775F0A1
:0814D2000A8485F05F02283A4C
:1014DA00E52BB40225755B2E755C2E755D2EE52F06
:1014EA0075F00A84F55EE52F75F00A8485F05F7B56
:1014FA002E7D2E7F2E1227E28064E52B6403706115
:10150A00E54175F00A84FFE54175F00A84ADF0E51E
:10151A004975F00A84F55BE54975F00A8485F05C43
:10152A00755D30E54B75F00A84F55EE54B75F00A9A
:10153A008485F05F7B301227E2E538B40108741025
:10154A002537F5378018E538B4020874102534F5C4
:10155A0034800BE538B4040674102531F5311229AC
:02156A008722D6
:1021B0007F011224088F54E55464017018E52B0444
:1021C0005403F52B70061227D5122987E52BB4038B
:1021D00004E41227D5E52B6402702BFF1224088F2C
:1021E00054E554B40120755802852F59E4F55AF589
:1021F0005BF55C7BFF7D297F101229CDFB7A00798E
:062200004C7D081224874A
:0122060022B5
:100F8300E52B640170327F0512233B8F54E554B483
:100F9300010DE54AC394FD50067404254AF54A7FC2
:100FA3000212233B8F54E554B4010DE54AD3940157
:100FB300400674FC254AF54AE52B6402702A7F0536
:100FC30012233B8F54E554B40109E52FC3946350B6
:100FD30002052F7F0212233B8F54E554B40109E528
:100FE3002FD394004002152FE52B640360030210F6
:100FF300DE7F0312233B8F54E554B4010CE53870B4
:10100300057538048003E4F5387F0412233B8F54BD
:10101300E554B4010CE53864046006E53825E0F5D1
:10102300387F0112233B8F54E554B4010CE5386437
:10103300016006E538C313F538E4FF12233B8F54F0
:10104300E554B40122E4F55885415985495A854B45
:101053005BF55C7B027D297F101229B7FB7A00794F
:10106300397D08FC1226317F0512233B8F54E5544A
:101073006401702EE538B4010BE54BC3943B500477
:10108300054B801EE538B4020BE549C3943B50047D
:101093000549800EE538B40409E541C3943B500289
:1010A30005417F0212233B8F54E5546401702CE504
:1010B30038B4010AE54BD394004003154B22E538BD
:1010C300B4020AE549D394004003154922E538B434
:0B10D3000409E541D3940040021541E0
:0110DE0022EF
:01000A0022D3
:10184700E52B6003021926E525F46003021926E556
:101857002660030218F3E52775F00A84FFE527756C
:10186700F00A84ADF0E52875F00A84FBE52875F0E9
:101877000A8485F05BE52975F00A84F55CE529752E
:10188700F00A8485F05DE52A75F00A84F55EE52A9D
:1018970075F00A8485F05F1227E2E4FF1228D18FE2
:1018A70054AD2712000E7F0A12296FE55404FFADCD
:1018B7002812000E7F0A12296FE5542402FFAD2972
:1018C70012000E7F0A12296FE5542403FFAD2A1276
:1018D700000E7F0A12296FE554D394F85007E55498
:1018E7002404FD80027D01E4FF02000EE526640169
:1018F700702D7D64FC7FB07E0412204AE52775F0C9
:101907000A84F55BE52775F00A8485F05C755D3020
:0F191700755E30755F307B307D307F301227E298
:01192600229E
:10175B00122B1E12290912281A12287A1228977F87
:10176B009812259E122A8012299F1228B47F2B12C1
:10177B002A1678547C007D007B007A0079427E002B
:10178B007F0712012612156C7F807E257D007C0061
:10179B001221397558017F807E257D007C0012193E
:1017AB0027755900755A00755B2D755C00755D02C8
:1017BB007B007A0079237D087C0012266275590024
:1017CB00755A00755B2D755C00755D027B007A00A8
:1017DB0079237D087C00122600752CAA755B2E756B
:1017EB005C2E755D2E755E2E755F2E7B2E7D2E7F8E
:1017FB002E12283AE4FF122B12E4F541F549F54B72
:10180B007BFF7A14795E7F02121FCD7BFF7A2179E1
:10181B00B07F04121FCD7BFF7A0F79837F08121FD5
:10182B00CD7BFF7A00790A7F09121FCD7BFF7A18D7
:0C183B0079477F0A121FCD1224C680FBE3
:092AD1008B88898C88898F888923
:100E290052007C8686008686008686008686008635
:090E390086008686004100700964
:03002B00022B0C99
:062B0C0053BCEFD20F32B2
:020AF100157E70
:100AF300200F03020CA1C20F90006FE0B409004065
:100B030003020C83900B0EF8282873020B58020B78
:100B130029020B3B020B6A020B29020B3B020B81DE
:100B2300020B29020B3BAFBDEFFEADBE7C00E42DF3
:100B3300FFEC3E900072803FAFBDEFFEADBE7C0088
:100B4300E42DFFEC3E900074F0A3EFF0900071747D
:100B530001F0020C89AFBDEFFEADBE7C00E42DFFBA
:100B6300EC3E9000768010AFBDEFFEADBE7C00E49E
:100B73002DFFEC3E900078F0A3EFF0020C89AFBD9F
:100B8300EFFEADBE7C00E42DFFEC3E90007AF0A3B7
:100B9300EFF090007AE0FEA3E07807CEC313CE1304
:100BA300D8F9A87EF6C394065013A87EE675F00321
:100BB300A4247CF582E43400F583E014F090007003
:100BC300E014F06003020C897409F0A87EE4F6A82F
:100BD3007EE6FFC394064003020C89EF75F003A47D
:100BE300247CF582E43400F583E0C39480502CE642
:100BF300FF75F003A4247DF582E43400F583E0D38C
:100C030094804044EF75F003A4247EF582E434001D
:100C1300F5837401F090008EF0802DA87EE6FF75B9
:100C2300F003A4247DF582E43400F583E0C39480CB
:100C33005016EF75F003A4247EF582E43400F583A7
:100C43007402F090008E14F0A87EE6FF75F003A402
:100C5300247CF582E43400F583E0FEEF75F003A411
:100C6300247DF582E43400F583EEF0E675F003A409
:100C7300247CF582E43400F5837486F006020BD2FB
:100C830090006F74FFF090006FE0D39407400374FB
:0E0C9300FFF090006FE004F0902AD193F5BCC2
:030CA100057E22AB
:022A2600157E1B
:0A2A280090008EE0A87EF6FFE4F0B7
:032A3200057E22FC
:022A3500157E0C
:0A2A3700900071E0A87EF6FFE4F0C5
:032A4100057E22ED
:10259E008F9D75BC88439720D2AD90004674FFF096
:1025AE00A3740AF0A374F1F0A374FFF0A3742AF0DD
:1025BE00A37426F0A374FFF0A3742AF0A37435F06D
:0125CE0022EA
:070003007B017A00797222F3
:10233B00C3EF64809480403BD3EF6480948550332B
:10234B00EFFD3395E0FC90007E75F003ED12038EEC
:10235B00EC75F003A42583F583E0FE90007E75F009
:10236B0003ED12038EEC75F003A42583F583E4F0E3
:05237B00AF06227F0304
:01238000223A
:04271500157E157E9A
:10271900122AE3A87EA60608A607A87EE6FE08E612
:0F272900FF4E600BEF24FFFFEE34FFFE122AEC91
:05273800057E057E2274
:10281A0053B1EF43B21012003EE4F5D975DA49D24A
:10282A00DE90004074FFF0A37427F0A37415F02221
:08204A008E5A8F5B8C5C8D5DEA
:10205200122AE3EF4E7066AF5DAE5C122AECC3E566
:102062005B940AE55A9400404BE47B18FAF9F89025
:1020720025351203721202B9C006C007AE5AAF5B11
:10208200AB07AA06E4F9F8D007D0061202B9AB07EB
:10209200AA06AFF9EFFEADE97C00E42DFFEC3ECFDE
:1020A2002BCF3AAD07FCAF03AE021229F5D2D843CB
:0F20B200DA01800612003E53DAFE7F02227F031E
:0120C10022FC
:0C004600122AE3EF4E7002FF227F01221D
:100E42005C009100070000000000000000000000AC
:100E5200000000000000000000000000000000414F
:070E6200008F644100900ABB
:040CA400157E157E26
:100CA80090008FE014F0D36480948050107464F046
:100CB800A3E014F0648094805003740AF0E4F58093
:100CC8009000ACE0FFB40800505F900CD9F82828D9
:100CD80073020CF1020CF7020CFD020D03020D0960
:100CE800020D13020D1D020D27C2A3C2A28016C257
:100CF800A3C2A2801AC2A3C2A2801EC2A3C2A2809B
:100D080022C2A3D2A2C2A1C2A08020C2A3D2A2C2E0
:100D1800A1D2A08016C2A3D2A2D2A1C2A0800CC226
:100D2800A3D2A2D2A1D2A08002D2A3C3EF6480949E
:100D38008850479000ACE0FF3395E0FE749C2FF597
:100D48008274003EF583E0FD900090E0FCD3ED64F2
:100D580080F8EC648098402074932FF58274003EEC
:100D6800F583E0FF3395E0FE74042FF58274253E89
:100D7800F583E493F580806E80699000ACE0FF64B1
:100D8800087060EF3395E0FE74932FF58274003E8F
:100D9800F583E0A87EF6A87E08E4F6A87E08E6FFBC
:100DA800C39408503774A42FF582E43400F583E027
:100DB800FF900090E0FED3EF6480F8EE64809850D6
:100DC80015A87E08E6FF7401A807088002C333D877
:100DD800FCF4A87E56F6A87E080680BFA87EE6F535
:100DE800808003E4F580900092E0FF9000ACE0047E
:100DF800FEF0D3EF6480F8EE6480984015E0D36489
:100E080080948850057408F08008900091E0900064
:020E1800ACF03C
:050E1A00057E057E22AB
:10290900E4F5937594FF5395F043960F90002B745B
:0B291900FFF0A3740CF0A374A4F022E4
:092ADA00900091EFF0A3EDF02251
:10283A00900093EFF0A3EDF0A3EBF0A3E55BF0A318
:10284A00E55CF0A3E55DF0A3E55EF0A3E55FF022A9
:062B120090009BEFF02291
:101D1700EFF5823395E0F583E582F445836005901E
:101D2700009CEFF0EDFF3395E0FEEFF44E60059079
:101D3700009DEDF0EBFF3395E0FEEFF44E6005906C
:101D4700009EEBF0AF65EF3395E0FEEFF44E6006D3
:101D570090009FE565F0AF66EF3395E0FEEFF44E38
:101D670060069000A0E566F0AF67EF3395E0FEEF01
:101D7700F44E60069000A1E567F0AF68EF3395E099
:101D8700FEEFF44E60069000A2E568F0AF69EF330E
:0F1D970095E0FEEFF44E60069000A3E569F022A0
:101DA600EFF5823395E0F583E582F445836005908F
:101DB60000ABEFF0EDFF3395E0FEEFF44E600590DB
:101DC60000AAEDF0EBFF3395E0FEEFF44E600590D0
:101DD60000A9EBF0AF6DEF3395E0FEEFF44E600631
:101DE6009000A8E56DF0AF6EEF3395E0FEEFF44E90
:101DF60060069000A7E56EF0AF6FEF3395E0FEEF5B
:101E0600F44E60069000A6E56FF0AF70EF3395E0F4
:101E1600FEEFF44E60069000A5E570F0AF71EF336B
:0F1E260095E0FEEFF44E60069000A4E571F02207
:100E690041011500011F0041011205410113834190
:030E7900011483DE
:1023C500209206900113E014F0900112E014F070D1
:1023D500317405F0A3E0FFC39480500BA3E0948013
:1023E5004015751F01800C900114E0C394805007BF
:1023F500751F02A37401F0900114EFF0900113749E
:0224050083F062
:0124070022B2
:022A4400157EFD
:0A2A4600900115E0A87EF6FFE4F011
:032A5000057E22DE
:10287A0090003774FFF0A3742AF0A37444F0900018
:0D288A003474FFF0A37423F0A374C5F02292
:052B1800AF1FE4F51FF2
:012B1D002295
:100E7C004100FF0049010094940094940094940064
:040E8C004100FE1E05
:02121100157E48
:1012130020B206900100E014F020B306900103E031
:1012230014F0209706900106E014F09000FEE014FD
:10123300F06003021335741EF0A87EE4F6A87EE680
:10124300FFC3648094834003021335EF3395E0FEBC
:1012530090010075F003EF12038EEE75F003A425E1
:1012630083F583E0C39480503B90010175F003EF55
:1012730012038EEE75F003A42583F583E0D39480E7
:10128300405EE6FF3395E0FE90010275F003EF1236
:10129300038EEE75F003A42583F5837401F09000AB
:1012A300FFF0803CA87EE6FF3395E0FE90010175D8
:1012B300F003EF12038EEE75F003A42583F583E0AC
:1012C300C39480501B90010275F003EF12038EEE5E
:1012D30075F003A42583F5837402F09000FF14F0E6
:1012E300A87EE6FFFD3395E0FC90010075F003ED69
:1012F30012038EEC75F003A42583F583E0FE9001C1
:101303000175F003ED12038EEC75F003A42583F54C
:1013130083EEF0EF3395E0FE90010075F003EF12DA
:10132300038EEE75F003A42583F5837494F006020F
:02133300124066
:03133500057E2210
:022A5300157EEE
:0A2A55009000FFE0A87EF6FFE4F019
:032A5F00057E22CF
:1028970090003174FFF0A3742AF0A37453F09000F2
:0D28A7002E74FFF0A37412F0A37411F02240
:10240800EF600764016003BF0233EFFD3395E0FC22
:1024180090010275F003ED12038EEC75F003A4250C
:1024280083F583E0FE90010275F003ED12038EEC54
:0F24380075F003A42583F583E4F0AF06227F033C
:012447002272
:100E90005500AE000000000000000000000000004F
:0C0EA00000000000000000004100AD0058
:0206A200157EC3
:1006A400A87EE4F6A87EE6FFC36480948340030238
:1006B4000913EF3395E0FE9000AE75F007EF1203D7
:1006C4008EEE75F007A42583F583E0FCA3E04C705F
:1006D4000302090D9000B075F007EF12038EEE755A
:1006E400F007A42583F583E0FEA3E04E700302091E
:1006F4000DE6FFFD3395E0FC9000B275F007ED12B6
:10070400038EEC75F007A42583F58374FFF5F012CE
:10071400020245F0600302090D9000B075F007ED88
:1007240012038EEC75F007A42583F583E0FAA3E0A9
:10073400FB9000B275F007ED12038EEC75F007A480
:100744002583F583EAF0A3EBF0EF3395E0FE900008
:10075400AE75F007EF12038EEE75F007A42583F54E
:1007640083E0FCA3E0D39400EC648094804056A81A
:100774007EE6FD3395E0FC9000AE75F007ED1203C4
:100784008EEC75F007A42583F58374FFF5F012024F
:10079400029000B475F007ED12038EEC75F007A417
:1007A4002583F583E004F0D3648094834072900041
:1007B400B475F007EF12038EEE75F007A42583F5E8
:1007C40083E4F0805BA87EE6FFFD3395E0FC9000B7
:1007D400AE75F007ED12038EEC75F007A42583F5D2
:1007E40083E475F0011202029000B475F007ED1273
:1007F400038EEC75F007A42583F583E014F0C3643D
:10080400809480501BEF3395E0FE9000B475F007A0
:10081400EF12038EEE75F007A42583F5837403F0BD
:10082400A87EE6FFFD3395E0FC9000B475F007ED7B
:1008340012038EEC75F007A42583F583E014603C65
:100844001460661470030208DA24036003020905C5
:10085400EF14601014601924026003020905D2C168
:10086400C2C280299000ADE054F04401F0020905B1
:100874009000ADE0540F4410F0020905A87EE61480
:10088400601114601924027078C2C1D2C2C2C3C2FA
:10089400C4806E9000ADE054F04402F08063900098
:1008A400ADE0540F4420F08058A87EE61460111483
:1008B40060192402704BC2C1C2C2D2C3C2C48041F7
:1008C4009000ADE054F04404F080369000ADE05464
:1008D4000F4440F0802BA87EE614601114601924A4
:1008E40002701EC2C1C2C2C2C3D2C480149000AD81
:1008F400E054F04408F080099000ADE0540F4480C7
:0F090400F09000ADE0FF122B12A87E060206A8AD
:03091300057E223C
:10299F0053B3E143B41E53C0E190005574FFF0A34D
:0829AF007406F0A374A2F022EB
:1019E2008F7CEF3395E0FE9000AE75F007EF1203A7
:1019F2008EEE75F007A42583F583E0FEA3E04E602A
:101A020003021A8AE57C600A64016006E57C6402CE
:101A12007076ED60737C007E037FE81201ADAD7CD1
:101A2200ED3395E0FC9000B075F007ED12038EECFB
:101A320075F007A42583F583EEF0A3EFF09000B0D4
:101A420075F007ED12038EEC75F007A42583F5837C
:101A5200E0FEA3E0FF9000B275F007ED12038EECFA
:101A620075F007A42583F583EEF0A3EFF09000AEA6
:101A720075F007ED12038EEC75F007A42583F5834C
:0B1A8200EAF0A3EBF07F02227F0322BA
:1022AC00EF600764016003BF023AEFFD3395E0FC79
:1022BC009000AE75F007ED12038EEC75F007A425B7
:1022CC0083F583E0FAA3E0FB9000AE75F007ED1206
:1022DC00038EEC75F007A42583F583E4F0A3F0AE30
:0722EC0002AF0322E4FEFF34
:0122F30022C8
:10256C00EF600764016003BF0225EF3395E0FE9036
:10257C0000AE75F007EF12038EEE75F007A42583FD
:10258C00F583E0FEA3E04E60037F01227F00227FF3
:02259C00032218
:10253900EF24FE601314601914601F24037023ED47
:102549006003D2C122C2C122ED6003D2C222C2C23B
:1025590022ED6003D2C322C2C322ED6003D2C4229A
:03256900C2C422C7
:100EAC004100000A41002A0A41006E0A040E0000AB
:100EBC0000000113004600680000FFFF8FFFC10D0A
:100ECC00C105C108C101C10E60240005FF0029FF46
:100EDC000029FF0029FF0029FF0029FF0029FF003E
:100EEC0029FF0029FF0029FF0029FF0029FF002905
:100EFC006036002BFF0029FF0029FF0026FF002988
:100F0C00FF0026FF0029FF0026FF0029FF0029FF14
:100F1C000029FF0026FF0026FF0026FF0026FF0009
:0A0F2C0029FF0029FF0029FF00291A
:0100290022B4
:030026007F002236
:1022F400438E805389F07BE07A2879017800902519
:1023040035120372122381EFF404F58A7BE07A28F4
:1023140079017800902535120372122381C3E49F5A
:10232400FFE49EFE74019DFDE49CFC780812035EAC
:072334008F8CD28CD2A9228C
:03000B0002225A74
:04225A00C0E0C0D050
:10225E00D5080A75084C300D020513D20DA2037273
:10226E00045036150AE50A7030850C0AD207300A7A
:10227E0017E50D6007150D438F01801D538FFEC2AC
:10228E00B5D51515C20A8011050BE50BD394064082
:09229E0008C203E5126002D20639
:0522A700D0D0D0E032B0
:10220700300E47C20E902535120372781012035E06
:102217008E7A8F7B900003E0FEA3E0FFE4FCFD7B5A
:1022270019FAF9F812022EC006C007AE7AAF7BABD7
:1022370007AA06E4F9F8D007D0061223817803121B
:10224700035E900066EEF0A3EFF0900066E0FEA359
:02225700E0FFA6
:012259002262
:092AE300900068E0FEA3E0FF2270
:092AEC00900068EEF0A3EFF02267
:1029F50090006CEEF0A3EFF090006AECF0A3EDF020
:012A050022AE
:03003E00C2B42227
:03003B00021B376E
:101B3700C0E0C083C082C0D075D000C004C005C05B
:031B470006C007CE
:101B4A0030DF04C2DF807D30DA04C2DA807630D931
:101B5A003DC2D9AFFBEFFEADEB7C00E42DFFEC3EBE
:101B6A0020000E900001F0A3EFF075DB11D2008087
:101B7A0053FE900001E0FCA3E0FDC3EF9DFFEE9C45
:101B8A00A3F0A3EFF075DB00C200D20E803630D886
:101B9A0033C2D8900068E07002A3E06022B2B49029
:101BAA00006AE0FEA3E0F5EAEEF5FAA3E0FEA3E0A0
:101BBA00FF90006BE02FF090006AE03EF08005C2D3
:041BCA00B453DAFE38
:101BCE00D007D006D005D004D0D0D082D083D0E0BC
:011BDE0032D4
:062B1E001222F4D2AF22E6
:101EC1003004047F0180027F00200A047E01800229
:101ED1007E00EE5F6074E514C395095068300236E8
:101EE100750D01E514131313541FAB16AA17A91886
:101EF100F58275830012014CFFE514540704FEEFCF
:101F0100A806088002C333D8FC30D70575150380B5
:101F11002F751501802AAB16AA17A91875F002E5CD
:101F210014A4F58285F08312014CF50DE51475F0CA
:101F310002A429F9EA35F0FA90000112014CF515D5
:0A1F41000514D20A22C204438F10D7
:011F4B002273
:10166A00900000E014F0701F740AF0D20590002A6E
:10167A00E014F07012740AF0D20890006EE014F0D0
:10168A007005740AF0D20190002BA3E0FAA3E0F9E6
:10169A0012039A90002EA3E0FAA3E0F912039A909B
:1016AA00003AA3E0FAA3E0F912039A900046A3E0F5
:1016BA00FAA3E0F912039A900055A3E0FAA3E0F91D
:1016CA0012039A90005EA3E0FAA3E0F912039A903B
:1016DA00004CA3E0FAA3E0F912039AEF600C900021
:1016EA001DA3E0FAA3E0F912039A90004FA3E0FACF
:1016FA00A3E0F912039AEF600E900020A3E0FAA388
:10170A00E0F912039AD20B900029E0D39400401812
:10171A00E014F0703030090C900023A3E0FAA3E043
:10172A00F912039AD20C801D900052A3E0FAA3E0AA
:10173A00F912039AEF600E900023A3E0FAA3E0F9EE
:10174A0012039AD20C900005A3E0FAA3E0F902036F
:01175A009AF4
:101C8400900040A3E0FAA3E0F912039A900043A362
:101C9400E0FAA3E0F912039A900034A3E0FAA3E077
:101CA400F912039A900008A3E0FAA3E0F912039A48
:101CB400900031A3E0FAA3E0F912039AEF600C90CC
:101CC4000011A3E0FAA3E0F912039A900037A3E00D
:101CD400FAA3E0F912039AEF600C900017A3E0FA5C
:101CE400A3E0F912039A900049A3E0FAA3E0F912E1
:101CF400039AEF600C90001AA3E0FAA3E0F9120330
:101D04009A30060EC206900026A3E0FAA3E0F91268
:031D1400039A220D
:1024480090000BA3E0FAA3E0F912039A90003DA3D1
:10245800E0FAA3E0F912039AEF600C900014A3E0ED
:10246800FAA3E0F912039A900058A3E0FAA3E0F95E
:0F24780012039A90005BA3E0FAA3E0F902039A23
:1026C100AF11AE10AD0FAC0E9000611203829000FD
:1026D10065E513F0E4F511F510F50FF50EF513901E
:0B26E100000EA3E0FAA3E0F902039A48
:1024C600300705C207121EC1300D05C20D12166A6D
:1024D600300505C205121C84300805C208122448BE
:1024E600300105C2011226C1E5112401F511E435BA
:0E24F60010F510E4350FF50FE4350EF50E224B
:101FCD008B548A558956EFB40C005070901FE0F871
:101FDD0028287302200402200902200E0220130279
:101FED00201802201D02202202202702202C022070
:101FFD003102203602203B9000058035900008808C
:10200D003090000B802B90000E80269000118021C7
:10201D00900017801C900014801790001A80129069
:10202D00001D800D900020800890002380039000FB
:0D203D0026E554F0A3E555F0A3E556F0228A
:072AFE007B017A00796122DF
:080F3600410117004101160002
:0E2AAD0020A40A9001177401F0900116F02287
:022A6200157EDF
:0A2A6400900117E0A87EF6FFE4F0F1
:032A6E00057E22C0
:1028B40090003D74FFF0A3742AF0A37462F09000BA
:0D28C4003A74FFF0A3742AF0A374ADF02263
:022A7100157ED0
:0A2A7300900116E0A87EF6FFE4F0E3
:032A7D00057E22B1
:1013380000C400DC00F701060126014A0172018899
:1013480001B801EE020B024B029302E40310037092
:1013580003DC04160497052605C800DC00F7011510
:101368000126014A0172019F01B801EE022A024BCF
:10137800029302E4033F037003DC04550497052637
:1013880005C8067D00F701150137014A0172019F62
:1013980001D201EE022A026E029302E4033F03A483
:1013A80003DC045504DD057505C8067D07490106FB
:1013B8000126014A015D018801B801EE020B024BCA
:1013C800029302BA0310037003DC0416049705267F
:1013D8000575062006E007B80126014A0172018852
:1013E80001B801EE022A024B029302E403100370D3
:1013F80003DC04550497052605C8062006E007B84F
:1014080008AA014A0172019F01B801EE022A026E80
:10141800029302E4033F037003DC045504DD052650
:1014280005C8067D06E007B808AA09B9015D018864
:1014380001B801D2020B024B029302BA03100370E7
:1014480003A40416049705260575062006E0074937
:06145800082D092D0A4DCC
:100F3E004D00F10300000000000000000000000062
:061A8D008F548D558B56AD
:101A9300120046EF60037F0122E556D3940040060F
:101AA300E55694114028E556D394174006E556941D
:101AB30021401BE556D394274006E5569431400E4A
:101AC300E556D394375007E554C394F950037F0385
:101AD30022E556603DC4540F75F007A4FDACF0E554
:101AE3005475F015A42DFFE5F03CFEE55654077C34
:101AF300002FFFEC3EFEEF25E0FFEE33FE744E2F8A
:101B0300F58274EA3EF583E493F558740193F5592D
:101B13008005E4F558F559AF577E007C017D7712B7
:101B2300019BAD551C1201ADAD07AC06AF59AE58C4
:031B330012204A33
:011B3600228C
:0403A000157E157E33
:1003A400120046EF70047F0180027F009000F1E0AC
:1003B400FEB402047D0180027D00ED5F600302064D
:1003C4009DEEB40316E49000EFF0A3F09000FAF071
:1003D400A3F0A3F0A3F0C21002069D9000F2E0FF88
:1003E400B4F3047E0180027E00EFB4F1047F018047
:1003F400027F00EF4E603E9000F4E0FE75F06484EE
:10040400FFEE75F00A8475F00A84ADF0E075F00A29
:1004140084ABF0755B0A9000F3E02407F55C900070
:10042400EEE0FEC4540F240AF55D755E0AEE54072F
:10043400F55F12283A9000F2E0FFB4F3047E0180E5
:10044400027E00EFB4F2047F0180027F00EF4E7061
:10045400030204F69000F4E0FD7C007E177F701226
:1004640001ADA87EA607E6F975F002A4FFC39000CB
:10047400FDE09F9000FCE095F05070E0FEA3E0FFEB
:100484007C007D0B12019BE9FBFD1201ADA87E08E7
:10049400A6079000FCE475F001120218FED3E5F003
:1004A4009BEE94004018A87E08E624F9FFE47EF051
:1004B400A807088005CEC313CE13D8F9801FA87EE1
:1004C40008E6FF740F7E00A807088005C333CE3307
:1004D400CED8F97804CEA2E713CE13D8F8A87E08B4
:1004E400F6A87E08E6FF122B128007E49000FCF0C9
:1004F400A3F09000F8E0FEA3E0FFC39000FBE09FB0
:100504009000FAE09E4003020697120046EF600353
:1005140002069D9000F5E0FBA3E0FAA3E0F9900049
:10052400FAE0FEA3E0F5828E8312014CFFD39437E8
:100534005003020632EF241024FC5079604524FE57
:1005440070030205DD1470030205F3240260030244
:1005540006219000F5E0FBA3E0FAA3E0F99000FA8D
:10056400E475F00112020285F082F58312014C90C9
:1005740000F3F09000FBE004F070989000FAE004BF
:10058400F080909000F5E0FBA3E0FAA3E0F990007E
:10059400FAE475F00112020285F082F58312014C2F
:1005A4009000F4F09000FBE004F0706E9000FAE02C
:1005B40004F00205179000F5E0FBA3E0FAA3E0F9CC
:1005C4009000FAE475F00112021885F082F58312A6
:1005D400014C9000F2F00205179000FAE475F00166
:1005E400120202AFF09000EFF0A3EFF002051790B3
:1005F40000EFE0FEA3E0FF4E60129000FAEEF0A3DD
:10060400EFF0E49000EFF0A3F00205179000FBE098
:1006140004F070069000FAE004F00205179000FB65
:10062400E004F070069000FAE004F0020517900070
:10063400F8E0FEA3E0FFC39000FBE09F9000FAE027
:100644009E50569000F5E0FBA3E0FAA3E0F9900079
:10065400FAE475F00112021885F082F58312014C58
:100664009000EEF09000F3E0FFA3E0FDA3E0FBA315
:10067400E0FAA3E0F99000FAE475F001120218859B
:10068400F082F58312014CF5579000EEE0FB121A4C
:090694008D80069000F17403F062
:05069D00057E057E2230
:0F2A800090004374FFF0A37403F0A374A0F0223E
:101F4C008B748A7589769000F5E0FBA3E0FAA3E028
:101F5C00F9E5748575838576826B7008E965827006
:101F6C0003EA6583600DE49000FAF0A3F0A3F0A3FC
:101F7C00F0C210EF60049000F4F0ED60049000F3F8
:101F8C00F0AB74AA75A976AE02AF01EF4E60047F78
:101F9C000180027F00E578457760047E0180027E37
:101FAC0000EE5F60139000F5EBF0A3EAF0A3E9F00C
:101FBC00A3E577F0A3E578F0E57960049000F2F002
:011FCC0022F2
:10273D00BF02047E0180027E00BF01047D01800284
:10274D007D00ED4EFEBF03047D0180027D00ED4E48
:08275D0060059000F1EFF0228D
:062B24009000F1E0FF2229
:040F4E00410111014B
:10292400C295E4FEEF1392CC000000D29500EFC3F1
:0829340013FFC2950EBE08EC72
:01293C002278
:10293D00E4FFFEEFC313FF30CC03430780D29500B5
:08294D000000C2950EBE08EB6C
:01295500225F
:10269300F07F851226A6A3EFF07F871226A6A3EF6D
:0326A300F07F893C
:1026A600C296000000C295000000D29600122924AE
:0A26B60012293DD295000000C296E3
:0126C00022F7
:03285A00A3E0FDFB
:10285D00C296000000C295000000D29600122924F5
:0D286D00AF05122924D295000000C296226A
:072B05007B017A01790A222D
:10295600780A7C017D017B007A00795B7E007F0727
:09296600120126E4900111F02297
:1029E300EFD3941F5009EF25E044C1FF0226A67FD1
:0229F3000122BF
:1026EC00AC07AB05ECD3941F501CE4FD7F8E122875
:1026FC005DEC25E044C0FFAD0312285D7D807F8E2C
:09270C0012285D7F00227F0122EA
:021BDF00157E71
:101BE100900111E060447F811226A6A87EEFF69055
:101BF100010AE06F7003021C81A87EE6F07F831268
:101C010026A6A87EEFF6A3E06F6075A87EE61226F1
:101C110093A3EFF07F8D1226A6900110EFF07F8B3A
:101C21001226A690010FEFF08056900109E0FF0403
:101C3100F0EFC3940A4049E4F090011104F0E4FD8F
:101C41007F8E12285D90010AE0FD7F8012285D7F62
:101C51008212285A7F8412285AA3E0FD7F86122817
:101C61005DA3E0FD7F8812285DA3E0FD7F8A122835
:101C71005DA3E0FD7F8C12285D7D807F8E12285D43
:031C8100057E22BB
:10156C007F811226A690010AEFF07F831226A6A394
:10157C00EF122693A3EFF07F8B1226A6A3EFF07F3A
:10158C008D1226A6A3EFF0E4FD7F8E12285D7F1E40
:10159C001229E3EF64A560047F0180027F009001B3
:1015AC000AE05480FEA3E0D3945940047D018002EC
:1015BC007D00ED4EFE90010CE0D394A440047D011F
:1015CC0080027D00ED4EFE90010DE0D3943140047D
:1015DC007D0180027D00ED4EFE90010EE0D3941251
:1015EC0040047D0180027D00ED4EFE90010FE0D3A2
:1015FC00940740047D0180027D00ED4EFE900110A9
:10160C00E0D3949940047D0180027D00ED4E4F6043
:10161C0030785B7C007D007B007A0079547E007F03
:10162C00071201261229567DA57F1E1226EC780A78
:10163C007C017D017B007A0079547E007F071201CA
:10164C00267DA97F9012285D7D807F8E12285D906B
:0E165C00005B74FFF0A3741BF0A374DFF02298
:102A0600D2C0000000D2CD000000C2C000000022EB
:0D002E00C2C0000000D2CD000000D2C022F0
:0B278D001227B1122798AF051227B1E8
:10279800E4FFD2CD30C009EFC394FF50030F80F49B
:0827A800000000C2CD0000009A
:0127B0002206
:1027B100E4FEEF25E0FFC2CD00000092C000000062
:1027C100D2CD0000000EBE08E9C2CD000000D2C08B
:0327D10000000005
:0127D40022E2
:1027F800C2CD000000D2C000E4FED2CD0000EF251B
:10280800E0FDA2C0E4334DFF0000C2CD000EBE08BB
:01281800E9D6
:01281900229C
:10000E00AC07122A067FA01227B1122798AF04124E
:05001E00278D02002EF9
:0228D100AD0751
:1028D300122A067FA012278D122A067FA11227B182
:0928E3001227981227F812002EAA
:0128EC0022C9
:102A160053B1DF43B220C2B5C20A8F0C438F1022D6
:030053000220C2C6
:1020C200C0E0C083C082C0D075D000C000C001C0D3
:0320D20002C00346
:1020D500200313D203751A08751200751900E50C53
:1020E500C313F50A803AE50BC394014031E5192580
:1020F500E0F519E50BC3940340020519D51A21E54E
:1021050012C3951B501A751A08AB1CAA1DA91E856A
:102115001282758300E51912017905128002C20346
:03212500750B0037
:10212800D003D002D001D000D0D0D082D083D0E06C
:012138003274
:092AF5008B1C8A1D891E8D1B2219
:032B2A00AF1222C5
:1025CF002003047F0180027F00200A047E01800225
:1025DF007E00EE5F60188B168A178918EDC313F50E
:1025EF0009C202E4F514538FEFD2047F02227F0356
:0125FF0022B9
:102487002003047F0180027F00200A047E0180026E
:102497007E00EE5F6026538FEF750D10751508D21D
:1024A7000A438F018B168A178918ED75F008A40463
:0F24B700F509D202E4F514D2047F02227F03223A
:1028ED002003047F0180027F00200A047E01800204
:0C28FD007E00EE5F60037F00227F01225E
:100F52005500C40000000000000000000000000076
:080F6200000001000000000086
:0300430002091699
:10091600C0E0C0F0C083C082C0D075D000C000C0A7
:1009260001C002C003C004C005C006C007E59A3076
:10093600E144539AFD9000C9E0FEA3E0FFC3900096
:10094600C8E09F9000C7E09E501F9000C4E0FBA344
:10095600E0FAA3E0F9A3E475F00112021885F0822B
:10096600F58312014CF59B800D9000CBE4F09000CE
:10097600C3E06002C2B7E59A20E003020AD6539AA2
:10098600FE300C0BC20C9000D1E4F0A3F0D209901B
:1009960000C3E064026003020A2E9000CFE0FEA3CB
:1009A600E0FFA3E0FCA3E0FDC39FEC9E5071900026
:1009B600CCE0FBA3E0FAA3E0F98D828C83E59B12E1
:1009C60001799000D7E0FEA3E0FFC3ED9FEC9E50B7
:1009D600409000CFE0FCA3E0FDEF9DEE9C503290EE
:1009E60000D4E0FBA3E0FAA3E0F99000D1E0FEA377
:1009F600E0FFF5828E8312014CFD9000CCE0FBA354
:100A0600E0FAA3E0F98F828E8312014C6D6002C278
:100A1600099000D2E004F070069000D1E004F09056
:100A26000029E57DF0020AD69000CFE0FEA3E0FFA4
:100A3600A3E0FCA3E0FDC39FEC9E50779000CCE0C2
:100A4600FBA3E0FAA3E0F98D828C83E59B12017982
:100A56009000D7E0FEA3E0FFC3ED9FEC9E504690CA
:100A660000CFE0FCA3E0FDEF9DEE9C50389000D453
:100A7600E0FBA3E0FAA3E0F99000D1E0FEA3E0FFDB
:100A8600F5828E8312014CFD9000CCE0FBA3E0FAC8
:100A9600A3E0F98F828E8312014C6D60089000D11D
:100AA60074FFF0A3F09000D2E004F070069000D13D
:100AB600E004F09000CFE0FEA3E0FFC39000D2E098
:100AC6009F9000D1E09E40089000D37401F0D20CB4
:100AD600D007D006D005D004D003D002D001D00074
:0B0AE600D0D0D082D083D0F0D0E0321E
:022A8F00157EB2
:0A2A91009000D3E0A87EF6FFE4F009
:032A9B00057E2293
:01002A0022B3
:101927008F578E568D558C549000C3E558F0700232
:10193700800343BA019000C3E0701790005E74FF04
:10194700F0A37400F0A3742AF0E4F5DBD290D291EF
:101957008023C2B7AB57AA56A955A854E47F407E47
:101967009CFDFC1202B98F7DE57D7003757D0190AA
:101977000029E57DF0759A10E47B04FAF9F89025C3
:10198700351203721202B9AB57AA56A955A85412B9
:1019970002B9EFF404F5D7E47B04FAF9F89025359A
:1019A7001203721202B9AB57AA56A955A8541202CC
:1019B700B9C3E49FFFE49EFE74019DFDE49CFC789F
:1019C7000812034B8FD6438E1443AF019000527415
:0B19D700FFF0A3742AF0A3748FF0222D
:102600009000CCEBF0A3EAF0A3E9F0A3ECF0A3ED8B
:10261000F09000D7E55CF0A3E55DF09000D4E559BB
:10262000F0A3E55AF0A3E55BF0D20CE49000D3F000
:012630002287
:102631009000CBE070289000C3E06002D2B7900018
:10264100C4EBF0A3EAF0A3E9F0E4A3F0A3F0A3EC58
:10265100F0A3EDF0A37401F0439A027F02227F03FD
:012661002256
:0B2ABB009000CBE07002FF227F0122A0
:100F6A005500D90000000000000000000000000049
:080F7A0000000100000000006E
:030023000210DFE9
:1010DF00C0E0C0F0C083C082C0D075D000C000C0D7
:1010EF0001C002C003C004C005C006C00730993B51
:1010FF00C2999000DEE0FEA3E0FFC39000DDE09F09
:10110F009000DCE09E501F9000D9E0FBA3E0FAA313
:10111F00E0F9A3E475F00112021885F082F583124D
:10112F00014CF59980059000E0E4F020980302113E
:10113F00F6C298300B09C20B9000E6E4F0A3F090D2
:10114F0000E4E0FEA3E0FFA3E0FCA3E0FDC39FECFF
:10115F009E50779000E1E0FBA3E0FAA3E0F98D82C7
:10116F008C83E5991201799000ECE0FEA3E0FFC3B8
:10117F00ED9FEC9E50469000E4E0FCA3E0FDEF9D58
:10118F00EE9C50389000E9E0FBA3E0FAA3E0F99061
:10119F0000E6E0FEA3E0FFF5828E8312014CFD9086
:1011AF0000E1E0FBA3E0FAA3E0F98F828E83120146
:1011BF004C6D60089000E674FFF0A3F09000E7E03C
:1011CF0004F070069000E6E004F09000E4E0FEA367
:1011DF00E0FFC39000E7E09F9000E6E09E4008909C
:1011EF0000E87401F0D20BD007D006D005D004D0A0
:1011FF0003D002D001D000D0D0D082D083D0F0D095
:02120F00E032CB
:022A9E00157EA3
:0A2AA0009000E8E0A87EF6FFE4F0E5
:032AAA00057E2284
:102139008F578E568D558C54759850438E40538EBB
:10214900FE53890FE47B04FAF9F8902535120372DE
:102159001202B9AB57AA56A955A8541202B9EFF4FD
:1021690004F58BE47B04FAF9F89025351203721211
:1021790002B9AB57AA56A955A8541202B9C3E49F8C
:10218900FFE49EFE74019DFDE49CFC780812034B5C
:102199008F8DC2ABD28ED2AC90004F74FFF0A37476
:0721A9002AF0A3749EF0224E
:102662009000E1EBF0A3EAF0A3E9F0A3ECF0A3ED14
:10267200F09000ECE55CF0A3E55DF09000E9E5592F
:10268200F0A3E55AF0A3E55BF0D20BE49000E8F08A
:012692002225
:102765009000E0E0701F9000D9EBF0A3EAF0A3E938
:10277500F0E4A3F0A3F0A3ECF0A3EDF0A37401F053
:08278500D2997F02227F03229A
:0B2AC6009000E0E07002FF227F012280
:03000000021E35A8
:0C1E3500787FE4F6D8FD75817E021E7CEB
:10005600E709F608DFFA8046E709F208DFFA803E8C
:1000660088828C83E709F0A3DFFA8032E309F60879
:10007600DFFA8078E309F208DFFA807088828C83E1
:10008600E309F0A3DFFA806489828A83E0A3F60895
:10009600DFFA805889828A83E0A3F208DFFA804C6F
:1000A60080D280FA80C680D4806980F28033801046
:1000B60080A680EA809A80A880DA80E280CA8033AF
:1000C60089828A83ECFAE493A3C8C582C8CCC58327
:1000D600CCF0A3C8C582C8CCC583CCDFE9DEE780F7
:1000E6000D89828A83E493A3F608DFF9ECFAA9F076
:1000F600EDFB2289828A83ECFAE0A3C8C582C8CCCC
:10010600C583CCF0A3C8C582C8CCC583CCDFEADEE4
:10011600E880DB89828A83E493A3F208DFF980CC46
:1001260088F0EF60010E4E60C388F0ED2402B4043F
:100136000050B9F582EB2402B4040050AF232345E6
:0601460082239000A67365
:10014C00BB010CE58229F582E5833AF583E0225068
:10015C0006E92582F8E622BBFE06E92582F8E222B2
:0D016C00E58229F582E5833AF583E49322CC
:10017900F8BB010DE58229F582E5833AF583E8F0BC
:10018900225006E92582C8F622BBFE05E92582C868
:02019900F22250
:10019B00EF8DF0A4A8F0CF8CF0A428CE8DF0A42E78
:0201AB00FE2232
:1001AD00BC000BBE0029EF8DF084FFADF022E4CC36
:1001BD00F875F008EF2FFFEE33FEEC33FCEE9DECFF
:1001CD00984005FCEE9DFE0FD5F0E9E4CEFD22ED45
:1001DD00F8F5F0EE8420D21CFEADF075F008EF2F8F
:1001ED00FFED33FD4007985006D5F0F222C398FD80
:0501FD000FD5F0EA221D
:10020200C5F0F8A3E028F0C5F0F8E5821582700287
:060212001583E038F02224
:10021800A3F8E0C5F025F0F0E58215827002158399
:06022800E0C838F0E822F6
:10022E00E88FF0A4CC8BF0A42CFCE98EF0A42CFC6F
:10023E008AF0EDA42CFCEA8EF0A4CDA8F08BF0A4ED
:10024E002DCC3825F0FDE98FF0A42CCD35F0FCEB4C
:10025E008EF0A4FEA9F0EB8FF0A4CFC5F02ECD3911
:0F026E00FEE43CFCEAA42DCE35F0FDE43CFC227E
:10027D0075F008758200EF2FFFEE33FECD33CDCC38
:10028D0033CCC58233C5829BED9AEC99E5829840BB
:10029D000CF582EE9BFEED9AFDEC99FC0FD5F0D698
:1002AD00E4CEFBE4CDFAE4CCF9A88222B800C1B9C2
:1002BD000059BA002DEC8BF084CFCECDFCE5F0CB00
:1002CD00F97818EF2FFFEE33FEED33FDEC33FCEB39
:1002DD0033FB10D703994004EB99FB0FD8E5E4F9F4
:1002ED00FA227818EF2FFFEE33FEED33FDEC33FCE1
:1002FD00C933C910D7059BE99A4007EC9BFCE99AD5
:10030D00F90FD8E0E4C9FAE4CCFB2275F010EF2F19
:10031D00FFEE33FEED33FDCC33CCC833C810D70719
:10032D009BEC9AE899400AED9BFDEC9AFCE899F854
:0E033D000FD5F0DAE4CDFBE4CCFAE4C8F922E7
:10238100C2D5E830E70FB2D5E4C39BFBE49AFAE487
:1023910099F9E498F8EC30E717B2D51223B7120295
:1023A100B9E4C39BFBE49AFAE499F9E498F8800351
:1023B1001202B930D50DE4C39FFFE49EFEE49DFDFA
:0423C100E49CFC227A
:10034B00E8600FECC313FCED13FDEE13FEEF13FF90
:03035B00D8F122B4
:10035E00E86010ECA2E713FCED13FDEE13FEEF13B5
:04036E00FFD8F022A2
:10037200E493FC740193FD740293FE740393FF22D1
:0C038200ECF0A3EDF0A3EEF0A3EFF022EE
:0C038E00A42582F582E5F03583F583227A
:06039A008A838982E473EE
:101E410002175BE493A3F8E493A34003F68001F245
:101E510008DFF48029E493A3F85407240CC8C333A2
:101E6100C4540F4420C8834004F456800146F6DF71
:101E7100E4800B0102040810204080900E1FE47ED4
:101E8100019360BCA3FF543F30E509541FFEE49366
:101E9100A360010ECF54C025E060A840B8E493A32D
:101EA100FAE493A3F8E493A3C8C582C8CAC583CA58
:101EB100F0A3C8C582C8CAC583CADFE9DEE780BE10
:010F8200006E
:00000001FF
