:101F6F003F065B4F666D7D077F6F777C395E7971BA
:101F7F00BF86DBCFE6EDFD87FFEF3D760F0E7538A1
:101F8F0037545C73673149783E1C7E646E5A00FF8C
:071F9F004000A8C00010295A
:100BC700012A014800B52E2E2E2E2E2E2E2E012B59
:100BD70000013D000736000000000000004600BD90
:0E0BE7000396050000004100C4004100C30059
:1021EE009000B5E0FFA3E0FDA3E0FBA3E0F50BA399
:1021FE00E0F50CA3E0F50DA3E0F50EA3E0F50F025C
:02220E0022505C
:101FA600750C019000BDE0FCA3E0FDECF50DEDF530
:0E1FB6000EA3E0F50FE4F5107B017D297F10EE
:101FC4008F468D478B48850C49850D4A850E4B8578
:061FD4000F4C85104D22A8
:102363008F3E8D3F8B40850B41850C42850D438508
:062373000E44850F452217
:102210009000B5EFF0A3EDF0A3EBF0A3E50BF0A376
:10222000E50CF0A3E50DF0A3E50EF0A3E50FF02219
:06234B00AE071FEE601159
:0F23510000000075770B7578BED578FDD577FA4B
:0323600080E922EF
:10074A00E52B04FF122474E52B60030207E1E54858
:10075A007020750B2E750C2E750D2EE54954F0C4BC
:10076A00540FF50EE549540FF50F7B2E7D2E7F2E83
:10077A00803FE548F47060E525703BE52775F00A8F
:10078A0084FFE52775F00A84ADF0E52875F00A8440
:10079A00F50BE52875F00A8485F00C750D30E5290E
:1007AA0075F00A84F50EE52975F00A8485F00F7B49
:1007BA00301222108021E525B4011C750C01E4F5E4
:1007CA000DF50EF50FF5107BFF121FC0FB7A0079AD
:1007DA00467D08FC1221A1E52B6401600302087D15
:1007EA0012246778367C007D007E007F071201267E
:1007FA00E53D7026E538C4540FFFE538540FFDE592
:10080A0037C4540FF50BE537540FF50C750D30E569
:10081A0036C4540FF50EE536802AE53D6401702C86
:10082A00E53CC4540FFFE53C540FFDE53AC4540FB0
:10083A00F50BE53A540FF50C750D30E539C4540F34
:10084A00F50EE539540FF50F7B308021E53DB402F2
:10085A0022750B30750C30750D30E53BC4540FF51D
:10086A000EE53B540FF50F7B307D307F301222109E
:10087A001221EEE52B6402705D9000BDE0FEA3E05C
:10088A00FF7C007D641201B4AA079000BDE0FEA3BC
:10089A00E0FF7C007D0A1201B47C007D0A1201B4DB
:1008AA00ED2410FB9000BDE0FEA3E0FF7C007D0A72
:1008BA001201B48D0B750C30750D30A3E0FF75F085
:1008CA000A84F50EEF75F00A8485F00FAD027F30C9
:0908DA001222101221EE0221EE9F
:1013A4007F01121E3C8F08E50864017023E52B249D
:1013B40001FFE433FE7C007D031201B48D2BE52B89
:1013C400B40103E4F53DE52B7006F5489000C4F044
:1013D400E52B7029E5487025FF121E3C8F08E508AF
:1013E400B4011AE4F50C750D01F50EF50FF510FBBB
:1013F400121FC07A0079467D08FC1221A1E52BB4A6
:10140400011DE4FF121E3C8F08E508B40111E53DFF
:101414002401FFE433FE7C007D031201B48D3DE51D
:101424002B64027040FF121E3C8F08E508640170B3
:10143400349000C4E020E1036401F09000C4E03083
:10144400E00A7D147C007F207E038016121FA61BF9
:101454007A0079467D08FC1221A17D147C007F5816
:051464007E02121A6D6A
:011469002260
:100D1300E52B7054E5487050FF121D6E8F08E508EF
:100D2300B4011A85490CE4F50DF50EF50FF510FB2A
:100D3300121FC07A0079467D08FC1221A17F05129B
:100D43001D6E8F08E508B4010205497F02121D6E6E
:100D53008F08E508B4010215497F03121D6E8F0841
:100D6300E508B40103E4F549E52B64026003020ED0
:100D73004EFF121D6E8F08E508640170349000C4A5
:100D8300E020E0036402F09000C4E030E10A7D1447
:100D93007C007F207E038016121FA61B7A007946F3
:100DA3007D08FC1221A17D147C007F587E02121A5B
:100DB3006D7F05121D6E8F08E50864017035900084
:100DC300C4E0FF30E00E9000BFE0C3940F5024E076
:100DD30004F0801FEF30E11BC39000BEE094389015
:100DE30000BDE09404500CA3E004F070069000BD35
:100DF300E004F07F02121D6E8F08E5086401703570
:100E03009000C4E0FF30E00E9000BFE0D3940040B8
:100E130024E014F0801FEF30E11BD39000BEE09478
:100E2300779000BDE09403400CA3E024FFF0900012
:100E3300BDE034FFF0780E7C007D007B017A007901
:0B0E4300BD7E007F061201261215255F
:010E4E002281
:100A5E00852448AF48122474E524705BE5266403B0
:100A6E007020F50C852A0D85270E85280F852910F7
:100A7E007BFF121FC0FB7A0079467D08FC12206DA9
:100A8E008035E5266404702F7D64FC7FB07E0412F1
:100A9E001A6D750C01852A0DE4F50EF50FF5107B18
:100AAE00FF121FC0FB7A0079467D08FC12206D12E2
:100ABE00241DEF7002F548E52464016003020BC6A5
:100ACE00E52564016003020BC6E526705212246709
:100ADE0078367C007D007E007F07120126E52775A3
:100AEE00F00A84C454F0FFE52775F00A84E5F02F70
:100AFE00F53CE52875F00A84C454F0FFE52875F03E
:100B0E000A84E5F02FF53AE52975F00A84C454F00D
:100B1E00FFE52975F00A84E5F02FF539020BB0E5F3
:100B2E00266401705112246778367C007D007E00A9
:100B3E007F07120126E52775F00A84C454F0FFE5FD
:100B4E002775F00A84E5F02FF538E52875F00A844C
:100B5E00C454F0FFE52875F00A84E5F02FF537E56B
:100B6E002975F00A84C454F0FFE52975F00A84E56E
:100B7E00F02FF536802CE5266402703C122467783F
:100B8E00367C007D007E007F07120126E52775F07A
:100B9E000A84C454F0FFE52775F00A84E5F0042FAB
:100BAE00F53B780F7C007D007B007A0079367E0065
:080BBE007F0712012612233209
:010BC600220C
:10000E009000AFE0B4020D7B017A0079AD7D087CE3
:05001E00001221A122E7
:101F3800E54E64107030E54F6429702AE550F4705E
:101F480025E552652A701FE551B4021A750CFEE4A6
:101F5800F50DF50EF50FF510FB121FC07A00794646
:071F68007D08FC1221A122FB
:101C2F00120003782C7C007D007E007F0A120126B3
:101C3F009000C3E0600DE4F50BF50CE532F50DE512
:101C4F0033800CE4F50B750C01E530F50DE531F53E
:101C5F000EE4F50F7B017D297F101223631B7A00A1
:101C6F00793E7D08FC1221A19000C3E0FFC37401EF
:031C7F009FF022B1
:1010A80012247A1222E51222301222907F98121FFF
:1010B800DA7F2B1223C27F807E257D007C00121BE5
:1010C8005C750C017F807E257D007C0012146A7897
:1010D800087C007D007B007A0079367E007F07124D
:1010E80001261211B578087C007D007B017A007911
:1010F800BD7E007F061201261221C9750DFF750EEF
:101108001F750FA47510007511027B007A007922F3
:101118007D087C0012209E750DFF750E1F750FA4AB
:101128007510007511027B017A0079AD7D087C008D
:1011380012203C7B007A00794E7D08122457750BEB
:101148002E750C2E750D2E750E2E750F2E7B2E7D81
:101158002E7F2E122250E4FF1224747BFF7A077927
:101168004A7F021219F07BFF7A1379A47F041219BF
:10117800F07BFF7A0D79137F081219F07BFF7A0A4A
:10118800795E7F091219F07BFF7A00790E7F0A12C7
:1011980019F07BFF7A1F79387F0B1219F07BFF7AE1
:0D11A8001C792F7F031219F0121EFA80FB34
:092433008B88898C88898F8889C7
:100BF50052007C868600868600868600868600866C
:090C05008600868600410070099A
:03002B0002246E3E
:06246E0053BCEFD20F3257
:02059700157CD1
:10059900200F03020747C20F90006FE0B409004023
:1005A900030207299005B4F82828730205FE0205FD
:1005B900CF0205E10206100205CF0205E102062776
:1005C9000205CF0205E1AFBDEFFEADBE7C00E42D13
:1005D900FFEC3E900072803FAFBDEFFEADBE7C00E8
:1005E900E42DFFEC3E900074F0A3EFF090007174DD
:1005F90001F002072FAFBDEFFEADBE7C00E42DFF79
:10060900EC3E9000768010AFBDEFFEADBE7C00E4FD
:100619002DFFEC3E900078F0A3EFF002072FAFBD5D
:10062900EFFEADBE7C00E42DFFEC3E90007AF0A316
:10063900EFF090007AE0FEA3E07807CEC313CE1363
:10064900D8F9A87CF6C394065013A87CE675F00384
:10065900A4247CF582E43400F583E014F090007062
:10066900E014F0600302072F7409F0A87CE4F6A8EF
:100679007CE6FFC39406400302072FEF75F003A43D
:10068900247CF582E43400F583E0C39480502CE6A1
:10069900FF75F003A4247DF582E43400F583E0D3EB
:1006A90094804044EF75F003A4247EF582E434007D
:1006B900F5837401F090008EF0802DA87CE6FF751B
:1006C900F003A4247DF582E43400F583E0C394802B
:1006D9005016EF75F003A4247EF582E43400F58307
:1006E9007402F090008E14F0A87CE6FF75F003A464
:1006F900247CF582E43400F583E0FEEF75F003A471
:10070900247DF582E43400F583EEF0E675F003A468
:10071900247CF582E43400F5837486F006020678B9
:1007290090006F74FFF090006FE0D394074003745A
:0E073900FFF090006FE004F090243393F5BCC5
:03074700057C220C
:0223D200157C78
:0A23D40090008EE0A87CF6FFE4F014
:0323DE00057C2259
:0223E100157C69
:0A23E300900071E0A87CF6FFE4F022
:0323ED00057C224A
:101FDA008F9D75BC88439720D2AD90004674FFF060
:101FEA00A37405F0A37497F0A374FFF0A37423F00D
:101FFA00A374D2F0A374FFF0A37423F0A374E1F0E6
:01200A0022B3
:070003007B017A00797222F3
:101D6E00C3EF64809480403BD3EF648094855033FE
:101D7E00EFFD3395E0FC90007E75F003ED1203AAA3
:101D8E00EC75F003A42583F583E0FE90007E75F0DC
:101D9E0003ED1203AAEC75F003A42583F583E4F09A
:051DAE00AF06227F03D7
:011DB300220D
:04215100157C157C68
:10215500122445A87CA60608A607A87CE6FE08E684
:0F216500FF4E600BEF24FFFFEE34FFFE12244EFF
:05217400057C057C2242
:1022300053B1EF43B21012003EE4F5D975DA49D23A
:10224000DE90004074FFF0A37421F0A37451F022DB
:081A6D008E098F0A8C0B8D0C11
:101A7500122445EF4E7066AF0CAE0B12244EC3E533
:101A85000A940AE5099400404BE47B18FAF9F890AA
:101A95001FA012038E1202D5C006C007AE09AF0AF9
:101AA500AB07AA06E4F9F8D007D0061202D5AB07B2
:101AB500AA06AFF9EFFEADE97C00E42DFFEC3ECFC1
:101AC5002BCF3AAD07FCAF03AE021223B1D2D843F8
:0F1AD500DA01800612003E53DAFE7F02227F0301
:011AE40022DF
:0C002E00122445EF4E7002FF227F0122D9
:100C0E005C009100070000000000000000000000E2
:100C1E000000000000000000000000000000004185
:070C2E00008F644100900AF1
:0408E300157C157CEF
:1008E70090008FE014F0D36480948050107464F00B
:1008F700A3E014F0648094805003740AF0E4F58058
:100907009000ACE0FFB40800505F900918F8282861
:100917007302093002093602093C020942020948FA
:1009270002095202095C020966C2A3C2A28016C26A
:10093700A3C2A2801AC2A3C2A2801EC2A3C2A2805F
:1009470022C2A3D2A2C2A1C2A08020C2A3D2A2C2A5
:10095700A1D2A08016C2A3D2A2D2A1C2A0800CC2EB
:10096700A3D2A2D2A1D2A08002D2A3C3EF64809463
:100977008850479000ACE0FF3395E0FE749C2FF55C
:100987008274003EF583E0FD900090E0FCD3ED64B7
:1009970080F8EC648098402074932FF58274003EB1
:1009A700F583E0FF3395E0FE746F2FF582741F3EE9
:1009B700F583E493F580806E80699000ACE0FF6476
:1009C700087060EF3395E0FE74932FF58274003E54
:1009D700F583E0A87CF6A87C08E4F6A87C08E6FF87
:1009E700C39408503774A42FF582E43400F583E0EC
:1009F700FF900090E0FED3EF6480F8EE648098509B
:100A070015A87C08E6FF7401A807088002C333D83D
:100A1700FCF4A87C56F6A87C080680BFA87CE6F5FF
:100A2700808003E4F580900092E0FF9000ACE00442
:100A3700FEF0D3EF6480F8EE6480984015E0D3644D
:100A470080948850057408F08008900091E0900029
:020A5700ACF001
:050A5900057C057C2274
:1022E500E4F5937594FF5395F043960F90002B7486
:0B22F500FFF0A37408F0A374E3F022D4
:09243C00900091EFF0A3EDF022F5
:10225000900093EFF0A3EDF0A3EBF0A3E50BF0A358
:10226000E50CF0A3E50DF0A3E50EF0A3E50FF022D9
:0624740090009BEFF02236
:1017BB00EFF5823395E0F583E582F4458360059080
:1017CB00009CEFF0EDFF3395E0FEEFF44E600590DB
:1017DB00009DEDF0EBFF3395E0FEEFF44E600590CE
:1017EB00009EEBF0AF6AEF3395E0FEEFF44E600630
:1017FB0090009FE56AF0AF6BEF3395E0FEEFF44E90
:10180B0060069000A0E56BF0AF6CEF3395E0FEEF58
:10181B00F44E60069000A1E56CF0AF6DEF3395E0F0
:10182B00FEEFF44E60069000A2E56DF0AF6EEF3365
:0F183B0095E0FEEFF44E60069000A3E56EF022FC
:10184A00EFF5823395E0F583E582F44583600590F0
:10185A0000ABEFF0EDFF3395E0FEEFF44E6005903C
:10186A0000AAEDF0EBFF3395E0FEEFF44E60059031
:10187A0000A9EBF0AF72EF3395E0FEEFF44E60068D
:10188A009000A8E572F0AF73EF3395E0FEEFF44EE7
:10189A0060069000A7E573F0AF74EF3395E0FEEFB2
:1018AA00F44E60069000A6E574F0AF75EF3395E04C
:1018BA00FEEFF44E60069000A5E575F0AF76EF33C3
:0F18CA0095E0FEEFF44E60069000A4E576F02264
:100C35004100F1004900F2949400949400949400CA
:040C45004100F01E5C
:020F8100157CDD
:100F830020B2069000F2E014F020B3069000F5E0E2
:100F930014F02097069000F8E014F09000F0E014AD
:100FA300F060030210A5741EF0A87CE4F6A87CE6AA
:100FB300FFC36480948340030210A5EF3395E0FEE2
:100FC3009000F275F003EF1203AAEE75F003A42567
:100FD30083F583E0C39480503B9000F375F003EFF7
:100FE3001203AAEE75F003A42583F583E0D394805E
:100FF300405EE6FF3395E0FE9000F475F003EF12D8
:1010030003AAEE75F003A42583F5837401F0900021
:10101300F1F0803CA87CE6FF3395E0FE9000F37589
:10102300F003EF1203AAEE75F003A42583F583E022
:10103300C39480501B9000F475F003EF1203AAEEE3
:1010430075F003A42583F5837402F09000F114F086
:10105300A87CE6FFFD3395E0FC9000F275F003ED0C
:101063001203AAEC75F003A42583F583E0FE900038
:10107300F375F003ED1203AAEC75F003A42583F5D1
:1010830083EEF0EF3395E0FE9000F275F003EF127C
:1010930003AAEE75F003A42583F5837494F0060286
:0210A3000FB08C
:0310A500057C22A5
:0223F000157C5A
:0A23F2009000F1E0A87CF6FFE4F093
:0323FC00057C223B
:1022900090003174FFF0A37423F0A374F0F0900069
:0D22A0002E74FFF0A3740FF0A37481F022E0
:101E3C00EF600764016003BF0233EFFD3395E0FCF4
:101E4C009000F475F003ED1203AAEC75F003A425D1
:101E5C0083F583E0FE9000F475F003ED1203AAEC19
:0F1E6C0075F003A42583F583E4F0AF06227F030E
:011E7B002244
:100C49004100000A41002A0A41006E0A045C0000C2
:100C590000000161004600680000FFFF8FFFC10D21
:100C6900C105C108C101C10E60240005FF000AFFCA
:100C7900000AFF000AFF000AFF000AFF000AFF003E
:100C89000AFF000AFF000AFF000AFF000AFF000A24
:100C99006036002BFF000AFF000AFF0026FF000A4A
:100CA900FF0026FF000AFF0026FF000AFF000AFFD7
:100CB900000AFF0026FF0026FF0026FF0026FF008E
:0A0CC9000AFF000AFF000AFF000AFC
:01000A0022D3
:030026007F002236
:101D2700438E805389F07BE07A2879017800901FF1
:101D3700A012038E121DF8EFF404F58A7BE07A28CF
:101D470079017800901FA012038E121DF8C3E49F3B
:101D5700FFE49EFE74019DFDE49CFC780812037A63
:071D67008F8CD28CD2A9225F
:03000B00021CD5FF
:041CD500C0E0C0D0DB
:101CD900D5560A75564C300D020561D20DA2037214
:101CE9000450361558E5587030855A58D207300ACD
:101CF90017E55B6007155B438F01801D538FFEC29B
:101D0900B5D56315C20A80110559E559D394064022
:091D190008C203E5606002D20675
:051D2200D0D0D0E0323A
:101C8200300E47C20E901FA012038E781012037AF4
:101C92008E798F7A900003E0FEA3E0FFE4FCFD7BE7
:101CA20019FAF9F812024AC006C007AE79AF7AAB48
:101CB20007AA06E4F9F8D007D006121DF878031235
:101CC200037A900066EEF0A3EFF0900066E0FEA3C8
:021CD200E0FF31
:011CD40022ED
:09244500900068E0FEA3E0FF2214
:09244E00900068EEF0A3EFF0220B
:1023B10090006CEEF0A3EFF090006AECF0A3EDF06A
:0123C10022F9
:03003E00C2B42227
:03003B000215DBD0
:1015DB00C0E0C083C082C0D075D000C004C005C0BD
:0315EB0006C00730
:1015EE0030DF04C2DF807D30DA04C2DA807630D993
:1015FE003DC2D9AFFBEFFEADEB7C00E42DFFEC3E20
:10160E0020000E900001F0A3EFF075DB11D20080E8
:10161E0053FE900001E0FCA3E0FDC3EF9DFFEE9CA6
:10162E00A3F0A3EFF075DB00C200D20E803630D8E7
:10163E0033C2D8900068E07002A3E06022B2B4908A
:10164E00006AE0FEA3E0F5EAEEF5FAA3E0FEA3E001
:10165E00FF90006BE02FF090006AE03EF08005C234
:04166E00B453DAFE99
:10167200D007D006D005D004D0D0D082D083D0E01D
:011682003235
:06247A00121D27D2AF2263
:101965003004047F0180027F00200A047E0180028A
:101975007E00EE5F6074E562C395575068300236AD
:10198500755B01E562131313541FAB64AA65A96661
:10199500F582758300120165FFE562540704FEEFC9
:1019A500A806088002C333D8FC30D70575630380C9
:1019B5002F756301802AAB64AA65A96675F002E5F7
:1019C50062A4F58285F083120165F55BE56275F029
:1019D50002A429F9EA35F0FA900001120165F563D0
:0A19E5000562D20A22C204438F10EB
:0119EF0022D5
:1012B300900000E014F0701F740AF0D20590002A29
:1012C300E014F07012740AF0D20890006EE014F08B
:1012D3007005740AF0D20190002BA3E0FAA3E0F9A1
:1012E3001203B690002EA3E0FAA3E0F91203B6901E
:1012F300003AA3E0FAA3E0F91203B6900046A3E094
:10130300FAA3E0F91203B6900055A3E0FAA3E0F9BB
:101313001203B690005EA3E0FAA3E0F91203B690BD
:10132300004CA3E0FAA3E0F91203B6EF600C9000BF
:101333001DA3E0FAA3E0F91203B690004FA3E0FA6D
:10134300A3E0F91203B6EF600E900020A3E0FAA326
:10135300E0F91203B6D20B900029E0D394004018B1
:10136300E014F0703030090C900023A3E0FAA3E0FE
:10137300F91203B6D20C801D900052A3E0FAA3E049
:10138300F91203B6EF600E900023A3E0FAA3E0F98D
:101393001203B6D20C900005A3E0FAA3E0F902030E
:0113A300B693
:10172800900040A3E0FAA3E0F91203B6900043A3A7
:10173800E0FAA3E0F91203B6900034A3E0FAA3E0BC
:10174800F91203B6900008A3E0FAA3E0F91203B671
:10175800900031A3E0FAA3E0F91203B6EF600C9011
:101768000011A3E0FAA3E0F91203B6900037A3E052
:10177800FAA3E0F91203B6EF600C900017A3E0FAA1
:10178800A3E0F91203B6900049A3E0FAA3E0F91226
:1017980003B6EF600C90001AA3E0FAA3E0F9120375
:1017A800B630060EC206900026A3E0FAA3E0F912AE
:0317B80003B62253
:101E7C0090000BA3E0FAA3E0F91203B690003DA387
:101E8C00E0FAA3E0F91203B6EF600C900014A3E0A3
:101E9C00FAA3E0F91203B6900058A3E0FAA3E0F914
:0F1EAC001203B690005BA3E0FAA3E0F90203B6BD
:1020FD00AF5FAE5EAD5DAC5C90006112039E900073
:10210D0065E561F0E4F55FF55EF55DF55CF5619013
:0B211D00000EA3E0FAA3E0F90203B6F5
:101EFA00300705C207121965300D05C20D1212B35B
:101F0A00300505C205121728300805C208121E7CC2
:101F1A00300105C2011220FDE55F2401F55FE435B9
:0E1F2A005EF55EE4355DF55DE4355CF55C2248
:1019F0008B088A09890AEFB40C005070901A03F81A
:101A0000282873021A27021A2C021A31021A3602E7
:101A10001A3B021A40021A45021A4A021A4F021AC7
:101A200054021A59021A5E90000580359000088011
:101A30003090000B802B90000E80269000118021AA
:101A4000900017801C900014801790001A8012904C
:101A5000001D800D900020800890002380039000DE
:0D1A600026E508F0A3E509F0A3E50AF02251
:072460007B017A0079612283
:040CD30041010301D7
:10230000C295E4FEEF1392CC000000D29500EFC31B
:0823100013FFC2950EBE08EC9C
:0123180022A2
:10231900E4FFFEEFC313FF30CC03430780D29500DF
:082329000000C2950EBE08EB96
:012331002289
:1020CF00F07F851220E2A3EFF07F871220E2A3EFCB
:0320DF00F07F8906
:1020E200C296000000C295000000D29600122300A2
:0A20F200122319D295000000C296D7
:0120FC0022C1
:03227000A3E0FDEB
:10227300C296000000C295000000D296001223000F
:0D228300AF05122300D295000000C2962284
:072467007B017A0079FC22E1
:1023320078FC7C007D017B007A00790F7E007F07AC
:09234200120126E4900103F022CF
:10239F00EFD3941F5009EF25E044C1FF0220E27FE5
:0223AF00012209
:10212800AC07AB05ECD3941F501CE4FD7F8E122244
:1021380073EC25E044C0FFAD031222737D807F8ECF
:092148001222737F00227F0122A4
:02168300157CD4
:10168500900103E060447F811220E2A87CEFF69090
:1016950000FCE06F7003021725A87CE6F07F83123B
:1016A50020E2A87CEFF6A3E06F6075A87CE6122027
:1016B500CFA3EFF07F8D1220E2900102EFF07F8B38
:1016C5001220E2900101EFF080569000FBE0FF044C
:1016D500F0EFC3940A4049E4F090010304F0E4FDFF
:1016E5007F8E1222739000FCE0FD7F801222737FB3
:1016F500821222707F84122270A3E0FD7F8612225F
:1017050073A3E0FD7F88122273A3E0FD7F8A122276
:1017150073A3E0FD7F8C1222737D807F8E1222736E
:03172500057C221E
:1011B5007F811220E29000FCEFF07F831220E2A3F2
:1011C500EF1220CFA3EFF07F8B1220E2A3EFF07F89
:1011D5008D1220E2A3EFF0E4FD7F8E1222737F1EB5
:1011E50012239FEF64A560047F0180027F009000B9
:1011F500FCE05480FEA3E0D3945940047D018002B5
:101205007D00ED4EFE9000FEE0D394A440047D01E8
:1012150080027D00ED4EFE9000FFE0D39431400446
:101225007D0180027D00ED4EFE900100E0D3941219
:1012350040047D0180027D00ED4EFE900101E0D36A
:10124500940740047D0180027D00ED4EFE90010271
:10125500E0D3949940047D0180027D00ED4E4F60FE
:1012650030780F7C007D007B007A0079087E007F56
:10127500071201261223327DA57F1E12212878FC34
:101285007C007D017B007A0079087E007F071201D2
:10129500267DA97F901222737D807F8E1222739006
:0E12A500005B74FFF0A37416F0A37483F022B4
:0B0CD700480104D4111A50400288A507
:092379007F03122382D2C57F0309
:0A238200AE071FEE60030080F72293
:10238C00D2A7122379C2A77F03122382C2C57F036F
:03239C0002238297
:0C004600C2A7122379D2A77F03022382F5
:1022AD00E4FFD2C530A709EFC394FA50030F80F4B1
:0C22BD007F03122382C2C57F030223822C
:02217900AD07B0
:10217B00E4FBC2C57F03122382ED3392A7ED25E06A
:10218B00FD1223790BBB08EAC2C57F03122382D24F
:06219B00C57F0302238250
:021DB400157C9C
:101DB60090010CE06401703712238C7F2012217988
:101DC6001222ADA87CE4F6A87CE6FFC3940850175F
:101DD60074042FF582E43401F583E0FF12217912B1
:0F1DE60022ADA87C0680E0120046E490010CF0CC
:031DF500057C2248
:101BD300900106E025E025E0FFA3E0C413135403BE
:101BE3002F2466F515E43403F51490010BE0540F2C
:101BF300F516900109E0543FFF5403FEBE0305753B
:101C030017FF8003E4F517EF540CFEBE0C0575189F
:101C1300FF8003E4F518EF5430FFBF30057519FF5B
:0B1C23008003E4F5197B007A007914BF
:011C2E002293
:10152500D3E50F9438E50E940450047F0180027FC3
:1015350000C3E50F9466E50E940340047E01800226
:101545007E00EE5F6030121BD312021F650F700420
:10155500E5F0650E6020E50F249AFD1313543F90C6
:101565000106F0ED5403FFC4333354C04410A3F017
:1015750090010C7401F0121BD3E92402F9E43AFA44
:1015850012014C651060047F0180027F00E510D3D5
:10159500940F50047E0180027E00EE5F6011E5101D
:1015A500540FFF90010BE054F04FF0A37401F07D50
:1015B5002AE5116003430501E5126003430504E5CF
:1015C500136003430510900109E06D6008EDF0908C
:0515D500010C7401F09F
:0115DA0022EE
:1021C900780E7C007D007B007A0079087E007F060E
:1021D90012012612152590005874FFF0A3741DF002
:0521E900A374B4F02214
:1023C20053B1DF43B220C2B5C20A8F5A438F1022E3
:03005300021AE5A9
:101AE500C0E0C083C082C0D075D000C000C001C0B6
:031AF50002C00329
:101AF800200313D203751B08756000751A00E55A98
:101B0800C313F558803AE559C394014031E51A25C5
:101B1800E0F51AE559C394034002051AD51B21E5DF
:101B280060C3951C501A751B08AB1DAA1EA91F85FA
:101B38006082758300E51A12019205608002C20373
:031B4800755900CC
:101B4B00D003D002D001D000D0D0D082D083D0E04F
:011B5B003257
:092457008B1D8A1E891F8D1C22B9
:03248000AF602228
:10200B002003047F0180027F00200A047E018002EE
:10201B007E00EE5F60188B648A658966EDC313F5ED
:10202B0057C202E4F562538FEFD2047F02227F0383
:01203B002282
:101EBB002003047F0180027F00200A047E01800240
:101ECB007E00EE5F6026538FEF755B10756308D253
:101EDB000A438F018B648A658966ED75F008A4044B
:0F1EEB00F557D202E4F562D2047F02227F032270
:1022C9002003047F0180027F00200A047E0180022E
:0C22D9007E00EE5F60037F00227F012288
:100CE2005500C600000000000000000000000000E7
:080CF2000000010000000000F9
:030043000203BCF9
:1003BC00C0E0C0F0C083C082C0D075D000C000C007
:1003CC0001C002C003C004C005C006C007E59A30D6
:1003DC00E144539AFD9000CBE0FEA3E0FFC39000F4
:1003EC00CAE09F9000C9E09E501F9000C6E0FBA39E
:1003FC00E0FAA3E0F9A3E475F00112020985F0829A
:10040C00F583120165F59B800D9000CDE4F0900012
:10041C00C5E06002C2B7E59A20E00302057C539A5E
:10042C00FE300C0BC20C9000D3E4F0A3F0D2099078
:10043C0000C5E0640260030204D49000D1E0FEA386
:10044C00E0FFA3E0FCA3E0FDC39FEC9E5071900085
:10045C00CEE0FBA3E0FAA3E0F98D828C83E59B123E
:10046C0001929000D9E0FEA3E0FFC3ED9FEC9E50FB
:10047C00409000D1E0FCA3E0FDEF9DEE9C5032904B
:10048C0000D6E0FBA3E0FAA3E0F99000D3E0FEA3D2
:10049C00E0FFF5828E83120165FD9000CEE0FBA398
:1004AC00E0FAA3E0F98F828E831201656D6002C2BF
:1004BC00099000D4E004F070069000D3E004F090B2
:1004CC000029E57BF002057C9000D1E0FEA3E0FF63
:1004DC00A3E0FCA3E0FDC39FEC9E50779000CEE020
:1004EC00FBA3E0FAA3E0F98D828C83E59B120192C9
:1004FC009000D9E0FEA3E0FFC3ED9FEC9E50469028
:10050C0000D1E0FCA3E0FDEF9DEE9C50389000D6AE
:10051C00E0FBA3E0FAA3E0F99000D3E0FEA3E0FF38
:10052C00F5828E83120165FD9000CEE0FBA3E0FA0C
:10053C00A3E0F98F828E831201656D60089000D361
:10054C0074FFF0A3F09000D4E004F070069000D398
:10055C00E004F09000D1E0FEA3E0FFC39000D4E0F3
:10056C009F9000D3E09E40089000D57401F0D20C0F
:10057C00D007D006D005D004D003D002D001D000D3
:0B058C00D0D0D082D083D0F0D0E0327D
:0223FF00157C4B
:0A2401009000D5E0A87CF6FFE4F09F
:03240B00057C222B
:0100290022B4
:10146A008F0B8E0A8D098C089000C5E50CF070026E
:10147A00800343BA019000C5E0701790005E74FFC4
:10148A00F0A37400F0A37429F0E4F5DBD290D291B2
:10149A008023C2B7AB0BAA0AA909A808E47F407E39
:1014AA009CFDFC1202D58F7BE57B7003757B019056
:1014BA000029E57BF0759A10E47B04FAF9F8901F8D
:1014CA00A012038E1202D5AB0BAA0AA909A8081208
:1014DA0002D5EFF404F5D7E47B04FAF9F8901FA0DB
:1014EA0012038E1202D5AB0BAA0AA909A808120286
:1014FA00D5C3E49FFFE49EFE74019DFDE49CFC7845
:10150A00081203678FD6438E1443AF0190005274BA
:0B151A00FFF0A37423F0A374FFF02285
:10203C009000CEEBF0A3EAF0A3E9F0A3ECF0A3ED53
:10204C00F09000D9E510F0A3E511F09000D6E50D65
:10205C00F0A3E50EF0A3E50FF0D20CE49000D5F060
:01206C002251
:10206D009000CDE070289000C5E06002D2B79000DE
:10207D00C6EBF0A3EAF0A3E9F0E4A3F0A3F0A3EC20
:10208D00F0A3EDF0A37401F0439A027F02227F03C7
:01209D002220
:0B241D009000CDE07002FF227F012242
:100CFA005500DB00000000000000000000000000BA
:080D0A000000010000000000E0
:03002300020E4F7B
:100E4F00C0E0C0F0C083C082C0D075D000C000C069
:100E5F0001C002C003C004C005C006C00730993BE3
:100E6F00C2999000E0E0FEA3E0FFC39000DFE09F97
:100E7F009000DEE09E501F9000DBE0FBA3E0FAA3A2
:100E8F00E0F9A3E475F00112020985F082F58312EF
:100E9F000165F59980059000E2E4F0209803020FB8
:100EAF0066C298300B09C20B9000E8E4F0A3F090F3
:100EBF0000E6E0FEA3E0FFA3E0FCA3E0FDC39FEC90
:100ECF009E50779000E3E0FBA3E0FAA3E0F98D8258
:100EDF008C83E5991201929000EEE0FEA3E0FFC330
:100EEF00ED9FEC9E50469000E6E0FCA3E0FDEF9DE9
:100EFF00EE9C50389000EBE0FBA3E0FAA3E0F990F2
:100F0F0000E8E0FEA3E0FFF5828E83120165FD90FD
:100F1F0000E3E0FBA3E0FAA3E0F98F828E831201D6
:100F2F00656D60089000E874FFF0A3F09000E9E0B1
:100F3F0004F070069000E8E004F09000E6E0FEA3F5
:100F4F00E0FFC39000E9E09F9000E8E09E4008902A
:100F5F0000EA7401F0D20BD007D006D005D004D030
:100F6F0003D002D001D000D0D0D082D083D0F0D027
:020F7F00E0325E
:02240E00157C3B
:0A2410009000EAE0A87CF6FFE4F07B
:03241A00057C221C
:101B5C008F0B8E0A8D098C08759850438E40538ECE
:101B6C00FE53890FE47B04FAF9F8901FA012038E40
:101B7C001202D5AB0BAA0AA909A8081202D5EFF4D8
:101B8C0004F58BE47B04FAF9F8901FA012038E1273
:101B9C0002D5AB0BAA0AA909A8081202D5C3E49F67
:101BAC00FFE49EFE74019DFDE49CFC780812036723
:101BBC008F8DC2ABD28ED2AC90004F74FFF0A37459
:071BCC0024F0A3740EF022C7
:10209E009000E3EBF0A3EAF0A3E9F0A3ECF0A3EDDC
:1020AE00F09000EEE510F0A3E511F09000EBE50DD9
:1020BE00F0A3E50EF0A3E50FF0D20BE49000EAF0EA
:0120CE0022EF
:1021A1009000E2E0701F9000DBEBF0A3EAF0A3E9FE
:1021B100F0E4A3F0A3F0A3ECF0A3EDF0A37401F01D
:0821C100D2997F02227F032264
:0B2428009000E2E07002FF227F012222
:030000000218D90A
:0C18D900787FE4F6D8FD75817C021920B0
:10005600E709F608DFFA8046E709F208DFFA803E8C
:1000660088828C83E709F0A3DFFA8032E309F60879
:10007600DFFA8078E309F208DFFA807088828C83E1
:10008600E309F0A3DFFA806489828A83E0A3F60895
:10009600DFFA805889828A83E0A3F208DFFA804C6F
:1000A60080D280FA80C680D4806980F28033801046
:1000B60080A680EA809A80A880DA80E280CA8033AF
:1000C60089828A83ECFAE493A3C8C582C8CCC58327
:1000D600CCF0A3C8C582C8CCC583CCDFE9DEE780F7
:1000E6000D89828A83E493A3F608DFF9ECFAA9F076
:1000F600EDFB2289828A83ECFAE0A3C8C582C8CCCC
:10010600C583CCF0A3C8C582C8CCC583CCDFEADEE4
:10011600E880DB89828A83E493A3F208DFF980CC46
:1001260088F0EF60010E4E60C388F0ED2402B4043F
:100136000050B9F582EB2402B4040050AF232345E6
:0601460082239000A67365
:10014C00BB010689828A83E0225002E722BBFE02B1
:09015C00E32289828A83E49322E4
:10016500BB010CE58229F582E5833AF583E022504F
:1001750006E92582F8E622BBFE06E92582F8E22299
:0D018500E58229F582E5833AF583E49322B3
:10019200F8BB010DE58229F582E5833AF583E8F0A3
:1001A200225006E92582C8F622BBFE05E92582C84F
:0201B200F22237
:1001B400BC000BBE0029EF8DF084FFADF022E4CC2F
:1001C400F875F008EF2FFFEE33FEEC33FCEE9DECF8
:1001D400984005FCEE9DFE0FD5F0E9E4CEFD22ED3E
:1001E400F8F5F0EE8420D21CFEADF075F008EF2F88
:1001F400FFED33FD4007985006D5F0F222C398FD79
:050204000FD5F0EA2215
:10020900A3F8E0C5F025F0F0E582158270021583A8
:06021900E0C838F0E82205
:10021F00BB010A89828A83E0F5F0A3E022500687AA
:10022F00F009E71922BBFE07E3F5F009E31922896C
:0B023F00828A83E493F5F0740193229F
:10024A00E88FF0A4CC8BF0A42CFCE98EF0A42CFC53
:10025A008AF0EDA42CFCEA8EF0A4CDA8F08BF0A4D1
:10026A002DCC3825F0FDE98FF0A42CCD35F0FCEB30
:10027A008EF0A4FEA9F0EB8FF0A4CFC5F02ECD39F5
:0F028A00FEE43CFCEAA42DCE35F0FDE43CFC2262
:1002990075F008758200EF2FFFEE33FECD33CDCC1C
:1002A90033CCC58233C5829BED9AEC99E58298409F
:1002B9000CF582EE9BFEED9AFDEC99FC0FD5F0D67C
:1002C900E4CEFBE4CDFAE4CCF9A88222B800C1B9A6
:1002D9000059BA002DEC8BF084CFCECDFCE5F0CBE4
:1002E900F97818EF2FFFEE33FEED33FDEC33FCEB1D
:1002F90033FB10D703994004EB99FB0FD8E5E4F9D8
:10030900FA227818EF2FFFEE33FEED33FDEC33FCC4
:10031900C933C910D7059BE99A4007EC9BFCE99AB8
:10032900F90FD8E0E4C9FAE4CCFB2275F010EF2FFD
:10033900FFEE33FEED33FDCC33CCC833C810D707FD
:100349009BEC9AE899400AED9BFDEC9AFCE899F838
:0E0359000FD5F0DAE4CDFBE4CCFAE4C8F922CB
:101DF800C2D5E830E70FB2D5E4C39BFBE49AFAE416
:101E080099F9E498F8EC30E717B2D5121E2E1202B1
:101E1800D5E4C39BFBE49AFAE499F9E498F88003C3
:101E28001202D530D50DE4C39FFFE49EFEE49DFD6C
:041E3800E49CFC2208
:10036700E8600FECC313FCED13FDEE13FEEF13FF74
:03037700D8F12298
:10037A00E86010ECA2E713FCED13FDEE13FEEF1399
:04038A00FFD8F02286
:10038E00E493FC740193FD740293FE740393FF22B5
:0C039E00ECF0A3EDF0A3EEF0A3EFF022D2
:0C03AA00A42582F582E5F03583F583225E
:0603B6008A838982E473D2
:1018E5000210A8E493A3F8E493A34003F68001F261
:1018F50008DFF48029E493A3F85407240CC8C33304
:10190500C4540F4420C8834004F456800146F6DFD2
:10191500E4800B0102040810204080900BC7E47E90
:10192500019360BCA3FF543F30E509541FFEE493C7
:10193500A360010ECF54C025E060A840B8E493A38E
:10194500FAE493A3F8E493A3C8C582C8CAC583CAB9
:10195500F0A3C8C582C8CAC583CADFE9DEE780BE71
:010D120000E0
:00000001FF
