:0A00000002266D43D8042280FE2280
:10000B00022CA512329053B1F353B2F353917F5399
:03001B00927F22AF
:0F002300022834E5D830E20653D8FB12106322CE
:03003B00022DDDB6
:100043000227A390FFFE120DA9EEF0A3EFF07B00B1
:100053007A007DF57C1B7F0312000390022AE0FFE8
:10006300EF25E025E0241BF582E43404F583E0FC6E
:10007300A3E0FDA3E0FEA3E0FFEF5400FFEE541066
:10008300FEED5400FDEC5400FC7B007A10790078FF
:1000930000C3120CE16003020197900357E0FFEFE6
:1000A30064AA6003020197900358E0FFEF64556070
:1000B30003020197900359E0FFEF600302017E9072
:1000C300035AE0FF74402FF582E43404F583C083C0
:1000D300C082E0FF90035BE0FE7401A80608800283
:1000E300C333D8FCFEEF4EFFD082D083EFF09003F2
:1000F3005AE0FF90035BE0FD12235CEF6003020113
:100103009790044AE0FF90045CEFF090044FE0FF07
:1001130074402FF582E43404F583E0FFEFB47F05E8
:100123007F0112270D90044FE0FF74402FF582E406
:100133003404F583E0FFEFFD7C0090044BE0FF7493
:10014300017E00A807088005C333CE33CED8F9FF5C
:10015300EE5CFCEF5DFD90044BE0FF74017E00A8B4
:1001630007088005C333CE33CED8F9FFEFB5052496
:10017300EEB504207F01121F768019900359E0FF2A
:10018300EFB4011090035BE0FF900449EFF090049B
:100193005D7401F090044AE0FF90045CE0FEEE6FB2
:1001A300600302005190022AE0FFEF25E025E024DE
:1001B3001BF582E43404F583E0FCA3E0FDA3E0FE39
:1001C300A3E0FFEF5420FFEE5400FEED5400FDECDE
:1001D3005400FC7B207A0079007800C3120CE17094
:1001E3005F7F0012270D90044FE0FF74402FF582CC
:1001F300E43404F583E0FFEFFD7C0090044BE0FF63
:1002030074017E00A807088005C333CE33CED8F926
:10021300FFEE5CFCEF5DFD90044BE0FF74017E009C
:10022300A807088005C333CE33CED8F9FFEF6D702E
:1002330002EE6C60030200517F01121F760200512F
:1002430090022AE0FFEF25E025E0241BF582E43449
:1002530004F583E0FCA3E0FDA3E0FEA3E0FFEF547D
:1002630040FFEE5400FEED5400FDEC5400FC7B40D7
:100273007A0079007800C3120CE1705F7F011227C6
:100283000D90044FE0FF74402FF582E43404F583AE
:10029300E0FFEFFD7C0090044BE0FF74017E00A8BB
:1002A30007088005C333CE33CED8F9FFEE5CFCEFED
:1002B3005DFD90044BE0FF74017E00A807088005F4
:1002C300C333CE33CED8F9FFEF6D7002EE6C60030B
:1002D3000200517F01121F7602005190022AE0FFB3
:1002E300EF25E025E0241BF582E43404F583E0FCEC
:1002F300A3E0FDA3E0FEA3E0FFEF5480FFEE540074
:10030300FEED5400FDEC5400FC7B807A007900780C
:1003130000C3120CE170087F01121F760200519096
:10032300022AE0FFEF25E025E0241BF582E43404F4
:10033300F583E0FCA3E0FDA3E0FEA3E0FFEF5400A0
:10034300FFEE5401FEED5400FDEC5400FC7B007AFB
:100353000179007800C3120CE170087F00121F7648
:1003630002005190022AE0FFEF25E025E0241BF56F
:1003730082E43404F583E0FCA3E0FDA3E0FEA3E004
:10038300FFEF5410FFEE5400FEED5400FDEC54005B
:10039300FC7B107A0079007800C3120CE160030241
:1003A300051490044FE0FF74402FF582E43404F504
:1003B30083C083C082E0FF90044BE0FE7401A80673
:1003C300088002C333D8FCFEEF4EFFD082D083EF08
:1003D300F0123257EF605C90044BE0FFEFB4060974
:1003E30090044EE02402F0800690044EE004F09066
:1003F300044AE0FF9004A3EFF090044EE0FF900462
:10040300A4EFF09004A5E4F09004A6E4F09004A710
:10041300E4F07B017D557FAA122E40C28C7B017ACA
:100423000479517D081225B7D28C90045D7401F0D4
:1004330002005190044FE0FF90044BE0FD12235C57
:10044300EF601590044FE0FF90044BE0FD12235C36
:1004530090044EE02FF0800A900448E0FF90045C83
:10046300EFF090044FE0FF9004A3EFF090044BE013
:10047300FF9004A4EFF09004A5E4F09004A6E4F048
:100483009004A7E4F07B007D557FAA122E40C28C16
:100493007B017A0479517D081225B7D28C90044FE1
:1004A300E0FF74402FF582E43404F583E0FFEFB4FA
:1004B3007F057F0112270D90044FE0FF74402FF555
:1004C30082E43404F583E0FFEFFD7C0090044BE00D
:1004D300FF74017E00A807088005C333CE33CED84E
:1004E300F9FFEE5CFCEF5DFD90044BE0FF74017ED1
:1004F30000A807088005C333CE33CED8F9FFEF6DCC
:100503007002EE6C60030200517F01121F7602003D
:100513005190022AE0FFEF25E025E0241BF582E459
:100523003404F583E0FCA3E0FDA3E0FEA3E0FFEFCA
:100533005400FFEE5402FEED5400FDEC5400FC7B2E
:10054300007A0279007800C3120CE16003020051C3
:10055300020051900002120DA92290FFFC120DA976
:10056300120D3A7B0A7A0079007800852483852569
:1005730082E0FCA3E0FDA3E0FEA3E0FF120C4FAC7E
:1005830000AD01AE02AF0374D22FF58274323EF593
:1005930083E493FF900497EFF0852483852582C03D
:1005A30083C082E0FCA3E0FDA3E0FEA3E0FF7B0A9F
:1005B3007A0079007800120C4FD082D083120D3A62
:1005C3007B0A7A0079007800852483852582E0FC04
:1005D300A3E0FDA3E0FEA3E0FF120C4FAC00AD01CE
:1005E300AE02AF0374D22FF58274323EF583E493E7
:1005F300FF900496EFF0852483852582C083C08213
:10060300E0FCA3E0FDA3E0FEA3E0FF7B0A7A007910
:10061300007800120C4FD082D083120D3A7B0A7AF5
:100623000079007800852483852582E0FCA3E0FD22
:10063300A3E0FEA3E0FF120C4FAC00AD01AE02AF8E
:100643000374D22FF58274323EF583E493FF900452
:1006530095EFF0852483852582C083C082E0FCA3C7
:10066300E0FDA3E0FEA3E0FF7B0A7A0079007800B7
:10067300120C4FD082D083120D3A7B0A7A00790094
:100683007800852483852582E0FCA3E0FDA3E0FEBA
:10069300A3E0FF120C4FAC00AD01AE02AF0374D266
:1006A3002FF58274323EF583E493FF900494EFF0C8
:1006B300852483852582C083C082E0FCA3E0FDA35B
:1006C300E0FEA3E0FF7B0A7A0079007800120C4F6A
:1006D300D082D083120D3A7B0A7A007900780085A4
:1006E3002483852582E0FCA3E0FDA3E0FEA3E0FFD5
:1006F300120C4FAC00AD01AE02AF0374D22FF582E2
:1007030074323EF583E493FF900493EFF0852483E2
:10071300852582C083C082E0FCA3E0FDA3E0FEA3A5
:10072300E0FF7B0A7A0079007800120C4FD082D068
:1007330083120D3A7B0A7A00790078008524838539
:100743002582E0FCA3E0FDA3E0FEA3E0FF120C4F33
:10075300AC00AD01AE02AF0374D22FF58274323E0A
:10076300F583E493FF900492EFF08524838525823B
:10077300C083C082E0FCA3E0FDA3E0FEA3E0FF7B17
:100783000A7A0079007800120C4FD082D083120DC0
:100793003A7B0A7A0079007800852483852582E0F4
:1007A300FCA3E0FDA3E0FEA3E0FF120C4FAC00AD01
:1007B30001AE02AF0374D22FF58274323EF583E4A7
:1007C30093FF900491EFF0852483852582C083C035
:1007D30082E0FCA3E0FDA3E0FEA3E0FF7B0A7A0036
:1007E30079007800120C4FD082D083120D3A7B0A25
:1007F3007A0079007800852483852582E0FCA3E0D4
:10080300FDA3E0FEA3E0FF120C4FAC00AD01AE026E
:10081300AF0374D22FF58274323EF583E493FF90D5
:100823000490EFF0852483852582C083C082E0FC99
:10083300A3E0FDA3E0FEA3E0FF7B0A7A0079007842
:1008430000120C4FD082D083120D3A900004120D87
:10085300A922121851900478E0FFEF30E0249004AD
:100863003BE0FCA3E0FDA3E0FEA3E0FFEF4401FFB8
:10087300EE4400FEED4400FDEC4400FC90043B120A
:100883000D3A900478E0FFEF30E12490043BE0FC64
:10089300A3E0FDA3E0FEA3E0FFEF4404FFEE44006A
:1008A300FEED4400FDEC4400FC90043B120D3A9035
:1008B3000478E0FFEF30E22490043BE0FCA3E0FD8A
:1008C300A3E0FEA3E0FFEF4410FFEE4400FEED447F
:1008D30000FDEC4400FC90043B120D3A900478E0D8
:1008E300FFEF30E32490043BE0FCA3E0FDA3E0FE34
:1008F300A3E0FFEF4480FFEE4400FEED4400FDEC77
:100903004400FC90043B120D3A900478E0FFEF3072
:10091300E42490043BE0FCA3E0FDA3E0FEA3E0FF9E
:10092300EF4400FFEE4401FEED4400FDEC4400FC07
:1009330090043B120D3A900478E0FFEF30E52490E9
:10094300043BE0FCA3E0FDA3E0FEA3E0FFEF4420B3
:10095300FFEE4400FEED4400FDEC4400FC90043B3C
:10096300120D3A900478E0FFEF30E62490043BE068
:10097300FCA3E0FDA3E0FEA3E0FFEF4440FFEE4451
:1009830000FEED4400FDEC4400FC90043B120D3AE4
:10099300900478E0FFEF30E72490043BE0FCA3E011
:1009A300FDA3E0FEA3E0FFEF4400FFEE4402FEEDF3
:1009B3004400FDEC4400FC90043B120D3A90047794
:1009C300E0FFEF30E02490043BE0FCA3E0FDA3E074
:1009D300FEA3E0FFEF4402FFEE4400FEED4400FD02
:1009E300EC4400FC90043B120D3A900477E0FFEFD7
:1009F30030E12490043BE0FCA3E0FDA3E0FEA3E090
:100A0300FFEF4408FFEE4400FEED4400FDEC44001C
:100A1300FC90043B120D3A900477E0FFEF30E224A0
:100A230090043BE0FCA3E0FDA3E0FEA3E0FFEF4462
:100A330000FFEE4404FEED4400FDEC4400FC900492
:100A43003B120D3A900477E0FFEF30E32490043B30
:100A5300E0FCA3E0FDA3E0FEA3E0FFEF4400FFEE14
:100A63004404FEED4400FDEC4400FC90043B120DF5
:100A73003A900477E0FFEF30E42490043BE0FCA3DA
:100A8300E0FDA3E0FEA3E0FFEF4400FFEE4404FE1D
:100A9300ED4400FDEC4400FC90043B120D3A90043D
:100AA30077E0FFEF30E52490043BE0FCA3E0FDA3F7
:100AB300E0FEA3E0FFEF4400FFEE4404FEED44003C
:100AC300FDEC4400FC90043B120D3A900477E0FFE8
:100AD300EF30E62490043BE0FCA3E0FDA3E0FEA39B
:100AE300E0FFEF4400FFEE4404FEED4400FDEC4460
:100AF30000FC90043B120D3A900477E0FFEF30E7DF
:100B03002490043BE0FCA3E0FDA3E0FEA3E0FFEFA1
:100B13004400FFEE4404FEED4400FDEC4400FC9071
:100B2300043B120D3A22BB010689828A83E02250DC
:100B330002E722BBFE02E32289828A83E49322BB7B
:100B4300010CE58229F582E5833AF583E02250061C
:100B5300E92582F8E622BBFE06E92582F8E222E5D2
:100B63008229F582E5833AF583E49322BC000BBE28
:100B73000029EF8DF084FFADF022E4CCF875F00886
:100B8300EF2FFFEE33FEEC33FCEE9DEC984005FCBB
:100B9300EE9DFE0FD5F0E9E4CEFD22EDF8F5F0EE83
:100BA3008420D21CFEADF075F008EF2FFFED33FD6E
:100BB3004007985006D5F0F222C398FD0FD5F0EA0E
:100BC30022E88FF0A4CC8BF0A42CFCE98EF0A42CAB
:100BD300FC8AF0EDA42CFCEA8EF0A4CDA8F08BF0F7
:100BE300A42DCC3825F0FDE98FF0A42CCD35F0FCF5
:100BF300EB8EF0A4FEA9F0EB8FF0A4CFC5F02ECDC1
:100C030039FEE43CFCEAA42DCE35F0FDE43CFC22A5
:100C130075F008758200EF2FFFEE33FECD33CDCC98
:100C230033CCC58233C5829BED9AEC99E58298401B
:100C33000CF582EE9BFEED9AFDEC99FC0FD5F0D6F8
:100C4300E4CEFBE4CDFAE4CCF9A88222B800C1B922
:100C53000059BA002DEC8BF084CFCECDFCE5F0CB60
:100C6300F97818EF2FFFEE33FEED33FDEC33FCEB99
:100C730033FB10D703994004EB99FB0FD8E5E4F954
:100C8300FA227818EF2FFFEE33FEED33FDEC33FC41
:100C9300C933C910D7059BE99A4007EC9BFCE99A35
:100CA300F90FD8E0E4C9FAE4CCFB2275F010EF2F7A
:100CB300FFEE33FEED33FDCC33CCC833C810D7077A
:100CC3009BEC9AE899400AED9BFDEC9AFCE899F8B5
:100CD3000FD5F0DAE4CDFBE4CCFAE4C8F922EB9FBC
:100CE300F5F0EA9E42F0E99D42F0E89C45F022E8E7
:100CF300600FECC313FCED13FDEE13FEEF13FFD8EF
:100D0300F1227401FF3395E0FEFDFCA3A3A3E02FC2
:100D1300FFF0E582158270021583E03EFEF0E58266
:100D2300158270021583E03DFDF0E58215827002A5
:100D33001583E03CFCF022ECF0A3EDF0A3EEF0A36E
:100D4300EFF022A8828583F0D083D082120D5D124A
:100D53000D5D120D5D120D5DE473E493A3C583C5B0
:100D6300F0C583C8C582C8F0A3C583C5F0C583C8D1
:100D7300C582C822A42582F582E5F03583F5832256
:100D8300D083D082F8E4937012740193700DA3A3FF
:100D930093F8740193F5828883E473740293686013
:100DA300EFA3A3A380DFE5252582F582E524358320
:100DB300F583B524048582252210AF06858225F5A7
:100DC3002422858225F524D2AF22E5252582F582CA
:100DD300E5243583F58322900498EEF0A3EFF09099
:100DE300049AECF0A3EDF090049AE0FEA3E0FFEF89
:100DF3007806C333CE33CED8F9FF74002FF582744F
:100E0300003EF583AF82AE83EF2440FFEE3400FE55
:100E13007F00EEFF7E0090049AE0FCA3E0FD9002C9
:100E23003875F012ED120D77EC75F012A42583F5E9
:100E330083EFF090049AE0FEA3E0FFEF7806C3335C
:100E4300CE33CED8F9FF74002FF58274003EF583BC
:100E5300AF82EF2440FFEF54FFFF90049AE0FCA31E
:100E6300E0FD90023975F012ED120D77EC75F0127A
:100E7300A42583F583EFF0900498E0FEA3E0FF7FC1
:100E830000EEFF7E0090049AE0FCA3E0FD90023A9E
:100E930075F012ED120D77EC75F012A42583F5832E
:100EA300EFF0900498E0FEA3E0FFEF54FFFF9004FF
:100EB3009AE0FCA3E0FD90023B75F012ED120D7772
:100EC300EC75F012A42583F583EFF090049AE0FE0D
:100ED300A3E0FF1231A5EF64FF603490049AE0FEB3
:100EE300A3E0FF1231A5EF75F015A42436F8AF0087
:100EF30090049AE0FCA3E0FD90023C75F012ED1221
:100F03000D77EC75F012A42583F583EFF0801D9027
:100F1300049AE0FEA3E0FF90023C75F012EF120D7D
:100F230077EE75F012A42583F583E4F090049CE03A
:100F3300FCA3E0FDA3E0FEA3E0FFEF5400FFEE54AB
:100F430000FEED5400FDEC54FFFC7818120CF290F7
:100F5300049AE0FCA3E0FD90023475F012ED120D4B
:100F630077EC75F012A42583F583EFF090049CE0F1
:100F7300FCA3E0FDA3E0FEA3E0FFEF5400FFEE546B
:100F830000FEED54FFFDEC5400FC7810120CF290BF
:100F9300049AE0FCA3E0FD90023575F012ED120D0A
:100FA30077EC75F012A42583F583EFF090049CE0B1
:100FB300FCA3E0FDA3E0FEA3E0FFEF5400FFEE542B
:100FC300FFFEED5400FDEC5400FC7808120CF29087
:100FD300049AE0FCA3E0FD90023675F012ED120DC9
:100FE30077EC75F012A42583F583EFF090049CE071
:100FF300FCA3E0FDA3E0FEA3E0FFEF54FFFFEE54EC
:1010030000FEED5400FDEC5400FC90049AE0FCA3B8
:10101300E0FD90023775F012ED120D77EC75F012CA
:10102300A42583F583EFF090049AE0FEA3E0FF7418
:10103300212FF58274023EF5837403F0900220E0C1
:10104300FF90049AE0FCA3E0FDAE057401A8060836
:101053008002C333D8FCFEEF4EFF900220EFF02254
:101063009004BEE515F0AF127E00EF7F00FEAD13D6
:101073007C00EF2DFFEE3CFE9004BFEEF0A3EFF0FB
:10108300AF107E00EF7F00FEAD117C00EF2DFFEE71
:101093003CFE9004C1EEF0A3EFF09004BEE0FFEF3E
:1010A300B4010512294822229004BEE0FFEF640236
:1010B300705990043FE0FF90022AE0FE7401A806F5
:1010C300088002C333D8FCFEEF4EFF90043FEFF0DD
:1010D30090022AE0FFEF25E025E0241BF582E434AB
:1010E30004F583120D46000020009004BFE0FEA328
:1010F300E0FF90022AE0FDED25E024BBF582E43415
:1011030002F583EEF0A3EFF08099229004BEE0FF96
:10111300EF6403706190043FE0FF90022AE0FE74E5
:1011230001A806088002C333D8FCFEEF4EFF9004EB
:101133003FEFF09004BFE0FEA3E0FFE4FCFD90026C
:101143002AE0FBEB25E025E0241BF582E43404F5DB
:1011530083120D3A9004C1E0FEA3E0FF90022AE05F
:10116300FDED25E024BBF582E43402F583EEF0A324
:10117300EFF00210A6229004BEE0FFEF702390026E
:1011830020E0FF90022AE0FE7401A806088002C353
:1011930033D8FCFEEEF4FEEF5EFF900220EFF02268
:1011A300229004BEE0FFEFB404159004BFE0FEA359
:1011B300E0FF9004C1E0FCA3E0FD12316122229024
:1011C30004BEE0FFEFB4050D9004BFE0FEA3E0FF13
:1011D3001220A022229004BEE0FFEFB40617900471
:1011E300BFE0FEA3E0FF122AD1EF70030210A62294
:1011F300220210A6229004BEE0FFEF640760030200
:1012030012D09004BFE0FEA3E0FF7401A80708809A
:1012130002C333D8FCFF90043FE0FEEF5EFFEF70A4
:10122300030212D09004BFE0FEA3E0FFEF7802C3F5
:1012330033CE33CED8F9FF741B2FF58274043EF5F9
:1012430083E0F8A3E0F9A3E0FAA3E0FB9004C1E094
:10125300FEA3E0FFE4FCFDEF5BFFEE5AFEED59FD5C
:10126300EC58FCEC4D4E4F606490043BE0FCA3E073
:10127300FDA3E0FEA3E0FFC004C005C006C00790C5
:1012830004BFE0FEA3E0FFEF7802C333CE33CED832
:10129300F9FF741B2FF58274043EF583D007D00643
:1012A300D005D004120D3A90043FE0FF9004BFE054
:1012B300FCA3E0FDAE057401A806088002C333D881
:1012C300FCFEEEF4FEEF5EFF90043FEFF02290048D
:1012D300D3EFF09004D4E4F053C9EF53CAEFD2969E
:1012E300D2CCD295C2959004D3E0FFEF30E003D384
:1012F3008001C392CCD295C2959004D3E0FFEF3026
:10130300E103D38001C392CCD295C2959004D3E07C
:10131300FFEF30E203D38001C392CCD295C2959004
:1013230004D3E0FFEF30E303D38001C392CCD29523
:10133300C2959004D3E0FFEF30E403D38001C3925E
:10134300CCD295C2959004D3E0FFEF30E503D38070
:1013530001C392CCD295C295D2CCD295C29543C942
:101363001053CAEF9004D4E0FFEF54FEFF9004D46F
:10137300EFF09004D4E0FFA2CCE433FEEF4EFF90F5
:1013830004D4EFF0D295C2959004D4E0FFEF54FD5E
:10139300FF9004D4EFF09004D4E0FFA2CCE433FE3A
:1013A300EE25E0FEEF4EFF9004D4EFF0D295C29508
:1013B3009004D4E0FFEF54FBFF9004D4EFF09004CB
:1013C300D4E0FFA2CCE433FEEE25E025E0FEEF4EB1
:1013D300FF9004D4EFF0D295C2959004D4E0FFEFD0
:1013E30054F7FF9004D4EFF09004D4E0FFA2CCE4D0
:1013F30033FEEE33333354F8FEEF4EFF9004D4EF55
:10140300F0D295C2959004D4E0FFEF54EFFF90041F
:10141300D4EFF09004D4E0FFA2CCE433FEEEC45446
:10142300F0FEEF4EFF9004D4EFF0D295C2959004F6
:10143300D4E0FFEF54DFFF9004D4EFF09004D4E046
:10144300FFA2CCE433FEEEC43354E0FEEF4EFF9034
:1014530004D4EFF0D295C2959004D4E0FFEF54BFCB
:10146300FF9004D4EFF09004D4E0FFA2CCE433FE69
:10147300EEC4333354C0FEEF4EFF9004D4EFF0D2EA
:1014830095C2959004D4E0FFEF547FFF9004D4EF0E
:10149300F09004D4E0FFA2CCE433FEEEC433333344
:1014A3005480FEEF4EFF9004D4EFF0D295C295C264
:1014B30096C295C2CC9004D4E0FF2290FFFE120D99
:1014C300A9EEF0A3EFF090FFFF120DA98524838509
:1014D3002582E4F0852483852582E0FFEF75F0649F
:1014E30084AFF0EF600302164D90045DE0FFEF6000
:1014F300030215D090044AE0FF90045CE0FEEE6F17
:101503007076900447E0FF90FFFF120DA9EFF09073
:101513000446E0FF90FFFF120DA9EFF0900445E0B1
:10152300FF90FFFF120DA9EFF0900444E0FF90FF3E
:10153300FF120DA9EFF0900443E0FF90FFFF120D9F
:10154300A9EFF0900442E0FB900441E0FD900440D9
:10155300E0FF1228BE900450E0FFEFB4010D9004A9
:101563004BE0FD90044FE0FF122FFC90044EE0FF90
:1015730090048FEFF002164D900447E0FF90FFFFB9
:10158300120DA9EFF0900446E0FF90FFFF120DA9A2
:10159300EFF0900445E0FF90FFFF120DA9EFF090EC
:1015A3000444E0FF90FFFF120DA9EFF0900443E025
:1015B300FF90FFFF120DA9EFF0900442E0FB9004AF
:1015C30041E0FD900440E0FF1228BE807D90045D61
:1015D300E0FFEF6401707390044EE0FFC374109F4B
:1015E300FF900449EFF0900449E0FFEF75F00A849F
:1015F300AFF090FFFF120DA9EFF0900449E0FFEF69
:1016030075F00A84FF90FFFF120DA9EFF090FFFF22
:10161300120DA9742EF090FFFF120DA9742EF090F5
:10162300044EE0FFEF75F00A84AFF090FFFF120D58
:10163300A9EFF090044EE0FFEF75F00A84FB7D2ED6
:101643007F2E1224FD90048FE4F085248385258268
:10165300E0FF7E007C037DE8120B6FED4C700F9072
:101663000450E0FFC374019FFF900450EFF07B0030
:101673007A007D017C007F02120003852483852587
:1016830082E004F00214D7900003120DA922AF08E0
:101693007E009002BBE0FCA3E0FDC3ED9FEC9E4007
:1016A3001D9002BBE0FEA3E0FFAD087C00C3EF9DED
:1016B300FFEE9CFE9002BBEEF0A3EFF080089002D9
:1016C300BBE4F0A3E4F0AF087E009002BDE0FCA30E
:1016D300E0FDC3ED9FEC9E401D9002BDE0FEA3E044
:1016E300FFAD087C00C3EF9DFFEE9CFE9002BDEEB4
:1016F300F0A3EFF080089002BDE4F0A3E4F0AF089C
:101703007E009002BFE0FCA3E0FDC3ED9FEC9E4092
:101713001D9002BFE0FEA3E0FFAD087C00C3EF9D78
:10172300FFEE9CFE9002BFEEF0A3EFF08008900264
:10173300BFE4F0A3E4F0AF087E009002C1E0FCA395
:10174300E0FDC3ED9FEC9E401D9002C1E0FEA3E0CF
:10175300FFAD087C00C3EF9DFFEE9CFE9002C1EE3F
:10176300F0A3EFF080089002C1E4F0A3E4F0AF0827
:101773007E009002C3E0FCA3E0FDC3ED9FEC9E401E
:101783001D9002C3E0FEA3E0FFAD087C00C3EF9D04
:10179300FFEE9CFE9002C3EEF0A3EFF080089002F0
:1017A300C3E4F0A3E4F0AF087E009002C5E0FCA31D
:1017B300E0FDC3ED9FEC9E401D9002C5E0FEA3E05B
:1017C300FFAD087C00C3EF9DFFEE9CFE9002C5EECB
:1017D300F0A3EFF080089002C5E4F0A3E4F0AF08B3
:1017E3007E009002C7E0FCA3E0FDC3ED9FEC9E40AA
:1017F3001D9002C7E0FEA3E0FFAD087C00C3EF9D90
:10180300FFEE9CFE9002C7EEF0A3EFF0800890027B
:10181300C7E4F0A3E4F0AF087E009002C9E0FCA3A4
:10182300E0FDC3ED9FEC9E401C9002C9E0FEA3E0E7
:10183300FFAD087C00C3EF9DFFEE9CFE9002C9EE56
:10184300F0A3EFF0229002C9E4F0A3E4F0229004A5
:1018530077E4F0900478E4F09004DD7413F09004DE
:10186300DDE0FFEFC39401402A9004DDE0FF7478CC
:101873002FF582E43404F583E0FF9004DDE0FE7489
:10188300792EF582E43404F583EFF09004DDE0145F
:10189300F080CB7F0712311D90048DEFF090047917
:1018A300E4F0900479E0FFA2B2B350047E01800219
:1018B3007E00EF4EFF900479EFF0900479E0FFA2F1
:1018C300B3B350047E0280027E00EF4EFF90047992
:1018D300EFF0900479E0FF90048DE0FEEEC4135422
:1018E30007FEEE70047E0480027E00EF4EFF90043C
:1018F30079EFF0900479E0FF90048DE0FEEEC413DD
:101903005407FEEEB404047E2080027E00EF4EFFF7
:10191300900479EFF0900479E0FF90048DE0FEEEFF
:10192300C4135407FEEEB401047E4080027E00EF30
:101933004EFF900479EFF0900479E0FF90048DE07E
:10194300FEEEC4135407FEEEB405047E0880027E47
:1019530000EF4EFF900479EFF0900479E0FF9004DC
:101963008DE0FEEEC4135407FEEEB402047E108035
:10197300027E00EF4EFF900479EFF0900479E0FFD0
:1019830090048DE0FEEEC4135407FEEEB403047E10
:101993008080027E00EF4EFF900479EFF09004DD2B
:1019A300E4F09004DDE0FFEFC3941350229004DDD4
:1019B300E0FF74792FF582E43404F583E0FF9004AB
:1019C30079E0FEEF6E703C9004DDE004F080D3908C
:1019D300048CE0FF900479E0FEEE6FFF900479E061
:1019E300FEEF5EFF900478EFF090048CE0FF90042C
:1019F30079E0FEEE6FFF90048CE0FEEF5EFF900453
:101A030077EFF0229004C3EFF09004C674FFF090D8
:101A130004C4E4F09004C4E0FFEFC3940550439082
:101A230004C4E0FFEF75F015A4244AF8E6FF74013F
:101A3300A807088002C333D8FCFFEF70047F01803E
:101A4300027F00900220E0FEEF5EFFEF600C900447
:101A5300C4E0FF9004C6EFF080089004C4E004F0F3
:101A630080B2122FAE7B057A0079007800120C4FFA
:101A7300AC00AD01AE02AF039004C6EFF09004C416
:101A8300E4F09004C4E0FFEFC394154003021B1C71
:101A93009004C4E0FF9004C6E0FEEE75F015A424A4
:101AA30036F8E82FF8E6FF9004C5EFF09004C4E0A1
:101AB300FF9004C3E0FEEE75F015A424DCF582E488
:101AC3003403F583E5822FF582E43583F583E0FF64
:101AD3009004C4E0FE9004C6E0FDED75F015A42467
:101AE30036F8E82EF8A6079004C5E0FF9004C4E09A
:101AF300FE9004C3E0FDED75F015A424DCF582E44B
:101B03003403F583E5822EF582E43583F583EFF024
:101B13009004C4E004F0021A859004C3E0FFEF755B
:101B2300F015A424F0F582E43403F583E0FFEF75A8
:101B3300F012A4243CF582E43402F583C083C0820E
:101B4300E0FF9004C6E0FEEE75F015A42436F8AE6F
:101B530000C3EF9EFFD082D083EFF09004C6E0FF76
:101B6300EF75F015A42436F8AF009004C6E0FEEE3E
:101B730075F015A4244AF8E6FEEE75F012A4243C91
:101B8300F582E43402F583E02FF02290FFFD120D7D
:101B9300A9EBF0A3EAF0A3E9F0852483852582E08D
:101BA300FBA3E0FAA3E0F9120B29FFEF3395E0FE64
:101BB30074D22FF58274323EF583E493FF90049040
:101BC300EFF0852483852582E0FBA3E0FAA3E0F907
:101BD300758201758300120B42FFEF3395E0FE74AB
:101BE300D22FF58274323EF583E493FF900491EF94
:101BF300F0852483852582E0FBA3E0FAA3E0F97551
:101C03008202758300120B42FFEF3395E0FE74D21C
:101C13002FF58274323EF583E493FF900492EFF044
:101C2300852483852582E0FBA3E0FAA3E0F975828E
:101C330003758300120B42FFEF3395E0FE74D22F3E
:101C4300F58274323EF583E493FF900493EFF085BD
:101C53002483852582E0FBA3E0FAA3E0F9758204DF
:101C6300758300120B42FFEF3395E0FE74D22FF51C
:101C73008274323EF583E493FF900494EFF085245D
:101C830083852582E0FBA3E0FAA3E0F9758205755D
:101C93008300120B42FFEF3395E0FE74D22FF582DF
:101CA30074323EF583E493FF900495EFF08524832B
:101CB300852582E0FBA3E0FAA3E0F975820675832C
:101CC30000120B42FFEF3395E0FE74D22FF58274BE
:101CD300323EF583E493FF900496EFF085248385E9
:101CE3002582E0FBA3E0FAA3E0F975820775830080
:101CF300120B42FFEF3395E0FE74D22FF58274325C
:101D03003EF583E493FF900497EFF0900003120DE8
:101D1300A9229004E1EFF09004E1E0FF7401A80729
:101D2300088002C333D8FCFF90043FE0FEEF5EFF60
:101D3300EF7003021E469004E1E0FFEF25E025E08B
:101D4300241BF582E43404F583E0FCA3E0FDA3E067
:101D5300FEA3E0FF90043BE0F8A3E0F9A3E0FAA3BD
:101D6300E0FBEF5BFFEE5AFEED59FDEC58FCEC4D4A
:101D73004E4F604690043BE0FCA3E0FDA3E0FEA3CE
:101D8300E0FF9004E1E0FBEB25E025E0241BF58276
:101D9300E43404F583120D3A90043FE0FF9004E12C
:101DA300E0FE7401A806088002C333D8FCFEEEF4FB
:101DB300FEEF5EFF90043FEFF0229004E1E0FFEFBF
:101DC30025E025E0241BF582E43404F583E0FCA33D
:101DD300E0FDA3E0FEA3E0FFEF5400FFEE5420FE7E
:101DE300ED5400FDEC5400FCEC4D4E4F6055900457
:101DF300E1E0FFEF25E024BBF582E43402F583E064
:101E0300FEA3E0FFEF4E703B9004E1E0FFEF25E01F
:101E130025E0241BF582E43404F583120D4600000B
:101E2300200090043FE0FF9004E1E0FE7401A80667
:101E3300088002C333D8FCFEEEF4FEEF5EFF90048D
:101E43003FEFF0229004D1EFF09004D2EDF053C9AC
:101E5300EF53CAEFD296C2CCD295C2959004D1E08B
:101E6300FFEF30E003D38001C392CCD295C29590AB
:101E730004D1E0FFEF30E103D38001C392CCD295CC
:101E8300C2959004D1E0FFEF30E203D38001C39207
:101E9300CCD295C2959004D1E0FFEF30E303D38019
:101EA30001C392CCD295C2959004D1E0FFEF30E408
:101EB30003D38001C392CCD295C2959004D1E0FFA5
:101EC300EF30E503D38001C392CCD295C295D2CC37
:101ED300D295C2959004D2E0FFEF30E003D38001A6
:101EE300C392CCD295C2959004D2E0FFEF30E103C8
:101EF300D38001C392CCD295C2959004D2E0FFEF78
:101F030030E203D38001C392CCD295C2959004D220
:101F1300E0FFEF30E303D38001C392CCD295C295A7
:101F23009004D2E0FFEF30E403D38001C392CCD21C
:101F330095C2959004D2E0FFEF30E503D38001C34F
:101F430092CCD295C2959004D2E0FFEF30E603D352
:101F53008001C392CCD295C2959004D2E0FFEF30BA
:101F6300E703D38001C392CCD295C295C295C2CC6C
:101F7300C296229004E7EFF09004E7E0FFEF6401DC
:101F8300600302200990044BE0FFEF700890044BBC
:101F93007406F0800690044BE014F090044FE0FFC9
:101FA30074402FF582E43404F583E0FFEFFD7C00F9
:101FB30090044BE0FF74017E00A807088005C3333B
:101FC300CE33CED8F9FFEE5CFCEF5DFD90044BE021
:101FD300FF74017E00A807088005C333CE33CED833
:101FE300F9FFEF6D7002EE6C600302209F90044BCB
:101FF300E0FFEF700890044B7406F0809E90044B52
:10200300E014F08096229004E7E0FFEF60030220E3
:102013009F90044BE0FF7E00EF2401FFEE3400FEAF
:102023007C007D07120B6FAF0590044BEFF090041B
:102033004FE0FF74402FF582E43404F583E0FFEFB3
:10204300FD7C0090044BE0FF74017E00A80708802C
:1020530005C333CE33CED8F9FFEE5CFCEF5DFD90C4
:10206300044BE0FF74017E00A807088005C333CE4C
:1020730033CED8F9FFEFB50523EEB5041F90044B1B
:10208300E0FF7E00EF2401FFEE3400FE7C007D07BD
:10209300120B6FAF0590044BEFF08092229004D7A0
:1020A300EFF09004D7E0FF746F2FF582E43404F56A
:1020B30083E0FFEF70139004D7E0FF745F2FF58286
:1020C300E43404F583E004F0229004D7E0FF74675E
:1020D3002FF582E43404F583E0FFEF25E0FF90045D
:1020E300D7E0FE74672EF582E43404F583E0FEEE58
:1020F300C41313135401FEEE2FFF9004D8EFF09096
:1021030004D7E0FF746F2FF582E43404F583E0FF16
:102113009004D8E0FEEE5FFFEF70209004D8E0FF5C
:10212300EF25E0FF9004D8E0FEEEC413131354012F
:10213300FEEE2FFF9004D8EFF080C49004D7E0FFA9
:10214300746F2FF582E43404F583C083C082E0FF0B
:102153009004D8E0FEEEF4FEEF5EFFD082D083EF72
:10216300F090045EE0FF9004D8E0FEEEF4FEEF5E34
:10217300FF90045EEFF09004D8E0FF9004D7E0FEF8
:1021830074672EF582E43404F583EFF02290048E15
:10219300E0FFEF120D8321B80021CE0121E40221DB
:1021A300FA03221004222605223C06225207226843
:1021B3000800002277900490E0FF8F80C2A0C2A1A4
:1021C300C2A2C2A390048EE004F022900491E0FF27
:1021D3008F80D2A0C2A1C2A2C2A390048EE004F059
:1021E30022900492E0FF8F80C2A0D2A1C2A2C2A318
:1021F30090048EE004F022900493E0FF8F80D2A03D
:10220300D2A1C2A2C2A390048EE004F0229004944F
:10221300E0FF8F80C2A0C2A1D2A2C2A390048EE02D
:1022230004F022900495E0FF8F80D2A0C2A1D2A235
:10223300C2A390048EE004F022900496E0FF8F8006
:10224300C2A0D2A1D2A2C2A390048EE004F0229035
:102253000497E0FF8F80D2A0D2A1D2A2C2A39004A0
:102263008EE004F02290048FE0FF8F80D2A39004CD
:102273008EE4F02290048EE4F0227B007A0079272A
:10228300AF018F817B017A027920AE02AF01123256
:10229300C3784A7600785F76017874760278897617
:1022A30003789E76049003F07405F0900405740699
:1022B300F090041A7407F05393004394FF5395F07E
:1022C30043960FD2A375800012000E7F807E257D7A
:1022D300007C00122B4F7F807E257D007C00122A1C
:1022E300517B017A04794C9004BD7402F07F08128B
:1022F30031E37BFF7A007946AE02AF01C006C00727
:1023030090049C120D4600000000D007D0067D000B
:102313007C00120DDA7BFF7A1479BEAE02AF01C0E6
:1023230006C00790049C120D4600000000D007D0A1
:10233300067D017C00120DDA53D8FB75DC01C2BFA8
:10234300C28C5389F0538E7F758A67758CFCD2AF2C
:10235300D2A9C2B9D28C80FE229004D9EFF09004A6
:10236300DAEDF09004DAE0FFEF60139004DAE0FFB7
:10237300EF640160099004DAE0FFEFB405219004F3
:10238300D9E0FF74402FF582E43404F583E0FFEFD6
:102393005463FFEFB463047F0180027F0022229025
:1023A30004DAE0FFEF640260139004DAE0FFEF6405
:1023B3000360099004DAE0FFEFB404219004D9E04C
:1023C300FF74402FF582E43404F583E0FFEF545C9F
:1023D300FFEFB45C047F0180027F0022229004DAC5
:1023E300E0FFEF640670439004D9E0FF74402FF5DB
:1023F30082E43404F583E0FFEF545CFFEFB45C0444
:102403007F0180027F009004D9E0FE74402EF582A4
:10241300E43404F583E0FEEE5463FEEEB463047E1D
:102423000180027E00EE2FFF22227F00224404C798
:10243300F2E0062C4104DC0041048DFF41047800E6
:10244300410477004103D70041030D004102CB0053
:1024530041034E00480490000000000000000041CA
:10246300048F0041048E0041045E0044043B0000DD
:10247300000041043F006020041B00000000000036
:102483000000000000000000000000000000000049
:102493000000000000000000000041022A0801269D
:1024A3000041022000410229035002BB000000004A
:1024B300000000000000000000000000041B0000FA
:1024C300000001080042044CAA5541044A0141049A
:1024D3004800480440000000000000000041045C84
:1024E3000041044B0041044F004104500041044E9D
:1024F300004104490041045D000090FFFF120DA953
:10250300EBF090FFFF120DA9EDF090FFFF120DA964
:10251300EFF0852483852582E0FFEF9032D293FF8D
:10252300900490EFF0852483852582A3E0FFEF904C
:1025330032D293FF900491EFF0852483852582A303
:10254300A3E0FFEF9032D293FF900492EFF090005C
:1025530003120DCDE0FFEF9032D293FF900493EF7F
:10256300F0900004120DCDE0FFEF9032D293FF9074
:102573000494EFF0900005120DCDE0FFEF9032D2FE
:1025830093FF900495EFF0900006120DCDE0FFEF5E
:102593009032D293FF900496EFF0900007120DCD86
:1025A300E0FFEF9032D293FF900497EFF090000892
:1025B300120DA9229004B4EBF0A3EAF0A3E9F09082
:1025C30004B7EDF0D2B753AFFE9004B7E0FFEF606E
:1025D300419004B8E4F09004B7E0FF9004B8E0FE43
:1025E300EEC39F5079539AFD9004B4E0FBA3E0FA45
:1025F300A3E0F99004B8E0FF8F82758300120B42C9
:10260300FF8F9BE59A30E1FB9004B8E004F080C6AD
:10261300804C9004B8E4F0539AFD9004B4E0FBA31B
:10262300E0FAA3E0F99004B8E0FF8F82758300120B
:102633000B42FFEF60289004B4E0FBA3E0FAA3E0B1
:10264300F99004B8E0FF8F82758300120B42FF8F6D
:102653009BE59A30E1FB9004B8E004F080B9C2B77F
:10266300539AFE539AFD43AF012278FFE4F6D8FD57
:102673009000007F007E07E4F0A3DFFCDEFA752400
:102683000075250075819E0226C802227DE493A36E
:10269300F8E493A34003F68001F208DFF48029E411
:1026A30093A3F85407240CC8C333C4540F4420C85D
:1026B300834004F456800146F6DFE4800B010204F4
:1026C3000810204080902430E47E019360BCA3FF77
:1026D300543F30E509541FFEE493A360010ECF5429
:1026E300C025E060A840B8E493A3FAE493A3F8E418
:1026F30093A3C8C582C8CAC583CAF0A3C8C582C884
:10270300CAC583CADFE9DEE780BE9004E6EFF09036
:1027130004E6E0FFEF6401703B90044FE0FFEF0439
:10272300FFEF5407FF90044FEFF090044FE0FF7466
:10273300402FF582E43404F583E0FFEF647F705F9C
:1027430090044FE0FFEF04FFEF5407FF90044FEFB7
:10275300F080D7229004E6E0FFEF704390044FE04F
:10276300FFEF700890044F7407F0800690044FE069
:1027730014F090044FE0FF74402FF582E43404F525
:1027830083E0FFEFB47F1890044FE0FFEF700890F1
:10279300044F7407F080DB90044FE014F080D322E1
:1027A300C0E0C0F0C083C082C0D075D000C000C0FC
:1027B30001C002C003C004C005C006C00753AFFE7A
:1027C300900356E4F0539AFE900356E0FF04F0742E
:1027D300572FF582E43403F583E59BF09003D81279
:1027E3000D46000001F4E59A20E0DA9003D874FF67
:1027F300120D077B007A0079007800C3120CE17098
:10280300E5800480E180BE539AFE539AFD43AF01F5
:102813009003D77401F0D007D006D005D004D003BD
:10282300D002D001D000D0D0D082D083D0F0D0E07D
:1028330032C0E0C0F0C083C082C0D075D000C000F9
:10284300C001C002C003C004C005C006C007C2ACBB
:102853009002CCE4F0C2989002CCE0FF04F074CD77
:102863002FF582E43402F583E599F0900352120DBB
:1028730046000001F42098DD90035274FF120D0707
:102883007B007A0079007800C3120CE170E78004C2
:1028930080E380C1C299C298D2AC90034E7401F018
:1028A300D007D006D005D004D003D002D001D00089
:1028B300D0D0D082D083D0F0D0E03290FFFF120D81
:1028C300A9EBF090FFFF120DA9EDF090FFFF120DA1
:1028D300A9EFF0852483852582E0FF900490EFF033
:1028E300852483852582A3E0FF900491EFF085245E
:1028F30083852582A3A3E0FF900492EFF090000369
:10290300120DCDE0FF900493EFF0900004120DCD73
:10291300E0FF900494EFF0900005120DCDE0FF90DE
:102923000495EFF0900006120DCDE0FF900496EFB2
:10293300F0900007120DCDE0FF900497EFF09000A8
:1029430008120DA92290022AE0FFEFC39408500356
:10295300123049122D1390022AEFF090022AE0FF61
:10296300EF6409603190022AE0FF74212FF582E4BD
:102973003402F583E0FF900229EFF090022AE0FF92
:102983001231A5EFB4FF0B90022AE0FF1230D912E7
:102993001A07123091227BFF7A007907AE02AF014A
:1029A300E4FCFDEF5400FFEE5400FEED54FFFDEC9C
:1029B30054FFFC7810120CF28F187BFF7A00790712
:1029C300AF01EF54FFF5199002297401F0227F0043
:1029D3001212D19004DBEFF09004DBE0FFE4FCFD86
:1029E300FE9004C7120D3A7F011212D19004DBEF5F
:1029F300F09004C7E0F8A3E0F9A3E0FAA3E0FB90AA
:102A030004DBE0FFE4FCFDFEEB2FFFEA3EFEE93DC5
:102A1300FDE83CFC9004C7120D3A7F021212D190DC
:102A230004DBEFF09004C7E0F8A3E0F9A3E0FAA316
:102A3300E0FB9004DBE0FFE4FCFDFEEB2FFFEA3E4E
:102A4300FEE93DFDE83CFC9004C7120D3A229004D8
:102A5300A8120D3A53B33F43B4C053B17F43B2807E
:102A630043B34053B4BF9004A8E0F8A3E0F9A3E054
:102A7300FAA3E0FB7F007E307D2A7C00120C4FC35B
:102A8300E49FFFE49EFE9004ACEEF0A3EFF0538EC0
:102A9300EF538EF7438E0453AFFB9004ACE0FEA3D9
:102AA300E0FFEEFF7E008FD69004ACE0FEA3E0FFD4
:102AB3008FD7438E1043B501539A7F439A10E5BADB
:102AC30054FEFFEF4401F5BAC2B743AF01229004AD
:102AD300E0EFF09004E0E0FF745F2FF582E434044C
:102AE300F583E0FFEF60159004E0E0FF745F2FF5DE
:102AF30082E43404F583E014F07F01229004E0E0E3
:102B0300FF746F2FF582E43404F583C083C082E041
:102B1300FF90022AE0FE7401A806088002C333D89E
:102B2300FCFEEF4EFFD082D083EFF090045EE0FF17
:102B330090022AE0FE7401A806088002C333D8FC81
:102B4300FEEF4EFF90045EEFF07F00229004AE1282
:102B53000D3A53B1FD43B20243B10153B2FE9004A7
:102B6300AEE0F8A3E0F9A3E0FAA3E0FB7F007E3038
:102B73007D2A7C00120C4FC3E49FFFE49EFE900469
:102B8300B2EEF0A3EFF0438E01538EEF538EF74373
:102B93008E0453AFFB9004B2E0FEA3E0FFEEFF7E92
:102BA300008FD69004B2E0FEA3E0FF8FD7438E10D0
:102BB300D2BCE598543FFFEF4440F598D29C53A212
:102BC3003FD2AC228B1F8A2089218D22C2ACE52201
:102BD3006028752300E523C395225051C299AB1F8A
:102BE300AA20A921AF238F82758300120B42FF8F86
:102BF300993099FD052380DD8033752300C299AB9D
:102C03001FAA20A921AF238F82758300120B42FFD5
:102C1300EF601AAB1FAA20A921AF238F827583000F
:102C2300120B42FF8F993099FD052380D0C298C2C1
:102C330099D2AC229004E3EFF09004E3E0FF740137
:102C4300A807088002C333D8FCFF900220E0FEEF00
:102C53005EFFEFD394004003D38001C340037F00A2
:102C6300229004E3E0FF7401A807088002C333D86D
:102C7300FCFF90045EE0FEEF5EFFEF60037F002247
:102C83009004E3E0FF7401A807088002C333D8FC73
:102C9300FF90043FE0FEEF5EFFEF60037F00227FC3
:102CA30001220508C5267065C52685830985820A24
:102CB300F50B85F00C85D00D880E890F8A108B11CA
:102CC3008C128D138E148F15852416852517D01815
:102CD300D01985811A758127752400752547122E11
:102CE300FF851A81C019C018850983850A82E50BFF
:102CF300850CF0850DD0A80EA90FAA10AB11AC124C
:102D0300AD13AE14AF1585162485172532C52632AB
:102D130090022AE0FFEFC39408400590022AE4F0F2
:102D230090022AE0FF9004E2EFF09004E2E0FFEF6C
:102D330004FFEF5407FF9004E2EFF0FF90022AE054
:102D4300FEEF6E600F9004E2E0FF122C37EF60DAC3
:102D5300801F80D690022AE0FF122C37EF600C9080
:102D6300022AE0FF9004E2EFF080069004E2740987
:102D7300F09004E2E0FF229003D7E0FFEF60299098
:102D830003D7E4F090043BE0FCA3E0FDA3E0FEA343
:102D9300E0FFEF4400FFEE4410FEED4400FDEC4481
:102DA30000FC90043B120D3A90034EE0FFEF6029C4
:102DB30090034EE4F090043BE0FCA3E0FDA3E0FEAF
:102DC300A3E0FFEF4400FFEE4408FEED4400FDECFA
:102DD3004400FC90043B120D3A2285830985820A44
:102DE300F50B85F00C85D00D880E890F8A108B1199
:102DF3008C128D138E148F15852416852517D018E4
:102E0300D01985811A75812775240075254712000D
:102E130026851A81C019C018850983850A82E50BA6
:102E2300850CF0850DD0A80EA90FAA10AB11AC121A
:102E3300AD13AE14AF15851624851725329004A063
:102E4300EFF09004A1EDF09004A2EBF09004A0E069
:102E5300FF900451EFF09004A1E0FF900452EFF0D3
:102E63009004A2E0FF900453EFF09004A3E0FF90DE
:102E73000454EFF09004A4E0FF900455EFF09004A5
:102E8300A5E0FF900456EFF09004A6E0FF900457EE
:102E9300EFF09004A7E0FF900458EFF0229004DED7
:102EA300E4F09002CBE0FFEF3395E0FE9004DEE028
:102EB300FD7C00C3ED9FEE6480F8EC64809850398C
:102EC30090034FE0FBA3E0FAA3E0F99004DEE0FFF8
:102ED3008F82758300120B42FF9004DEE0FE74CDF7
:102EE3002EF582E43402F583E0FEEE6F60037F008B
:102EF300229004DEE004F080A97F0122AF08E4FC05
:102F0300FDFEE51E2FF51EE51D3EF51DE51C3DF5F9
:102F13001CE51B3CF51B900229E0FFEFC39508401D
:102F230011900229E0FFC3EF9508FF900229EFF00B
:102F33008005900229E4F012169175080012219081
:102F430012321EE5D820E20E900229E0FFEFD3945F
:102F5300005003122948229004DFE4F0122EA0EF60
:102F630060429004DFE4F09004DFE0FFEFC394409D
:102F7300502A9004DFE0FF74CD2FF582E43402F58C
:102F830083E0FF9004DFE0FE740E2EF582E4340349
:102F9300F583EFF09004DFE004F080CB7B017A034C
:102FA300790E22227B007A007900227F6D7E4E7D8E
:102FB300C67C419004C7E0F8A3E0F9A3E0FAA3E0DC
:102FC300FB120BC4EF2439FFEE3430FEED3400FD69
:102FD300EC3400FCEF54FFFFEE54FFFEED54FFFD15
:102FE300EC547FFC9004C7120D3A9004C7E0FCA395
:102FF300E0FDA3E0FEA3E0FF2290FFFF120DA9ED89
:10300300F090FFFF120DA9EFF0852483852582E060
:10301300FF74902FF582E43404F583C083C082E00B
:10302300FF852483852582A3E0FE7401A80608801A
:1030330002C333D8FCFEEF4EFFD082D083EFF09073
:103043000002120DA9229004E4E4F09004E4E0FFEE
:10305300EFC3941250379004E4E0FF74092FF8E6AD
:10306300FF9004E4E0FE90022AE0FDED75F012A467
:10307300242BF582E43402F583E5822EF582E435D0
:1030830083F583EFF09004E4E004F080BE22900423
:10309300E5E4F09004E5E0FFEFC3941250379004A9
:1030A300E5E0FF90022AE0FEEE75F012A4242BF572
:1030B30082E43402F583E5822FF582E43583F583D8
:1030C300E0FF9004E5E0FE74092EF8A6079004E5FE
:1030D300E004F080BE229004CDEFF09004CEE4F043
:1030E3009004CEE0FFEFC39403502C9004CEE0FF96
:1030F300EF75F015A424F0F582E43403F583E0FFC3
:103103009004CDE0FEEFB506069004CEE0FF2290DA
:1031130004CEE004F080C97FFF229004CFEFF07566
:10312300BD00E5BC54E0FFEF4408FF9004CFE0FE90
:10313300EF4EF5BC000000009004D0E4F09004D002
:10314300E0FFEFC394FA5013E5BC30E40653BCEF41
:10315300AFBD229004D0E004F080E27F002290040F
:10316300D5EFF09004D6EDF09004D5E0FF746F2F07
:10317300F582E43404F583E4F09004D5E0FF74674A
:103183002FF582E43404F5837401F09004D6E0FF54
:103193009004D5E0FE745F2EF582E43404F583EFEA
:1031A300F0229004CBEFF09004CCE4F09004CCE058
:1031B300FFEFC3940550269004CCE0FFEF75F015A4
:1031C300A4244AF8E6FF9004CBE0FEEFB506069090
:1031D30004CCE0FF229004CCE004F080CF7FFF22F8
:1031E3009004B9EFF09004BAEBF0A3EAF0A3E9F08E
:1031F3009004B9E0FF90030DEFF09004BAE0FBA355
:10320300E0FAA3E0F990034FEBF0A3EAF0A3E9F0AF
:103213009004BDE0FF9002CBEFF02290043B120D2F
:103223004600000000120855122D7A7F00121D156A
:103233007F01121D157F02121D157F03121D157FBD
:1032430004121D157F05121D157F06121D157F071C
:10325300121D15229004E8E4F09004E8E4F09004D1
:10326300E8E0FFEFC3940850219004E8E0FF7440C6
:103273002FF582E43404F583E0FFEF647F60037F7E
:1032830000229004E8E004F080D47F01229004DC63
:10329300E0FFEF701B759D9C43BC80E5BC549FFF12
:1032A300EF4460F5BC5397DFC2AD9004DC7401F0CA
:1032B3002210AF05AE24AF2522AE24AF25D2AF2214
:1032C30010AF058E248F25228E248F25D2AF223F67
:1032D300065B4F666D7D077F6F777C395E7971BFC3
:1032E30086DBCFE6EDFD87FFEF3D760F0E753837B2
:0F32F300545C73673149783E1C7E646E5A00FF4D
:00000001FF
