:102320003F065B4F666D7D077F6F777C395E797105
:10233000BF86DBCFE6EDFD87FFEF3D760F0E7538EC
:1023400037545C73673149783E1C7E646E5A00FFD7
:0423500000A8C00021
:0412F80002101029A7
:10251E0075372E75382E75392EE513C4540FF53ACE
:0F252E00E513540FF53B7B2E7D2E7F2E0224FEEE
:1024BE00E4FF122263BF0117751410751529E4F598
:0F24CE0016751801FB7A0079147D08FC1224960C
:0124DD0022DC
:101FEE00E4FF1221968F34E534B40119751410757F
:101FFE001529E4F516851317F518FB7A0079147D6B
:10200E0008FC1224967F051221968F34E534B40114
:10201E000205137F021221968F34E534B4010215A6
:10202E00137F031221968F34E534B40103E4F513C4
:10203E007F041221968F34E534B401177514107590
:10204E001529E4F516751802FB7A0079147D08FC43
:03205E00122496B3
:01206100225C
:0126CB0022EC
:101B3A001226B91225941224DE12253D12255A7F47
:101B4A00981223B91226321225AF12257775372E2D
:101B5A0075382E75392E753A2E753B2E7B2E7D2EB5
:101B6A007F2E1224FEE4FF1226AD7F807E257D00A3
:101B7A007C00121F77753900753A00753B10753C69
:101B8A0000753D027B007A0079087D087C001223EB
:101B9A00EA7BFF7A25791E7F02121E827BFF7A2456
:101BAA0079BE7F04121E827BFF7A2679CB7F0912C7
:101BBA001E827BFF7A1F79EE7F08121E821222E2B2
:021BCA0080FB9E
:092675008B88898C88898F888983
:1012FC0052007C868600868600868600868600865E
:09130C008600868600410070098C
:03002B000226A703
:0626A70053BCEFD20F321C
:020FCA001556BA
:100FCC00200F0302117AC20F90006FE0B4090040A9
:100FDC000302115C900FE7F82828730210310210FD
:100FEC000202101402104302100202101402105AD2
:100FFC00021002021014AFBDEFFEADBE7C00E42D5A
:10100C00FFEC3E900072803FAFBDEFFEADBE7C00AA
:10101C00E42DFFEC3E900074F0A3EFF0900071749F
:10102C0001F0021162AFBDEFFEADBE7C00E42DFFFE
:10103C00EC3E9000768010AFBDEFFEADBE7C00E4C0
:10104C002DFFEC3E900078F0A3EFF0021162AFBDE3
:10105C00EFFEADBE7C00E42DFFEC3E90007AF0A3D9
:10106C00EFF090007AE0FEA3E07807CEC313CE1326
:10107C00D8F9A856F6C394065013A856E675F00393
:10108C00A4247CF582E43400F583E014F090007025
:10109C00E014F060030211627409F0A856E4F6A89B
:1010AC0056E6FFC394064003021162EF75F003A4E9
:1010BC00247CF582E43400F583E0C39480502CE664
:1010CC00FF75F003A4247DF582E43400F583E0D3AE
:1010DC0094804044EF75F003A4247EF582E4340040
:1010EC00F5837401F090008EF0802DA856E6FF7504
:1010FC00F003A4247DF582E43400F583E0C39480EE
:10110C005016EF75F003A4247EF582E43400F583C9
:10111C007402F090008E14F0A856E6FF75F003A44C
:10112C00247CF582E43400F583E0FEEF75F003A433
:10113C00247DF582E43400F583EEF0E675F003A42B
:10114C00247CF582E43400F5837486F0060210AB3F
:10115C0090006F74FFF090006FE0D394074003741D
:0E116C00FFF090006FE004F090267593F5BC44
:03117A00055622F5
:0225D800155696
:0A25DA0090008EE0A856F6FFE4F032
:0325E40005562277
:0225E700155687
:0A25E900900071E0A856F6FFE4F040
:0325F30005562268
:1023B9008F9D75BC88439720D2AD90004674FFF07D
:1023C900A3740FF0A374CAF0A374FFF0A37425F0EB
:1023D900A374D8F0A374FFF0A37425F0A374E7F0F5
:0123E90022D1
:072699007B017A0079722237
:10219600C3EF64809480403BD3EF648094855033D2
:1021A600EFFD3395E0FC90007E75F003ED120FB85D
:1021B600EC75F003A42583F583E0FE90007E75F0B0
:1021C60003ED120FB8EC75F003A42583F583E4F054
:0521D600AF06227F03AB
:0121DB0022E1
:0424460015561556BC
:10244A00122687A856A60608A607A856E6FE08E694
:0F245A00FF4E600BEF24FFFFEE34FFFE122690C3
:05246900055605562296
:1024DE0053B1EF43B2101226C8E4F5D975DA49D2DA
:1024EE00DE90004074FFF0A37424F0A37446F02233
:081EFF008E3A8F3B8C3C8D3DB7
:101F0700122687EF4E7066AF3DAE3C122690C3E5B2
:101F17003B940AE53A9400404BE47B18FAF9F890B1
:101F27002350120F9C120EE3C006C007AE3AAF3B18
:101F3700AB07AA06E4F9F8D007D006120EE3AB0701
:101F4700AA06AFF9EFFEADE97C00E42DFFEC3ECF2A
:101F57002BCF3AAD07FCAF03AE021225C7D2D84349
:0F1F6700DA0180061226C853DAFE7F02227F03BA
:011F76002248
:0C265E00122687EF4E7002FF227F01223F
:101315005C009100070000000000000000000000D4
:101325000000000000000000000000000000004177
:07133500008F644100900AE3
:04117D001556155698
:1011810090008FE014F0D36480948050107464F068
:10119100A3E014F0648094805003740AF0E4F580B5
:1011A1009000ACE0FFB40800505F9011B2F828281D
:1011B100730211CA0211D00211D60211DC0211E22E
:1011C1000211EC0211F6021200C2A3C2A28016C2E1
:1011D100A3C2A2801AC2A3C2A2801EC2A3C2A280BD
:1011E10022C2A3D2A2C2A1C2A08020C2A3D2A2C203
:1011F100A1D2A08016C2A3D2A2D2A1C2A0800CC249
:10120100A3D2A2D2A1D2A08002D2A3C3EF648094C0
:101211008850479000ACE0FF3395E0FE749C2FF5B9
:101221008274003EF583E0FD900090E0FCD3ED6414
:1012310080F8EC648098402074932FF58274003E0E
:10124100F583E0FF3395E0FE74202FF58274233E91
:10125100F583E493F580806E80699000ACE0FF64D3
:10126100087060EF3395E0FE74932FF58274003EB1
:10127100F583E0A856F6A85608E4F6A85608E6FF56
:10128100C39408503774A42FF582E43400F583E049
:10129100FF900090E0FED3EF6480F8EE64809850F8
:1012A10015A85608E6FF7401A807088002C333D8C1
:1012B100FCF4A85656F6A856080680BFA856E6F5CF
:1012C100808003E4F580900092E0FF9000ACE004A0
:1012D100FEF0D3EF6480F8EE6480984015E0D364AB
:1012E10080948850057408F08008900091E0900087
:0212F100ACF05F
:0512F30005560556221E
:10259400E4F5937594FF5395F043960F90002B74D4
:0B25A400FFF0A37411F0A3747DF0227F
:09267E00900091EFF0A3EDF022B1
:1024FE00900093EFF0A3EDF0A3EBF0A3E537F0A37C
:10250E00E538F0A3E539F0A3E53AF0A3E53BF02278
:0626AD0090009BEFF022FB
:101BCC00EFF5823395E0F583E582F445836005906B
:101BDC00009CEFF0EDFF3395E0FEEFF44E600590C6
:101BEC00009DEDF0EBFF3395E0FEEFF44E600590B9
:101BFC00009EEBF0AF41EF3395E0FEEFF44E600644
:101C0C0090009FE541F0AF42EF3395E0FEEFF44ECC
:101C1C0060069000A0E542F0AF43EF3395E0FEEF95
:101C2C00F44E60069000A1E543F0AF44EF3395E02D
:101C3C00FEEFF44E60069000A2E544F0AF45EF33A2
:0F1C4C0095E0FEEFF44E60069000A3E545F02210
:101C5B00EFF5823395E0F583E582F44583600590DB
:101C6B0000ABEFF0EDFF3395E0FEEFF44E60059027
:101C7B0000AAEDF0EBFF3395E0FEEFF44E6005901C
:101C8B0000A9EBF0AF49EF3395E0FEEFF44E6006A1
:101C9B009000A8E549F0AF4AEF3395E0FEEFF44E24
:101CAB0060069000A7E54AF0AF4BEF3395E0FEEFEF
:101CBB00F44E60069000A6E54BF0AF4CEF3395E089
:101CCB00FEEFF44E60069000A5E54CF0AF4DEF3300
:0F1CDB0095E0FEEFF44E60069000A4E54DF02278
:10133C004100F600011E004100F3054100F4834119
:03134C0000F58326
:102220002092069000F4E014F09000F3E014F070B7
:10223000317405F0A3E0FFC39480500BA3E09480B9
:102240004015751E01800C9000F5E0C39480500786
:10225000751E02A37401F09000F5EFF09000F47485
:0222600083F009
:012262002259
:0225F600155678
:0A25F8009000F6E0A856F6FFE4F0AC
:0326020005562258
:10253D0090003774FFF0A37425F0A374F6F09000AB
:0D254D003474FFF0A37422F0A37420F02278
:0526B300AF1EE4F51E5E
:0126B80022FF
:10134F004100E9004900EA949400949400949400B9
:04135F004100E81E43
:02156C00155612
:10156E0020B2069000EAE014F020B3069000EDE001
:10157E0014F02097069000F0E014F09000E8E014CC
:10158E00F06003021690741EF0A856E4F6A856E614
:10159E00FFC3648094834003021690EF3395E0FE00
:1015AE009000EA75F003EF120FB8EE75F003A42564
:1015BE0083F583E0C39480503B9000EB75F003EF0E
:1015CE00120FB8EE75F003A42583F583E0D3948053
:1015DE00405EE6FF3395E0FE9000EC75F003EF12EF
:1015EE000FB8EE75F003A42583F5837401F0900017
:1015FE00E9F0803CA856E6FF3395E0FE9000EB75CF
:10160E00F003EF120FB8EE75F003A42583F583E017
:10161E00C39480501B9000EC75F003EF120FB8EEE0
:10162E0075F003A42583F5837402F09000E914F09D
:10163E00A856E6FFFD3395E0FC9000EA75F003ED49
:10164E00120FB8EC75F003A42583F583E0FE90002D
:10165E00EB75F003ED120FB8EC75F003A42583F5CE
:10166E0083EEF0EF3395E0FE9000EA75F003EF1293
:10167E000FB8EE75F003A42583F5837494F006027B
:02168E00159BAA
:03169000055622DA
:02260500155668
:0A2607009000E9E0A856F6FFE4F0A9
:0326110005562249
:10255A0090003174FFF0A37426F0A37405F0900084
:0D256A002E74FFF0A37415F0A3746CF02222
:10226300EF600764016003BF0233EFFD3395E0FCC9
:102273009000EC75F003ED120FB8EC75F003A42594
:1022830083F583E0FE9000EC75F003ED120FB8ECDC
:0F22930075F003A42583F583E4F0AF06227F03E3
:0122A2002219
:101363005500AE0000000000000000000000000077
:0C13730000000000000000004100AD0080
:020B0200155686
:100B0400A856E4F6A856E6FFC36480948340030223
:100B14000D73EF3395E0FE9000AE75F007EF120F02
:100B2400B8EE75F007A42583F583E0FCA3E04C70D0
:100B340003020D6D9000B075F007EF120FB8EE755B
:100B4400F007A42583F583E0FEA3E04E7003020DB5
:100B54006DE6FFFD3395E0FC9000B275F007ED12F1
:100B64000FB8EC75F007A42583F58374FFF5F01234
:100B74000E2C45F06003020D6D9000B075F007ED8A
:100B8400120FB8EC75F007A42583F583E0FAA3E00F
:100B9400FB9000B275F007ED120FB8EC75F007A4E6
:100BA4002583F583EAF0A3EBF0EF3395E0FE9000A4
:100BB400AE75F007EF120FB8EE75F007A42583F5B4
:100BC40083E0FCA3E0D39400EC648094804056A8B6
:100BD40056E6FD3395E0FC9000AE75F007ED120F7C
:100BE400B8EC75F007A42583F58374FFF5F0120EB5
:100BF4002C9000B475F007ED120FB8EC75F007A453
:100C04002583F583E004F0D36480948340729000DC
:100C1400B475F007EF120FB8EE75F007A42583F54D
:100C240083E4F0805BA856E6FFFD3395E0FC90007A
:100C3400AE75F007ED120FB8EC75F007A42583F537
:100C440083E475F001120E2C9000B475F007ED12D8
:100C54000FB8EC75F007A42583F583E014F0C364A2
:100C6400809480501BEF3395E0FE9000B475F0073C
:100C7400EF120FB8EE75F007A42583F5837403F023
:100C8400A856E6FFFD3395E0FC9000B475F007ED3F
:100C9400120FB8EC75F007A42583F583E014603CCB
:100CA400146066147003020D3A24036003020D6598
:100CB400EF14601014601924026003020D65D2C1A0
:100CC400C2C280299000ADE054F04401F0020D65E9
:100CD4009000ADE0540F4410F0020D65A856E614E0
:100CE400601114601924027078C2C1D2C2C2C3C296
:100CF400C4806E9000ADE054F04402F08063900034
:100D0400ADE0540F4420F08058A856E61460111446
:100D140060192402704BC2C1C2C2D2C3C2C4804192
:100D24009000ADE054F04404F080369000ADE054FF
:100D34000F4440F0802BA856E61460111460192467
:100D440002701EC2C1C2C2C2C3D2C480149000AD1C
:100D5400E054F04408F080099000ADE0540F448062
:0F0D6400F09000ADE0FF1226ADA85606020B0876
:030D730005562200
:1025AF0053B3E143B41E53C0E190005574FFF0A341
:0825BF00740BF0A37402F0227A
:1018AA008F1FEF3395E0FE9000AE75F007EF120F31
:1018BA00B8EE75F007A42583F583E0FEA3E04E6039
:1018CA0003021952E51F600A64016006E51F6402FB
:1018DA007076ED60737C007E037FE8120DD7AD1F32
:1018EA00ED3395E0FC9000B075F007ED120FB8ECFF
:1018FA0075F007A42583F583EEF0A3EFF09000B00E
:10190A0075F007ED120FB8EC75F007A42583F5837F
:10191A00E0FEA3E0FF9000B275F007ED120FB8ECFD
:10192A0075F007A42583F583EEF0A3EFF09000AEDF
:10193A0075F007ED120FB8EC75F007A42583F5834F
:0B194A00EAF0A3EBF07F02227F0322F3
:10210700EF600764016003BF023AEFFD3395E0FC1F
:102117009000AE75F007ED120FB8EC75F007A42527
:1021270083F583E0FAA3E0FB9000AE75F007ED12AC
:102137000FB8EC75F007A42583F583E4F0A3F0AEA0
:0721470002AF0322E4FEFFDA
:01214E00226E
:10238700EF600764016003BF0225EF3395E0FE901D
:1023970000AE75F007EF120FB8EE75F007A42583AE
:1023A700F583E0FEA3E04E60037F01227F00227FDA
:0223B7000322FF
:10235400EF24FE601314601914601F24037023ED2E
:102364006003D2C122C2C122ED6003D2C222C2C222
:1023740022ED6003D2C322C2C322ED6003D2C42281
:03238400C2C422AE
:10137F004100000A41002A0A41006E0A04290000B8
:10138F000000012E004600680000FFFF8FFFC10D17
:10139F00C105C108C101C10E60240005FF26CCFFA5
:1013AF0026CCFF26CCFF26CCFF26CCFF26CCFF2653
:1013BF00CCFF26CCFF26CCFF26CCFF26CCFF26CC9D
:1013CF006036002BFF26CCFF26CCFF26C5FF26CC90
:1013DF00FF26C5FF26CCFF26C5FF26CCFF26CCFF58
:1013EF0026CCFF26C5FF26C5FF26C5FF26C5FF262F
:0A13FF00CCFF26CCFF26CCFF26CC45
:0126CC0022EB
:0326C5007F002271
:10214F00438E805389F07BE07A28790178009023C1
:10215F0050120F9C1221DCEFF404F58A7BE07A28F1
:10216F0079017800902350120F9C1221DCC3E49F59
:10217F00FFE49EFE74019DFDE49CFC7808120F881D
:07218F008F8CD28CD2A92233
:03000B000220B51B
:0420B500C0E0C0D0F7
:1020B900D5230A75234C300D02052ED20DA20372C9
:1020C9000450361525E5257030852725D207300AB5
:1020D90017E52860071528438F01801D538FFEC21D
:1020E900B5D53015C20A80110526E526D3940640D8
:0920F90008C203E52D6002D206C5
:05210200D0D0D0E03256
:10206200300E47C20E902350120F9C7810120F8828
:102072008E1C8F1D900003E0FEA3E0FFE4FCFD7BBD
:1020820019FAF9F8120E58C006C007AE1CAF1DAB04
:1020920007AA06E4F9F8D007D0061221DC78031269
:1020A2000F88900066EEF0A3EFF0900066E0FEA3CA
:0220B200E0FF4D
:0120B4002209
:09268700900068E0FEA3E0FF22D0
:09269000900068EEF0A3EFF022C7
:1025C70090006CEEF0A3EFF090006AECF0A3EDF052
:0125D70022E1
:0326C800C2B42277
:03003B000219FFA8
:1019FF00C0E0C083C082C0D075D000C004C005C095
:031A0F0006C00707
:101A120030DF04C2DF807D30DA04C2DA807630D96A
:101A22003DC2D9AFFBEFFEADEB7C00E42DFFEC3EF7
:101A320020000E900001F0A3EFF075DB11D20080C0
:101A420053FE900001E0FCA3E0FDC3EF9DFFEE9C7E
:101A5200A3F0A3EFF075DB00C200D20E803630D8BF
:101A620033C2D8900068E07002A3E06022B2B49062
:101A7200006AE0FEA3E0F5EAEEF5FAA3E0FEA3E0D9
:101A8200FF90006BE02FF090006AE03EF08005C20C
:041A9200B453DAFE71
:101A9600D007D006D005D004D0D0D082D083D0E0F5
:011AA600320D
:0626B90012214FD2AF22F6
:101D76003004047F0180027F00200A047E01800275
:101D86007E00EE5F6074E52FC395245068300236FE
:101D9600752801E52F131313541FAB31AA32A9334B
:101DA600F582758300120D76FFE52F540704FEEFCA
:101DB600A806088002C333D8FC30D70575300380E7
:101DC6002F753001802AAB31AA32A93375F002E5AE
:101DD6002FA4F58285F083120D76F528E52F75F090
:101DE60002A429F9EA35F0FA900001120D76F530D1
:0A1DF600052FD20A22C204438F1009
:011E000022BF
:1017B900900000E014F0701F740AF0D20590002A1E
:1017C900E014F07012740AF0D20890006EE014F080
:1017D9007005740AF0D20190002BA3E0FAA3E0F996
:1017E900120FC490002EA3E0FAA3E0F9120FC490DF
:1017F900003AA3E0FAA3E0F9120FC4900046A3E06F
:10180900FAA3E0F9120FC4900055A3E0FAA3E0F996
:10181900120FC490005EA3E0FAA3E0F9120FC4907E
:10182900004CA3E0FAA3E0F9120FC4EF600C90009A
:101839001DA3E0FAA3E0F9120FC490004FA3E0FA48
:10184900A3E0F9120FC4EF600E900020A3E0FAA301
:10185900E0F9120FC4D20B900029E0D3940040188C
:10186900E014F0703030090C900023A3E0FAA3E0F3
:10187900F9120FC4D20C801D900052A3E0FAA3E024
:10188900F9120FC4EF600E900023A3E0FAA3E0F968
:10189900120FC4D20C900005A3E0FAA3E0F9020FDD
:0118A900C47A
:101AA700900040A3E0FAA3E0F9120FC4900043A30B
:101AB700E0FAA3E0F9120FC4900034A3E0FAA3E020
:101AC700F9120FC4900008A3E0FAA3E0F9120FC4BB
:101AD700900031A3E0FAA3E0F9120FC4EF600C9075
:101AE7000011A3E0FAA3E0F9120FC4900037A3E0B6
:101AF700FAA3E0F9120FC4EF600C900017A3E0FA05
:101B0700A3E0F9120FC4900049A3E0FAA3E0F91289
:101B17000FC4EF600C90001AA3E0FAA3E0F9120FCC
:101B2700C430060EC206900026A3E0FAA3E0F9121D
:031B37000FC422B6
:1022A30090000BA3E0FAA3E0F9120FC490003DA342
:1022B300E0FAA3E0F9120FC4EF600C900014A3E05E
:1022C300FAA3E0F9120FC4900058A3E0FAA3E0F9CF
:0F22D300120FC490005BA3E0FAA3E0F9020FC45E
:10241B00AF2CAE2BAD2AAC29900061120FAC900003
:10242B0065E52EF0E4F52CF52BF52AF529F52E9024
:0B243B00000EA3E0FAA3E0F9020FC4BA
:1022E200300705C207121D76300D05C20D1217B94F
:1022F200300505C205121AA7300805C2081222A32A
:10230200300105C20112241BE52C2401F52CE43511
:0E2312002BF52BE4352AF52AE43529F529228E
:101E82008B348A358936EFB40C005070901E95F869
:101E9200282873021EB9021EBE021EC3021EC802F9
:101EA2001ECD021ED2021ED7021EDC021EE1021E3F
:101EB200E6021EEB021EF0900005803590000880BD
:101EC2003090000B802B90000E8026900011802114
:101ED200900017801C900014801790001A801290B6
:101EE200001D800D90002080089000238003900048
:0D1EF20026E534F0A3E535F0A3E536F02237
:0726A0007B017A0079612241
:081409004100F8004100F7006A
:0E26500020A40A9000F87401F09000F7F02228
:02261400155659
:0A2616009000F8E0A856F6FFE4F08B
:032620000556223A
:1025770090003D74FFF0A37426F0A37414F090004C
:0D2587003A74FFF0A37426F0A37450F02204
:0226230015564A
:0A2625009000F7E0A856F6FFE4F07D
:03262F000556222B
:1016930000C400DC00F701060126014A017201883B
:1016A30001B801EE020B024B029302E40310037034
:1016B30003DC04160497052605C800DC00F70115B2
:1016C3000126014A0172019F01B801EE022A024B71
:1016D300029302E4033F037003DC045504970526D9
:1016E30005C8067D00F701150137014A0172019F04
:1016F30001D201EE022A026E029302E4033F03A425
:1017030003DC045504DD057505C8067D074901069C
:101713000126014A015D018801B801EE020B024B6B
:10172300029302BA0310037003DC04160497052620
:101733000575062006E007B80126014A01720188F3
:1017430001B801EE022A024B029302E40310037074
:1017530003DC04550497052605C8062006E007B8F0
:1017630008AA014A0172019F01B801EE022A026E22
:10177300029302E4033F037003DC045504DD0526F2
:1017830005C8067D06E007B808AA09B9015D018806
:1017930001B801D2020B024B029302BA0310037089
:1017A30003A40416049705260575062006E00749D9
:0617B300082D092D0A4D6E
:101411004D00DB03000000000000000000000000A0
:061955008F348D358B3646
:10195B0012265EEF60037F0122E536D3940040062A
:10196B00E53694114028E536D394174006E53694B6
:10197B0021401BE536D394274006E5369431400EC3
:10198B00E536D394375007E534C394F950037F03FE
:10199B0022E536603DC4540F75F007A4FDACF0E5AD
:1019AB003475F015A42DFFE5F03CFEE53654077CAD
:1019BB00002FFFEC3EFEEF25E0FFEE33FE74A92F68
:1019CB00F58274ED3EF583E493F538740193F539A4
:1019DB008005E4F538F539AF377E007C017D771251
:1019EB000DC5AD351C120DD7AD07AC06AF39AE38F2
:0319FB00121EFFBA
:0119FE0022C6
:04080000155615561E
:1008040012265EEF70047F0180027F009000DBE01F
:10081400FEB402047D0180027D00ED5F6003020AE4
:10082400FDEEB40316E49000D9F0A3F09000E4F0D8
:10083400A3F0A3F0A3F0C210020AFD9000DCE0FFD5
:10084400B4F3047E0180027E00EFB4F1047F0180E2
:10085400027F00EF4E603E9000DEE0FE75F064849F
:10086400FFEE75F00A8475F00A84ADF0E075F00AC5
:1008740084ABF075370A9000DDE02407F53890006A
:10088400D8E0FEC4540F240AF539753A0AEE540729
:10089400F53B1224FE9000DCE0FFB4F3047E0180FB
:1008A400027E00EFB4F2047F0180027F00EF4E70FD
:1008B400030209569000DEE0FD7C007E177F701273
:1008C4000DD7A856A607E6F975F002A4FFC3900059
:1008D400E7E09F9000E6E095F05070E0FEA3E0FFB3
:1008E4007C007D0B120DC5E9FBFD120DD7A856083F
:1008F400A6079000E6E475F001120E42FED3E5F07F
:100904009BEE94004018A85608E624F9FFE47EF014
:10091400A807088005CEC313CE13D8F9801FA856A4
:1009240008E6FF740F7E00A807088005C333CE33A2
:10093400CED8F97804CEA2E713CE13D8F8A8560877
:10094400F6A85608E6FF1226AD8007E49000E6F00C
:10095400A3F09000E2E0FEA3E0FFC39000E5E09F77
:100964009000E4E09E4003020AF712265EEF600363
:10097400020AFD9000DFE0FBA3E0FAA3E0F9900097
:10098400E4E0FEA3E0F5828E83120D76FFD3943764
:100994005003020A92EF241024FC5079604524FE8F
:1009A4007003020A3D147003020A53240260030216
:1009B4000A819000DFE0FBA3E0FAA3E0F99000E4F1
:1009C400E475F001120E2C85F082F583120D7690F9
:1009D40000DDF09000E5E004F070989000E4E0049D
:1009E400F080909000DFE0FBA3E0FAA3E0F9900030
:1009F400E4E475F001120E2C85F082F583120D7675
:100A04009000DEF09000E5E004F0706E9000E4E009
:100A140004F00209779000DFE0FBA3E0FAA3E0F919
:100A24009000E4E475F001120E4285F082F5831221
:100A34000D769000DCF00209779000E4E475F00193
:100A4400120E2CAFF09000D9F0A3EFF002097790CA
:100A540000D9E0FEA3E0FF4E60129000E4EEF0A3A4
:100A6400EFF0E49000D9F0A3F00209779000E5E0FC
:100A740004F070069000E4E004F00209779000E5C9
:100A8400E004F070069000E4E004F00209779000BE
:100A9400E2E0FEA3E0FFC39000E5E09F9000E4E005
:100AA4009E50569000DFE0FBA3E0FAA3E0F990002B
:100AB400E4E475F001120E4285F082F583120D769E
:100AC4009000D8F09000DDE0FFA3E0FDA3E0FBA3DD
:100AD400E0FAA3E0F99000E4E475F001120E428517
:100AE400F082F583120D76F5379000D8E0FB1219E9
:090AF4005580069000DB7403F04C
:050AFD0005560556221C
:0F26320090004374FFF0A37408F0A37400F0222B
:101E01008B508A5189529000DFE0FBA3E0FAA3E0F6
:101E1100F9E5508551838552826B7008E9658270BE
:101E210003EA6583600DE49000E4F0A3F0A3F0A35E
:101E3100F0C210EF60049000DEF0ED60049000DD70
:101E4100F0AB50AA51A952AE02AF01EF4E60047F30
:101E51000180027F00E554455360047E0180027ECB
:101E610000EE5F60139000DFEBF0A3EAF0A3E9F06E
:101E7100A3E553F0A3E554F0E55560049000DCF0D0
:011E8100223E
:10246E00BF02047E0180027E00BF01047D01800256
:10247E007D00ED4EFEBF03047D0180027D00ED4E1A
:08248E0060059000DBEFF02275
:0626BF009000DBE0FF22A9
:101421005500C300000000000000000000000000A3
:081431000000010000000000B2
:0300230002143A8A
:10143A00C0E0C0F0C083C082C0D075D000C000C078
:10144A0001C002C003C004C005C006C00730993BF2
:10145A00C2999000C8E0FEA3E0FFC39000C7E09FD6
:10146A009000C6E09E501F9000C3E0FBA3E0FAA3E1
:10147A00E0F9A3E475F001120E4285F082F58312B9
:10148A000D76F59980059000CAE4F02098030215BC
:10149A0051C298300B09C20B9000D0E4F0A3F0902F
:1014AA0000CEE0FEA3E0FFA3E0FCA3E0FDC39FECB7
:1014BA009E50779000CBE0FBA3E0FAA3E0F98D827F
:1014CA008C83E599120DA39000D6E0FEA3E0FFC33A
:1014DA00ED9FEC9E50469000CEE0FCA3E0FDEF9D10
:1014EA00EE9C50389000D3E0FBA3E0FAA3E0F99019
:1014FA0000D0E0FEA3E0FFF5828E83120D76FD9008
:10150A0000CBE0FBA3E0FAA3E0F98F828E83120DF1
:10151A00766D60089000D074FFF0A3F09000D1E0DF
:10152A0004F070069000D0E004F09000CEE0FEA334
:10153A00E0FFC39000D1E09F9000D0E09E40089069
:10154A0000D27401F0D20BD007D006D005D004D057
:10155A0003D002D001D000D0D0D082D083D0F0D036
:02156A00E0326D
:0226410015562C
:0A2643009000D2E0A856F6FFE4F084
:03264D000556220D
:101F77008F378E368D358C34759850438E40538EFF
:101F8700FE53890FE47B04FAF9F8902350120F9C53
:101F9700120EE3AB37AA36A935A834120EE3EFF4D5
:101FA70004F58BE47B04FAF9F8902350120F9C1286
:101FB7000EE3AB37AA36A935A834120EE3C3E49F64
:101FC700FFE49EFE74019DFDE49CFC7808120F75EA
:101FD7008F8DC2ABD28ED2AC90004F74FFF0A3743A
:071FE70026F0A37441F02273
:1023EA009000CBEBF0A3EAF0A3E9F0A3ECF0A3EDA5
:1023FA00F09000D6E53CF0A3E53DF09000D3E53936
:10240A00F0A3E53AF0A3E53BF0D20BE49000D2F05A
:01241A00229F
:102496009000CAE0701F9000C3EBF0A3EAF0A3E936
:1024A600F0E4A3F0A3F0A3ECF0A3EDF0A37401F025
:0824B600D2997F02227F03226C
:0B266A009000CAE07002FF227F0122F6
:03000000021CEAF5
:0C1CEA00787FE4F6D8FD758156021D31AC
:100D7600BB010CE58229F582E5833AF583E0225032
:100D860006E92582F8E622BBFE06E92582F8E2227C
:0D0D9600E58229F582E5833AF583E4932296
:100DA300F8BB010DE58229F582E5833AF583E8F086
:100DB300225006E92582C8F622BBFE05E92582C832
:020DC300F2221A
:100DC500EF8DF0A4A8F0CF8CF0A428CE8DF0A42E42
:020DD500FE22FC
:100DD700BC000BBE0029EF8DF084FFADF022E4CC00
:100DE700F875F008EF2FFFEE33FEEC33FCEE9DECC9
:100DF700984005FCEE9DFE0FD5F0E9E4CEFD22ED0F
:100E0700F8F5F0EE8420D21CFEADF075F008EF2F58
:100E1700FFED33FD4007985006D5F0F222C398FD49
:050E27000FD5F0EA22E6
:100E2C00C5F0F8A3E028F0C5F0F8E5821582700251
:060E3C001583E038F022EE
:100E4200A3F8E0C5F025F0F0E58215827002158363
:060E5200E0C838F0E822C0
:100E5800E88FF0A4CC8BF0A42CFCE98EF0A42CFC39
:100E68008AF0EDA42CFCEA8EF0A4CDA8F08BF0A4B7
:100E78002DCC3825F0FDE98FF0A42CCD35F0FCEB16
:100E88008EF0A4FEA9F0EB8FF0A4CFC5F02ECD39DB
:0F0E9800FEE43CFCEAA42DCE35F0FDE43CFC2248
:100EA70075F008758200EF2FFFEE33FECD33CDCC02
:100EB70033CCC58233C5829BED9AEC99E582984085
:100EC7000CF582EE9BFEED9AFDEC99FC0FD5F0D662
:100ED700E4CEFBE4CDFAE4CCF9A88222B800C1B98C
:100EE7000059BA002DEC8BF084CFCECDFCE5F0CBCA
:100EF700F97818EF2FFFEE33FEED33FDEC33FCEB03
:100F070033FB10D703994004EB99FB0FD8E5E4F9BD
:100F1700FA227818EF2FFFEE33FEED33FDEC33FCAA
:100F2700C933C910D7059BE99A4007EC9BFCE99A9E
:100F3700F90FD8E0E4C9FAE4CCFB2275F010EF2FE3
:100F4700FFEE33FEED33FDCC33CCC833C810D707E3
:100F57009BEC9AE899400AED9BFDEC9AFCE899F81E
:0E0F67000FD5F0DAE4CDFBE4CCFAE4C8F922B1
:1021DC00C2D5E830E70FB2D5E4C39BFBE49AFAE42E
:1021EC0099F9E498F8EC30E717B2D5122212120ED6
:1021FC00E3E4C39BFBE49AFAE499F9E498F88003CE
:10220C00120EE330D50DE4C39FFFE49EFEE49DFD6A
:04221C00E49CFC2220
:100F7500E8600FECC313FCED13FDEE13FEEF13FF5A
:030F8500D8F1227E
:100F8800E86010ECA2E713FCED13FDEE13FEEF137F
:040F9800FFD8F0226C
:100F9C00E493FC740193FD740293FE740393FF229B
:0C0FAC00ECF0A3EDF0A3EEF0A3EFF022B8
:0C0FB800A42582F582E5F03583F5832244
:060FC4008A838982E473B8
:101CF600021B3AE493A3F8E493A34003F68001F2AF
:101D060008DFF48029E493A3F85407240CC8C333EE
:101D1600C4540F4420C8834004F456800146F6DFBD
:101D2600E4800B01020408102040809012F8E47E43
:101D3600019360BCA3FF543F30E509541FFEE493B2
:101D4600A360010ECF54C025E060A840B8E493A379
:101D5600FAE493A3F8E493A3C8C582C8CAC583CAA4
:101D6600F0A3C8C582C8CAC583CADFE9DEE780BE5C
:0114390000B2
:00000001FF
