:0A000000022AD743D8042280FE2212
:10000B0002316612387653B1F353B2F353917F53E7
:03001B00927F22AF
:0F002300022C99E5D830E20653D8FB120FF922D0
:03003B0002329EF0
:10004300022B77E709F608DFFA8046E709F208DFB3
:10005300FA803E88828C83E709F0A3DFFA8032E3DB
:1000630009F608DFFA8078E309F208DFFA8070887E
:10007300828C83E309F0A3DFFA806489828A83E0B8
:10008300A3F608DFFA805889828A83E0A3F208DFA7
:10009300FA804C80D280FA80C680D4806980F28056
:1000A30033801080A680EA809A80A880DA80E2807C
:1000B300CA803389828A83ECFAE493A3C8C582C8D1
:1000C300CCC583CCF0A3C8C582C8CCC583CCDFE93B
:1000D300DEE7800D89828A83E493A3F608DFF9ECD7
:1000E300FAA9F0EDFB2289828A83ECFAE0A3C8C562
:1000F30082C8CCC583CCF0A3C8C582C8CCC583CC89
:10010300DFEADEE880DB89828A83E493A3F208DFF7
:10011300F980CC88F0EF60010E4E60C388F0ED24C7
:1001230002B4040050B9F582EB2402B4040050AFCA
:10013300232345822390009673BB010689828A8319
:10014300E0225002E722BBFE02E32289828A83E493
:100153009322BB010CE58229F582E5833AF583E01E
:10016300225006E92582F8E622BBFE06E92582F83D
:10017300E222E58229F582E5833AF583E49322BB03
:10018300010989828A83F8E028F022500327F722A5
:10019300BBFE05F8E328F3228A838982F8E49328D7
:1001A30022BB010FF8E58229F582E5833AF583E066
:1001B30028F0225009C58229F8E58226F622BBFEE3
:1001C30009C58229F8E22582F222F8EA2583F5831C
:1001D300E9932822BB010689828A83F0225002F721
:1001E30022BBFE01F322F8BB010DE58229F582E56E
:1001F300833AF583E8F0225006E92582C8F622BB4C
:10020300FE05E92582C8F222BC000BBE0029EF8D52
:10021300F084FFADF022E4CCF875F008EF2FFFEE89
:1002230033FEEC33FCEE9DEC984005FCEE9DFE0F97
:10023300D5F0E9E4CEFD22EDF8F5F0EE8420D21CF2
:10024300FEADF075F008EF2FFFED33FD400798503A
:1002530006D5F0F222C398FD0FD5F0EA22E88FF01D
:10026300A4CC8BF0A42CFCE98EF0A42CFC8AF0ED3A
:10027300A42CFCEA8EF0A4CDA8F08BF0A42DCC38EE
:1002830025F0FDE98FF0A42CCD35F0FCEB8EF0A426
:10029300FEA9F0EB8FF0A4CFC5F02ECD39FEE43CE0
:1002A300FCEAA42DCE35F0FDE43CFC2275F0087584
:1002B3008200EF2FFFEE33FECD33CDCC33CCC5829E
:1002C30033C5829BED9AEC99E58298400CF582EE5A
:1002D3009BFEED9AFDEC99FC0FD5F0D6E4CEFBE442
:1002E300CDFAE4CCF9A88222B800C1B90059BA000A
:1002F3002DEC8BF084CFCECDFCE5F0CBF97818EF65
:100303002FFFEE33FEED33FDEC33FCEB33FB10D765
:1003130003994004EB99FB0FD8E5E4F9FA22781826
:10032300EF2FFFEE33FEED33FDEC33FCC933C91081
:10033300D7059BE99A4007EC9BFCE99AF90FD8E0B3
:10034300E4C9FAE4CCFB2275F010EF2FFFEE33FE85
:10035300ED33FDCC33CCC833C810D7079BEC9AE8F8
:1003630099400AED9BFDEC9AFCE899F80FD5F0DA79
:10037300E4CDFBE4CCFAE4C8F922EB9FF5F0EA9E66
:1003830042F0E99D42F0E89C45F022E8600FECC39F
:1003930013FCED13FDEE13FEEF13FFD8F1227401EE
:1003A300FF3395E0FEFDFCA3A3A3E02FFFF0E5825E
:1003B300158270021583E03EFEF0E582158270021D
:1003C3001583E03DFDF0E582158270021583E03C64
:1003D300FCF022ECF0A3EDF0A3EEF0A3EFF022A8E3
:1003E300828583F0D083D0821203F91203F91203BA
:1003F300F91203F9E473E493A3C583C5F0C583C875
:10040300C582C8F0A3C583C5F0C583C8C582C82209
:10041300A42582F582E5F03583F58322D083D0824B
:10042300F8E4937012740193700DA3A393F874010D
:1004330093F5828883E4737402936860EFA3A3A3A4
:1004430080DFE5252582F582E5243583F583B52410
:10045300048582252210AF06858225F52422858214
:1004630025F524D2AF22E5252582F582E5243583BF
:10047300F5832290FFFE120445EEF0A3EFF07B001C
:100483007A007DF57C1B7F0312000390022AE0FFB4
:10049300EF25E025E0241BF582E43404F583E0FC3A
:1004A300A3E0FDA3E0FEA3E0FFEF5401FFEE540041
:1004B300FEED5400FDEC5400FC7B017A00790078DA
:1004C30000C312037D70369004547402F0900455F7
:1004D300740FF07B017A047950C003C002C0017B22
:1004E300017A0479A0A801AC02AD03D001D002D0F7
:1004F300037E007F0612011612246C808190022A6B
:10050300E0FFEF25E025E0241BF582E43404F583C6
:10051300E0FCA3E0FDA3E0FEA3E0FFEF5404FFEE45
:100523005400FEED5400FDEC5400FC7B047A00798A
:10053300007800C312037D7012900444E0FFC3747B
:10054300019FFF900444EFF002048190022AE0FF30
:10055300EF25E025E0241BF582E43404F583E0FC79
:10056300A3E0FDA3E0FEA3E0FFEF5410FFEE540071
:10057300FEED5400FDEC5400FC7B107A007900780A
:1005830000C312037D701190048FE0FFEF6404FF3A
:1005930090048FEFF002048190022AE0FFEF25E040
:1005A30025E0241BF582E43404F583E0FCA3E0FD9D
:1005B300A3E0FEA3E0FFEF5420FFEE5400FEED5452
:1005C30000FDEC5400FC7B207A0079007800C31214
:1005D300037D701190048FE0FFEF6410FF90048F90
:1005E300EFF002048190022AE0FFEF25E025E024EA
:1005F3001BF582E43404F583E0FCA3E0FDA3E0FEF5
:10060300A3E0FFEF5440FFEE5400FEED5400FDEC79
:100613005400FC7B407A0079007800C312037D709C
:100623001190048FE0FFEF6420FF90048FEFF0023E
:10063300048190022AE0FFEF25E025E0241BF582E8
:10064300E43404F583E0FCA3E0FDA3E0FEA3E0FFB4
:10065300EF5480FFEE5400FEED5400FDEC5400FC1B
:100663007B807A0079007800C312037D70119004B7
:100673008FE0FFEF6440FF90048FEFF0020481905E
:10068300022AE0FFEF25E025E0241BF582E4340491
:10069300F583E0FCA3E0FDA3E0FEA3E0FFEF54003D
:1006A300FFEE5401FEED5400FDEC5400FC7B007A98
:1006B3000179007800C312037D701190048FE0FF6D
:1006C300EF6480FF90048FEFF002048190022AE030
:1006D300FFEF25E025E0241BF582E43404F583E0F5
:1006E300FCA3E0FDA3E0FEA3E0FFEF5400FFEE5404
:1006F30002FEED5400FDEC5400FC7B007A0279000D
:100703007800C312037D701190048FE0FFEF64083B
:10071300FF90048FEFF002048190022AE0FFEF259F
:10072300E025E0241BF582E43404F583E0FCA3E038
:10073300FDA3E0FEA3E0FFEF5400FFEE5408FEED3F
:100743005400FDEC5400FC7B007A0879007800C368
:1007530012037D700302048190022AE0FFEF25E07B
:1007630025E0241BF582E43404F583E0FCA3E0FDDB
:10077300A3E0FEA3E0FFEF5400FFEE5410FEED54A0
:1007830000FDEC5400FC7B007A1079007800C31262
:10079300037D600302048102048190000212044578
:1007A3002290FFFC1204451203D67B0A7A007900DB
:1007B3007800852483852582E0FCA3E0FDA3E0FE89
:1007C300A3E0FF1202EBAC00AD01AE02AF0374DB9A
:1007D3002FF58274383EF583E493FF900497EFF08E
:1007E300852483852582C083C082E0FCA3E0FDA32A
:1007F300E0FEA3E0FF7B0A7A00790078001202EBA7
:10080300D082D0831203D67B0A7A007900780085E0
:100813002483852582E0FCA3E0FDA3E0FEA3E0FFA3
:100823001202EBAC00AD01AE02AF0374DB2FF58215
:1008330074383EF583E493FF900496EFF0852483A8
:10084300852582C083C082E0FCA3E0FDA3E0FEA374
:10085300E0FF7B0A7A00790078001202EBD082D0A5
:10086300831203D67B0A7A00790078008524838576
:100873002582E0FCA3E0FDA3E0FEA3E0FF1202EB70
:10088300AC00AD01AE02AF0374DB2FF58274383ECA
:10089300F583E493FF900495EFF085248385258207
:1008A300C083C082E0FCA3E0FDA3E0FEA3E0FF7BE6
:1008B3000A7A00790078001202EBD082D083120307
:1008C300D67B0A7A0079007800852483852582E027
:1008D300FCA3E0FDA3E0FEA3E0FF1202EBAC00AD3E
:1008E30001AE02AF0374DB2FF58274383EF583E467
:1008F30093FF900494EFF0852483852582C083C001
:1009030082E0FCA3E0FDA3E0FEA3E0FF7B0A7A0004
:10091300790078001202EBD082D0831203D67B0ACF
:100923007A0079007800852483852582E0FCA3E0A2
:10093300FDA3E0FEA3E0FF1202EBAC00AD01AE02AB
:10094300AF0374DB2FF58274383EF583E493FF9095
:100953000493EFF0852483852582C083C082E0FC65
:10096300A3E0FDA3E0FEA3E0FF7B0A7A0079007811
:10097300001202EBD082D0831203D67B0A7A00796D
:10098300007800852483852582E0FCA3E0FDA3E0B5
:10099300FEA3E0FF1202EBAC00AD01AE02AF0374A5
:1009A300DB2FF58274383EF583E493FF900492EFD6
:1009B300F0852483852582C083C082E0FCA3E0FD0B
:1009C300A3E0FEA3E0FF7B0A7A007900780012021D
:1009D300EBD082D0831203D67B0A7A0079007800A9
:1009E300852483852582E0FCA3E0FDA3E0FEA3E04C
:1009F300FF1202EBAC00AD01AE02AF0374DB2FF5C7
:100A03008274383EF583E493FF900491EFF08524DC
:100A130083852582C083C082E0FCA3E0FDA3E0FEC2
:100A2300A3E0FF7B0A7A00790078001202EBD08200
:100A3300D0831203D67B0A7A007900780085248359
:100A4300852582E0FCA3E0FDA3E0FEA3E0FF120204
:100A5300EBAC00AD01AE02AF0374DB2FF58274384B
:100A63003EF583E493FF900490EFF085248385257E
:100A730082C083C082E0FCA3E0FDA3E0FEA3E0FF0D
:100A83007B0A7A00790078001202EBD082D08312BD
:100A930003D6900004120445221219B7900478E09B
:100AA300FFEF30E02490043BE0FCA3E0FDA3E0FE75
:100AB300A3E0FFEF4401FFEE4400FEED4400FDEC34
:100AC3004400FC90043B1203D6900478E0FFEF301F
:100AD300E12490043BE0FCA3E0FDA3E0FEA3E0FFE0
:100AE300EF4404FFEE4400FEED4400FDEC4400FC43
:100AF30090043B1203D6900478E0FFEF30E2249099
:100B0300043BE0FCA3E0FDA3E0FEA3E0FFEF441001
:100B1300FFEE4400FEED4400FDEC4400FC90043B7A
:100B23001203D6900478E0FFEF30E32490043BE017
:100B3300FCA3E0FDA3E0FEA3E0FFEF4480FFEE444F
:100B430000FEED4400FDEC4400FC90043B1203D690
:100B5300900478E0FFEF30E42490043BE0FCA3E052
:100B6300FDA3E0FEA3E0FFEF4400FFEE4401FEED32
:100B73004400FDEC4400FC90043B1203D69004783F
:100B8300E0FFEF30E52490043BE0FCA3E0FDA3E0AD
:100B9300FEA3E0FFEF4420FFEE4400FEED4400FD22
:100BA300EC4400FC90043B1203D6900478E0FFEF82
:100BB30030E62490043BE0FCA3E0FDA3E0FEA3E0C9
:100BC300FFEF4440FFEE4400FEED4400FDEC440023
:100BD300FC90043B1203D6900478E0FFEF30E72447
:100BE30090043BE0FCA3E0FDA3E0FEA3E0FFEF44A1
:100BF30000FFEE4402FEED4400FDEC4400FC9004D3
:100C03003B1203D6900477E0FFEF30E02490043BDF
:100C1300E0FCA3E0FDA3E0FEA3E0FFEF4402FFEE50
:100C23004400FEED4400FDEC4400FC90043B120341
:100C3300D6900477E0FFEF30E12490043BE0FCA37F
:100C4300E0FDA3E0FEA3E0FFEF4408FFEE4400FE57
:100C5300ED4400FDEC4400FC90043B1203D69004E9
:100C630077E0FFEF30E22490043BE0FCA3E0FDA338
:100C7300E0FEA3E0FFEF4400FFEE4404FEED44007A
:100C8300FDEC4400FC90043B1203D6900477E0FF94
:100C9300EF30E32490043BE0FCA3E0FDA3E0FEA3DC
:100CA300E0FFEF4400FFEE4404FEED4400FDEC449E
:100CB30000FC90043B1203D6900477E0FFEF30E48E
:100CC3002490043BE0FCA3E0FDA3E0FEA3E0FFEFE0
:100CD3004400FFEE4404FEED4400FDEC4400FC90B0
:100CE300043B1203D6900477E0FFEF30E524900431
:100CF3003BE0FCA3E0FDA3E0FEA3E0FFEF4400FF25
:100D0300EE4404FEED4400FDEC4400FC90043B1271
:100D130003D6900477E0FFEF30E62490043BE0FC39
:100D2300A3E0FDA3E0FEA3E0FFEF4400FFEE4404D5
:100D3300FEED4400FDEC4400FC90043B1203D6900E
:100D43000477E0FFEF30E72490043BE0FCA3E0FDF1
:100D5300A3E0FEA3E0FFEF4400FFEE4404FEED44F6
:100D630000FDEC4400FC90043B1203D6229004984F
:100D7300EEF0A3EFF090049AECF0A3EDF090049A58
:100D8300E0FEA3E0FFEF7806C333CE33CED8F9FFFE
:100D930074002FF58274003EF583AF82AE83EF2497
:100DA30040FFEE3400FE7F00EEFF7E0090049AE0E9
:100DB300FCA3E0FD90023875F012ED120413EC75FC
:100DC300F012A42583F583EFF090049AE0FEA3E0EC
:100DD300FFEF7806C333CE33CED8F9FF74002FF577
:100DE3008274003EF583AF82EF2440FFEF54FFFF90
:100DF30090049AE0FCA3E0FD90023975F012ED1225
:100E03000413EC75F012A42583F583EFF090049896
:100E1300E0FEA3E0FF7F00EEFF7E0090049AE0FC7B
:100E2300A3E0FD90023A75F012ED120413EC75F095
:100E330012A42583F583EFF0900498E0FEA3E0FF6E
:100E4300EF54FFFF90049AE0FCA3E0FD90023B7592
:100E5300F012ED120413EC75F012A42583F583EF61
:100E6300F090049AE0FEA3E0FF1236F2EF64FF6015
:100E73003490049AE0FEA3E0FF1236F2EF75F0150A
:100E8300A42436F8AF0090049AE0FCA3E0FD90029E
:100E93003C75F012ED120413EC75F012A42583F5E2
:100EA30083EFF0801D90049AE0FEA3E0FF90023CE4
:100EB30075F012EF120413EE75F012A42583F58377
:100EC300E4F090049CE0FCA3E0FDA3E0FEA3E0FFBC
:100ED300EF5400FFEE5400FEED5400FDEC54FFFC14
:100EE300781812038E90049AE0FCA3E0FD9002347C
:100EF30075F012ED120413EC75F012A42583F5833B
:100F0300EFF090049CE0FCA3E0FDA3E0FEA3E0FF70
:100F1300EF5400FFEE5400FEED54FFFDEC5400FCD3
:100F2300781012038E90049AE0FCA3E0FD90023542
:100F330075F012ED120413EC75F012A42583F583FA
:100F4300EFF090049CE0FCA3E0FDA3E0FEA3E0FF30
:100F5300EF5400FFEE54FFFEED5400FDEC5400FC93
:100F6300780812038E90049AE0FCA3E0FD90023609
:100F730075F012ED120413EC75F012A42583F583BA
:100F8300EFF090049CE0FCA3E0FDA3E0FEA3E0FFF0
:100F9300EF54FFFFEE5400FEED5400FDEC5400FC53
:100FA30090049AE0FCA3E0FD90023775F012ED1275
:100FB3000413EC75F012A42583F583EFF090049AE3
:100FC300E0FEA3E0FF74212FF58274023EF58374E3
:100FD30003F0900220E0FF90049AE0FCA3E0FDAE52
:100FE300057401A806088002C333D8FCFEEF4EFF48
:100FF300900220EFF0229004C2E515F0AF127E00BC
:10100300EF7F00FEAD137C00EF2DFFEE3CFE90045E
:10101300C3EEF0A3EFF0AF107E00EF7F00FEAD1143
:101023007C00EF2DFFEE3CFE9004C5EEF0A3EFF045
:101033009004C2E0FFEFB40105122D232222900495
:10104300C2E0FFEF6402705990043FE0FF90022A70
:10105300E0FE7401A806088002C333D8FCFEEF4EFD
:10106300FF90043FEFF090022AE0FFEF25E025E038
:10107300241BF582E43404F5831203E2000020000C
:101083009004C3E0FEA3E0FF90022AE0FDED25E01B
:1010930024BBF582E43402F583EEF0A3EFF08099EC
:1010A300229004C2E0FFEF6403706190043FE0FF0D
:1010B30090022AE0FE7401A806088002C333D8FC1C
:1010C300FEEF4EFF90043FEFF09004C3E0FEA3E079
:1010D300FFE4FCFD90022AE0FBEB25E025E0241B66
:1010E300F582E43404F5831203D69004C5E0FEA32D
:1010F300E0FF90022AE0FDED25E024BBF582E43415
:1011030002F583EEF0A3EFF002103C229004C2E05C
:10111300FFEF7023900220E0FF90022AE0FE7401AB
:10112300A806088002C333D8FCFEEEF4FEEF5EFF90
:10113300900220EFF022229004C2E0FFEFB40415E6
:101143009004C3E0FEA3E0FF9004C5E0FCA3E0FD30
:101153001236AE22229004C2E0FFEFB4050D9004D4
:10116300C3E0FEA3E0FF12228F22229004C2E0FF1D
:10117300EFB406179004C3E0FEA3E0FF122EACEF1A
:10118300700302103C222202103C229004C2E0FFB2
:10119300EF640760030212669004C3E0FEA3E0FF5E
:1011A3007401A807088002C333D8FCFF90043FE012
:1011B300FEEF5EFFEF70030212669004C3E0FEA32E
:1011C300E0FFEF7802C333CE33CED8F9FF741B2F81
:1011D300F58274043EF583E0F8A3E0F9A3E0FAA3F3
:1011E300E0FB9004C5E0FEA3E0FFE4FCFDEF5BFF42
:1011F300EE5AFEED59FDEC58FCEC4D4E4F606490F9
:10120300043BE0FCA3E0FDA3E0FEA3E0FFC004C0B9
:1012130005C006C0079004C3E0FEA3E0FFEF780219
:10122300C333CE33CED8F9FF741B2FF58274043E3B
:10123300F583D007D006D005D0041203D690043F1F
:10124300E0FF9004C3E0FCA3E0FDAE057401A80633
:10125300088002C333D8FCFEEEF4FEEF5EFF900479
:101263003FEFF0229004F1EFF09004F2E4F053C961
:10127300EF53CAEFD296D2CCD295C2959004F1E047
:10128300FFEF30E003D38001C392CCD295C2959097
:1012930004F1E0FFEF30E103D38001C392CCD29598
:1012A300C2959004F1E0FFEF30E203D38001C392D3
:1012B300CCD295C2959004F1E0FFEF30E303D380E5
:1012C30001C392CCD295C2959004F1E0FFEF30E4D4
:1012D30003D38001C392CCD295C2959004F1E0FF71
:1012E300EF30E503D38001C392CCD295C295D2CC23
:1012F300D295C29543C91053CAEF9004F2E0FFEFB1
:1013030054FEFF9004F2EFF09004F2E0FFA2CCE46D
:1013130033FEEF4EFF9004F2EFF0D295C2959004A6
:10132300F2E0FFEF54FDFF9004F2EFF09004F2E0DF
:10133300FFA2CCE433FEEE25E0FEEF4EFF9004F275
:10134300EFF0D295C2959004F2E0FFEF54FBFF90CB
:1013530004F2EFF09004F2E0FFA2CCE433FEEE25BA
:10136300E025E0FEEF4EFF9004F2EFF0D295C29538
:101373009004F2E0FFEF54F7FF9004F2EFF09004D3
:10138300F2E0FFA2CCE433FEEE33333354F8FEEF46
:101393004EFF9004F2EFF0D295C2959004F2E0FF75
:1013A300EF54EFFF9004F2EFF09004F2E0FFA2CCD1
:1013B300E433FEEEC454F0FEEF4EFF9004F2EFF080
:1013C300D295C2959004F2E0FFEF54DFFF9004F250
:1013D300EFF09004F2E0FFA2CCE433FEEEC433540A
:1013E300E0FEEF4EFF9004F2EFF0D295C295900429
:1013F300F2E0FFEF54BFFF9004F2EFF09004F2E04D
:10140300FFA2CCE433FEEEC4333354C0FEEF4EFFF1
:101413009004F2EFF0D295C2959004F2E0FFEF54FE
:101423007FFF9004F2EFF09004F2E0FFA2CCE433EC
:10143300FEEEC43333335480FEEF4EFF9004F2EFDD
:10144300F0D295C295C296C295C2CC9004F2E0FF49
:10145300229004DBEEF0A3EFF09004DDE4F0A3E4CC
:10146300F07B017A007D007C007F0412000390046E
:10147300DDE0FEA3E0FFC3EF94E8EE940340030234
:10148300157E7B007A007D007C007F0612000390AE
:10149300044CE0FCA3E0FDA3E0FEA3E0FFEF240186
:1014A300FFEE3400FEED3400FDEC3400FC90044C00
:1014B3001203D67B007A007D007C007F05120003B7
:1014C3007BE87A037900780090044CE0FCA3E0FD0C
:1014D300A3E0FEA3E0FF1202EBC0077B647A00796E
:1014E30000780090044CE0FCA3E0FDA3E0FEA3E041
:1014F300FF1202EB7B0A7A00790078001202EBAC50
:1015030000AD01AE02AF03AD07C0057B0A7A0079D7
:1015130000780090044CE0FCA3E0FDA3E0FEA3E010
:10152300FF1202EB7B0A7A00790078001202EBAC1F
:1015330000AD01AE02AF03AB07C0037B0A7A0079AB
:1015430000780090044CE0FCA3E0FDA3E0FEA3E0E0
:10155300FF1202EBAC00AD01AE02AF039004D6EF75
:10156300F0D003D005D0071234B29004DEE004F0CB
:1015730070069004DDE004F00214717BE87A0379CD
:1015830000780090044CE0FCA3E0FDA3E0FEA3E0A0
:10159300FF1202EBC0077B647A00790078009004A5
:1015A3004CE0FCA3E0FDA3E0FEA3E0FF1202EB7B13
:1015B3000A7A00790078001202EBAC00AD01AE02AA
:1015C300AF03AD07C0057B0A7A0079007800900469
:1015D3004CE0FCA3E0FDA3E0FEA3E0FF1202EB7BE3
:1015E3000A7A00790078001202EBAC00AD01AE027A
:1015F300AF03AB07C0037B0A7A007900780090043D
:101603004CE0FCA3E0FDA3E0FEA3E0FF1202EBAC81
:1016130000AD01AE02AF039004D6EFF0D003D005C6
:10162300D0071234B2021471229004D7EEF0A3EF64
:10163300F09004D9E4F0A3E4F09004D9E0FEA3E031
:10164300FFC3EF94E8EE940340030217497B007A4B
:10165300007D007C007F0612000390044CE0FCA395
:10166300E0FDA3E0FEA3E0FFEF2401FFEE3400FE64
:10167300ED3400FDEC3400FC90044C1203D67B00E7
:101683007A007D007C007F051200037BE87A0379F2
:1016930000780090044CE0FCA3E0FDA3E0FEA3E08F
:1016A300FF1202EBC0077B647A0079007800900494
:1016B3004CE0FCA3E0FDA3E0FEA3E0FF1202EB7B02
:1016C3000A7A00790078001202EBAC00AD01AE0299
:1016D300AF03AD07C0057B0A7A0079007800900458
:1016E3004CE0FCA3E0FDA3E0FEA3E0FF1202EB7BD2
:1016F3000A7A00790078001202EBAC00AD01AE0269
:10170300AF03AB07C0037B0A7A007900780090042B
:101713004CE0FCA3E0FDA3E0FEA3E0FF1202EBAC70
:1017230000AD01AE02AF039004D2EFF0D003D005B9
:10173300D0071234629004DAE004F070069004D902
:10174300E004F002163C7BE87A0379007800900409
:101753004CE0FCA3E0FDA3E0FEA3E0FF1202EBC01C
:10176300077B647A007900780090044CE0FCA3E0E6
:10177300FDA3E0FEA3E0FF1202EB7B0A7A007900EF
:1017830078001202EBAC00AD01AE02AF03AD07C0AF
:10179300057B0A7A007900780090044CE0FCA3E012
:1017A300FDA3E0FEA3E0FF1202EB7B0A7A007900BF
:1017B30078001202EBAC00AD01AE02AF03AB07C081
:1017C300037B0A7A007900780090044CE0FCA3E0E4
:1017D300FDA3E0FEA3E0FF1202EBAC00AD01AE02FD
:1017E300AF039004D2EFF0D003D005D007123462D8
:1017F30002163C22AF087E009002BBE0FCA3E0FD92
:10180300C3ED9FEC9E401D9002BBE0FEA3E0FFAD45
:10181300087C00C3EF9DFFEE9CFE9002BBEEF0A39D
:10182300EFF080089002BBE4F0A3E4F0AF087E0081
:101833009002BDE0FCA3E0FDC3ED9FEC9E401D9034
:1018430002BDE0FEA3E0FFAD087C00C3EF9DFFEE09
:101853009CFE9002BDEEF0A3EFF080089002BDE481
:10186300F0A3E4F0AF087E009002BFE0FCA3E0FD2C
:10187300C3ED9FEC9E401D9002BFE0FEA3E0FFADD1
:10188300087C00C3EF9DFFEE9CFE9002BFEEF0A329
:10189300EFF080089002BFE4F0A3E4F0AF087E000D
:1018A3009002C1E0FCA3E0FDC3ED9FEC9E401D90C0
:1018B30002C1E0FEA3E0FFAD087C00C3EF9DFFEE95
:1018C3009CFE9002C1EEF0A3EFF080089002C1E409
:1018D300F0A3E4F0AF087E009002C3E0FCA3E0FDB8
:1018E300C3ED9FEC9E401D9002C3E0FEA3E0FFAD5D
:1018F300087C00C3EF9DFFEE9CFE9002C3EEF0A3B5
:10190300EFF080089002C3E4F0A3E4F0AF087E0098
:101913009002C5E0FCA3E0FDC3ED9FEC9E401D904B
:1019230002C5E0FEA3E0FFAD087C00C3EF9DFFEE20
:101933009CFE9002C5EEF0A3EFF080089002C5E490
:10194300F0A3E4F0AF087E009002C7E0FCA3E0FD43
:10195300C3ED9FEC9E401D9002C7E0FEA3E0FFADE8
:10196300087C00C3EF9DFFEE9CFE9002C7EEF0A340
:10197300EFF080089002C7E4F0A3E4F0AF087E0024
:101983009002C9E0FCA3E0FDC3ED9FEC9E401C90D8
:1019930002C9E0FEA3E0FFAD087C00C3EF9DFFEEAC
:1019A3009CFE9002C9EEF0A3EFF0229002C9E4F08E
:1019B300A3E4F022900477E4F0900478E4F0900438
:1019C300FB7413F09004FBE0FFEFC39401402A90F3
:1019D30004FBE0FF74782FF582E43404F583E0FF21
:1019E3009004FBE0FE74792EF582E43404F583EF72
:1019F300F09004FBE014F080CB7F0712366A90046A
:101A03008DEFF0900479E4F0900479E0FFA2B2B393
:101A130050047E0180027E00EF4EFF900479EFF0C8
:101A2300900479E0FFA2B3B350047E0280027E00EB
:101A3300EF4EFF900479EFF0900479E0FF90048D6E
:101A4300E0FEEEC4135407FEEE70047E0480027EB3
:101A530000EF4EFF900479EFF0900479E0FF9004DB
:101A63008DE0FEEEC4135407FEEEB404047E208022
:101A7300027E00EF4EFF900479EFF0900479E0FFCF
:101A830090048DE0FEEEC4135407FEEEB401047E11
:101A93004080027E00EF4EFF900479EFF0900479CE
:101AA300E0FF90048DE0FEEEC4135407FEEEB40590
:101AB300047E0880027E00EF4EFF900479EFF090E1
:101AC3000479E0FF90048DE0FEEEC4135407FEEEAC
:101AD300B402047E1080027E00EF4EFF900479EF83
:101AE300F0900479E0FF90048DE0FEEEC4135407F8
:101AF300FEEEB403047E8080027E00EF4EFF90046E
:101B030079EFF09004FBE4F09004FBE0FFEFC39463
:101B13001350229004FBE0FF74792FF582E4340420
:101B2300F583E0FF900479E0FEEF6E703C9004FBD8
:101B3300E004F080D390048CE0FF900479E0FEEEA3
:101B43006FFF900479E0FEEF5EFF900478EFF09072
:101B5300048CE0FF900479E0FEEE6FFF90048CE0CC
:101B6300FEEF5EFF900477EFF02290FFFE12044534
:101B7300EEF0A3EFF090FFFF120445852483852543
:101B830082E4F0852483852582E0FF7E007C037D4B
:101B9300E812020BED4C6003021D00122553C00333
:101BA300C002C0017B017A047950A801AC02AD03E5
:101BB300D001D002D0037E007F061201169004509C
:101BC300E0FF900445EFF0900451E0FF900446EFEE
:101BD300F0900452E0FF900447EFF0900453E0FFCD
:101BE300900448EFF0900454E0FF900449EFF09024
:101BF3000455E0FF90044AEFF0900444E0FFEF70D7
:101C030075900455E0FFEF75F00A84AFF090FFFF85
:101C1300120445EFF0900455E0FFEF75F00A84FFDE
:101C230090FFFF120445EFF090FFFF12044574305C
:101C3300F0900454E0FFEF75F00A84AFF090FFFFDB
:101C4300120445EFF0900454E0FFEF75F00A84FFAF
:101C530090FFFF120445EFF07B30900453E0FFEF59
:101C630075F00A84ADF0900453E0FFEF75F00A8439
:101C7300FF1227FD807D900444E0FFEF6401707341
:101C8300900452E0FFEF75F00A84AFF090FFFF126B
:101C93000445EFF0900452E0FFEF75F00A84FF90E3
:101CA300FFFF120445EFF090FFFF1204457430F07C
:101CB300900451E0FFEF75F00A84AFF090FFFF123C
:101CC3000445EFF0900451E0FFEF75F00A84FF90B4
:101CD300FFFF120445EFF07B30900450E0FFEF75F7
:101CE300F00A84ADF0900450E0FFEF75F00A84FF32
:101CF3001227FD7F0712126790048FEFF07B007AA3
:101D0300007D017C007F02120003852483852582E8
:101D1300E004F0021B86900003120445229004C7DE
:101D2300EFF09004CA74FFF09004C8E4F09004C884
:101D3300E0FFEFC3940550439004C8E0FFEF75F054
:101D430015A4244AF8E6FF7401A807088002C333E8
:101D5300D8FCFFEF70047F0180027F00900220E037
:101D6300FEEF5EFFEF600C9004C8E0FF9004CAEF43
:101D7300F080089004C8E004F080B21235027B05BD
:101D83007A00790078001202EBAC00AD01AE02AF2D
:101D9300039004CAEFF09004C8E4F09004C8E0FF95
:101DA300EFC394154003021E359004C8E0FF90046E
:101DB300CAE0FEEE75F015A42436F8E82FF8E6FF26
:101DC3009004C9EFF09004C8E0FF9004C7E0FEEE72
:101DD30075F015A424DCF582E43403F583E5822F42
:101DE300F582E43583F583E0FF9004C8E0FE9004B8
:101DF300CAE0FDED75F015A42436F8E82EF8A60721
:101E03009004C9E0FF9004C8E0FE9004C7E0FDED34
:101E130075F015A424DCF582E43403F583E5822E02
:101E2300F582E43583F583EFF09004C8E004F00213
:101E33001D9E9004C7E0FFEF75F015A424F0F58212
:101E4300E43403F583E0FFEF75F012A4243CF5823C
:101E5300E43402F583C083C082E0FF9004CAE0FE4D
:101E6300EE75F015A42436F8AE00C3EF9EFFD082C2
:101E7300D083EFF09004CAE0FFEF75F015A4243689
:101E8300F8AF009004CAE0FEEE75F015A4244AF8FA
:101E9300E6FEEE75F012A4243CF582E43402F583E9
:101EA300E02FF02290FFFD120445EBF0A3EAF0A32C
:101EB300E9F0852483852582E0FBA3E0FAA3E0F91A
:101EC30012013CFFEF3395E0FE74DB2FF58274388B
:101ED3003EF583E493FF900490EFF08524838525FA
:101EE30082E0FBA3E0FAA3E0F97582017583001297
:101EF3000155FFEF3395E0FE74DB2FF58274383E16
:101F0300F583E493FF900491EFF085248385258284
:101F1300E0FBA3E0FAA3E0F97582027583001201E6
:101F230055FFEF3395E0FE74DB2FF58274383EF5F1
:101F330083E493FF900492EFF0852483852582E068
:101F4300FBA3E0FAA3E0F975820375830012015540
:101F5300FFEF3395E0FE74DB2FF58274383EF58393
:101F6300E493FF900493EFF0852483852582E0FBBF
:101F7300A3E0FAA3E0F9758204758300120155FF0B
:101F8300EF3395E0FE74DB2FF58274383EF583E47E
:101F930093FF900494EFF0852483852582E0FBA3CF
:101FA300E0FAA3E0F9758205758300120155FFEF8E
:101FB3003395E0FE74DB2FF58274383EF583E493AA
:101FC300FF900495EFF0852483852582E0FBA3E051
:101FD300FAA3E0F9758206758300120155FFEF330A
:101FE30095E0FE74DB2FF58274383EF583E493FFAE
:101FF300900496EFF0852483852582E0FBA3E0FA25
:10200300A3E0F9758207758300120155FFEF33953D
:10201300E0FE74DB2FF58274383EF583E493FF9082
:102023000497EFF0900003120445229004FFEFF0B1
:102033009004FFE0FF7401A807088002C333D8FCB3
:10204300FF90043FE0FEEF5EFFEF700302215F901D
:1020530004FFE0FFEF25E025E0241BF582E43404D0
:10206300F583E0FCA3E0FDA3E0FEA3E0FF90043BC7
:10207300E0F8A3E0F9A3E0FAA3E0FBEF5BFFEE5A7D
:10208300FEED59FDEC58FCEC4D4E4F604690043B81
:10209300E0FCA3E0FDA3E0FEA3E0FF9004FFE0FB70
:1020A300EB25E025E0241BF582E43404F5831203D9
:1020B300D690043FE0FF9004FFE0FE7401A80608F9
:1020C3008002C333D8FCFEEEF4FEEF5EFF90043FC4
:1020D300EFF0229004FFE0FFEF25E025E0241BF55D
:1020E30082E43404F583E0FCA3E0FDA3E0FEA3E077
:1020F300FFEF5400FFEE5420FEED5400FDEC5400BE
:10210300FCEC4D4E4F60559004FFE0FFEF25E024BB
:10211300BBF582E43402F583E0FEA3E0FFEF4E70EB
:102123003B9004FFE0FFEF25E025E0241BF582E46C
:102133003404F5831203E20000200090043FE0FF23
:102143009004FFE0FE7401A806088002C333D8FCA4
:10215300FEEEF4FEEF5EFF90043FEFF0229004EFFB
:10216300EFF09004F0EDF053C9EF53CAEFD296C2EB
:10217300CCD295C2959004EFE0FFEF30E003D3801B
:1021830001C392CCD295C2959004EFE0FFEF30E10A
:1021930003D38001C392CCD295C2959004EFE0FFA4
:1021A300EF30E203D38001C392CCD295C295900461
:1021B300EFE0FFEF30E303D38001C392CCD295C2AB
:1021C300959004EFE0FFEF30E403D38001C392CC9A
:1021D300D295C2959004EFE0FFEF30E503D3800181
:1021E300C392CCD295C295D2CCD295C2959004F02D
:1021F300E0FFEF30E003D38001C392CCD295C295C8
:102203009004F0E0FFEF30E103D38001C392CCD21E
:1022130095C2959004F0E0FFEF30E203D38001C351
:1022230092CCD295C2959004F0E0FFEF30E303D354
:102233008001C392CCD295C2959004F0E0FFEF30B9
:10224300E403D38001C392CCD295C2959004F0E00D
:10225300FFEF30E503D38001C392CCD295C29590B2
:1022630004F0E0FFEF30E603D38001C392CCD295B4
:10227300C2959004F0E0FFEF30E703D38001C392EF
:10228300CCD295C295C295C2CCC296229004F5EFEA
:10229300F09004F5E0FF746F2FF582E43404F583C6
:1022A300E0FFEF70139004F5E0FF745F2FF582E415
:1022B3003404F583E004F0229004F5E0FF74672F03
:1022C300F582E43404F583E0FFEF25E0FF9004F5A5
:1022D300E0FE74672EF582E43404F583E0FEEEC479
:1022E3001313135401FEEE2FFF9004F6EFF0900446
:1022F300F5E0FF746F2FF582E43404F583E0FF907B
:1023030004F6E0FEEE5FFFEF70209004F6E0FFEFCF
:1023130025E0FF9004F6E0FEEEC41313135401FE10
:10232300EE2FFF9004F6EFF080C49004F5E0FF7405
:102333006F2FF582E43404F583C083C082E0FF90FD
:1023430004F6E0FEEEF4FEEF5EFFD082D083EFF002
:1023530090045EE0FF9004F6E0FEEEF4FEEF5EFF15
:1023630090045EEFF09004F6E0FF9004F5E0FE7455
:10237300672EF582E43404F583EFF02290048EE0B7
:10238300FFEF12041F23A70023BD0123D30223E978
:102393000323FF04241505242B062441072457088F
:1023A30000002466900490E0FF8F80C2A0C2A1C207
:1023B300A2C2A390048EE004F022900491E0FF8F68
:1023C30080D2A0C2A1C2A2C2A390048EE004F022D4
:1023D300900492E0FF8F80C2A0D2A1C2A2C2A390B8
:1023E300048EE004F022900493E0FF8F80D2A0D209
:1023F300A1C2A2C2A390048EE004F022900494E050
:10240300FF8F80C2A0C2A1D2A2C2A390048EE00417
:10241300F022900495E0FF8F80D2A0C2A1D2A2C285
:10242300A390048EE004F022900496E0FF8F80C214
:10243300A0D2A1D2A2C2A390048EE004F022900401
:1024430097E0FF8F80D2A0D2A1D2A2C2A390048E24
:10245300E004F02290048FE0FF8F80D2A390048EDB
:10246300E4F02290048EE4F0227D007F07122160C5
:102473009004A0E0FFEF75F00A84FFEFC454F0FF6F
:102483009004A0E0FEEE75F00A84AEF0EE2FFD7F1F
:10249300061221609004A1E0FFEF75F00A84FFEFBC
:1024A300C454F0FF9004A1E0FEEE75F00A84AEF090
:1024B300EE2FFD7F041221609004A2E0FFEF75F080
:1024C3000A84FFEFC454F0FF9004A2E0FEEE75F01F
:1024D3000A84AEF0EE2FFD7F051221609004A3E085
:1024E300FFEF75F00A84FFEFC454F0FF9004A3E0FC
:1024F300FEEE75F00A84AEF0EE2FFD7F021221602E
:102503009004A4E0FFEF75F00A84FFEFC454F0FFDA
:102513009004A4E0FEEE75F00A84AEF0EE2FFD7F8A
:10252300011221609004A5E0FFEF75F00A84FFEF2C
:10253300C454F0FF9004A5E0FEEE75F00A84AEF0FB
:10254300EE2FFD7F001221607D807F071221602224
:102553007F00121267EF54F0FFEFC4540FFFEF75C3
:10256300F00AA4FD7F00121267EF540FFFED2FFF57
:102573009004ABEFF07F01121267EF54F0FFEFC44A
:10258300540FFFEF75F00AA4FD7F01121267EF5499
:102593000FFFED2FFF9004AAEFF07F02121267EFF7
:1025A30054F0FFEFC4540FFFEF75F00AA4FD7F0250
:1025B300121267EF540FFFED2FFF9004A9EFF07F86
:1025C30005121267EF54F0FFEFC4540FFFEF75F0DD
:1025D3000AA4FD7F05121267EF540FFFED2FFF9042
:1025E30004A8EFF07F04121267EF54F0FFEFC45416
:1025F3000FFFEF75F00AA4FD7F04121267EF540F6B
:10260300FFED2FFF9004A7EFF07F06121267EF5440
:10261300F0FFEFC4540FFFEF75F00AA4FD7F06121D
:102623001267EF540FFFED2FFF9004A6EFF07B012D
:102633007A0479A6227B007A007927AF018F817B08
:10264300017A027920AE02AF011238CC784A7600C3
:10265300785F76017874760278897603789E7604BB
:102663009003F07405F09004057406F090041A7456
:1026730007F05393004394FF5395F043960FD2A36F
:1026830075800012000E7F807E257D007C00122F56
:102693002A7F807E257D007C00122E2C90048FE4FF
:1026A300F07B017A0479401238467B017A0479423F
:1026B3001238467BFF7A1B796DAE02AF01C006C0AC
:1026C3000790049C1203E200000000D007D0067DAF
:1026D300037C00120D707BFF7A047976AE02AF01A2
:1026E300C006C00790049C1203E200000000D0075C
:1026F300D0067D047C00120D7053D8FB75DC01C23B
:10270300BFC28C5389F0538E7F758A67758CFCD258
:10271300AFD2A9C2B9D28C80FE229004F7EEF0A307
:10272300EFF0D2AFD2A97B0A7A0079007800900447
:102733004CE0FCA3E0FDA3E0FEA3E0FF1202EBAC40
:1027430000AD01AE02AF0390FFFF120445EFF07B33
:102753000A7A007900780090044CE0FCA3E0FDA322
:10276300E0FEA3E0FF1202EB7B0A7A007900780017
:102773001202EBAC00AD01AE02AF0390FFFF1204F7
:1027830045EFF07B647A007900780090044CE0FC1C
:10279300A3E0FDA3E0FEA3E0FF1202EB7B0A7A00B5
:1027A300790078001202EBAC00AD01AE02AF0390EA
:1027B300FFFF120445EFF07BE87A0379007800907D
:1027C300044CE0FCA3E0FDA3E0FEA3E0FF1202EB58
:1027D30090FFFF120445EFF090FFFF120445E4F071
:1027E3007B007D007F001227FD7B007A007D647CE7
:1027F300007F021200030227252290FFFF120445E7
:10280300EBF090FFFF120445EDF090FFFF1204453B
:10281300EFF0852483852582E0FFEF9038DB93FF7B
:10282300900490EFF0852483852582A3E0FFEF9049
:1028330038DB93FF900491EFF0852483852582A3F1
:10284300A3E0FFEF9038DB93FF900492EFF090004A
:1028530003120469E0FFEF9038DB93FF900493EFDA
:10286300F0900004120469E0FFEF9038DB93FF90CF
:102873000494EFF0900005120469E0FFEF9038DB59
:1028830093FF900495EFF0900006120469E0FFEFC8
:102893009038DB93FF900496EFF0900007120469E1
:1028A300E0FFEF9038DB93FF900497EFF090000880
:1028B3001204452290FFFE120445EEF0A3EFF085CB
:1028C3002483852582E0FEA3E0FF7401A807088026
:1028D30002C333D8FCFFE4FCFDFEC004C005C00600
:1028E300C007AF1EAE1DAD1CAC1B780512038EA82E
:1028F30004A905AA06AB07D007D006D005D004EB80
:102903005FFFEA5EFEE95DFDE85CFCEC4D4E4F6067
:102913002890048FE0FF852483852582E0FCA3E0D3
:10292300FDAE057401A806088002C333D8FCFEEF90
:102933004EFF90048FEFF0808690048FE0FF852494
:1029430083852582E0FCA3E0FDAE057401A806089B
:102953008002C333D8FCFEEEF4FEEF5EFF90048FDB
:10296300EFF00228C2900002120445229004B8EB53
:10297300F0A3EAF0A3E9F09004BBEDF0D2B753AFB4
:10298300FE9004BBE0FFEF60419004BCE4F09004D0
:10299300BBE0FF9004BCE0FEEEC39F5079539AFD69
:1029A3009004B8E0FBA3E0FAA3E0F99004BCE0FFD5
:1029B3008F82758300120155FF8F9BE59A30E1FBEF
:1029C3009004BCE004F080C6804C9004BCE4F05357
:1029D3009AFD9004B8E0FBA3E0FAA3E0F99004BCED
:1029E300E0FF8F82758300120155FFEF602890048A
:1029F300B8E0FBA3E0FAA3E0F99004BCE0FF8F8208
:102A0300758300120155FF8F9BE59A30E1FB90041B
:102A1300BCE004F080B9C2B7539AFE539AFD43AFAA
:102A230001224404CBF2E0062C4104FA0041048D58
:102A3300FF41047800410477004103D70041030DAF
:102A4300004102CB0041034E004804900000000007
:102A53000000000041048F0041048E0041045E0029
:102A630044043B0000000041043F006020041B00BD
:102A73000000000000000000000000000000000053
:102A83000000000000000000000000000000004102
:102A9300022A0801260041022000410229035002B4
:102AA300BB00000000000000000000000000000068
:102AB30000041B000000000108004104440044041A
:102AC3004C000000004404560000000044045A0077
:102AD3000000000078FFE4F6D8FD9000007F007E40
:102AE30007E4F0A3DFFCDEFA752400752500758189
:102AF3009E022B32022638E493A3F8E493A3400307
:102B0300F68001F208DFF48029E493A3F854072444
:102B13000CC8C333C4540F4420C8834004F4568004
:102B23000146F6DFE4800B01020408102040809088
:102B33002A25E47E019360BCA3FF543F30E509548A
:102B43001FFEE493A360010ECF54C025E060A840AC
:102B5300B8E493A3FAE493A3F8E493A3C8C582C8A3
:102B6300CAC583CAF0A3C8C582C8CAC583CADFE978
:102B7300DEE780BEC0E0C0F0C083C082C0D075D0A5
:102B830000C000C001C002C003C004C005C006C02D
:102B93000753AFFE900356E4F0539AFE900356E0BA
:102BA300FF04F074572FF582E43403F583E59BF0BB
:102BB3009003D81203E2000001F4E59A20E0DA90D2
:102BC30003D874FF1203A37B007A0079007800C353
:102BD30012037D70E5800480E180BE539AFE539A10
:102BE300FD43AF019003D77401F0D007D006D005A1
:102BF300D004D003D002D001D000D0D0D082D08373
:102C0300D0F0D0E03290FFFE120445EEF0A3EFF0D7
:102C13007B007A007D017C107F0312000390022A5F
:102C2300E0FFEF25E025E0241BF582E43404F5837F
:102C3300E0FCA3E0FDA3E0FEA3E0FFEF5401FFEE01
:102C43005400FEED5400FDEC5400FCEC4D4E4F607F
:102C53002B1235029003571203D6C28C7B017A03E1
:102C630079577D0412296FD28C900357E0FCA3E0BF
:102C7300FDA3E0FEA3E0FF1207A48094900357E0B6
:102C8300FCA3E0FDA3E0FEA3E0FF1207A480819074
:102C9300000212044522C0E0C0F0C083C082C0D04D
:102CA30075D000C000C001C002C003C004C005C08D
:102CB30006C007C2AC9002CCE4F0C2989002CCE00C
:102CC300FF04F074CD2FF582E43402F583E599F027
:102CD3009003521203E2000001F42098DD900352A6
:102CE30074FF1203A37B007A0079007800C31203F8
:102CF3007D70E7800480E380C1C299C298D2AC9012
:102D0300034E7401F0D007D006D005D004D003D011
:102D130002D001D000D0D0D082D083D0F0D0E03226
:102D230090022AE0FFEFC39408500312355012318A
:102D3300D490022AEFF090022AE0FFEF6409603199
:102D430090022AE0FF74212FF582E43402F583E038
:102D5300FF900229EFF090022AE0FF1236F2EFB45F
:102D6300FF0B90022AE0FF123626121D201235981F
:102D7300227BFF7A007907AE02AF01E4FCFDEF543A
:102D830000FFEE5400FEED54FFFDEC54FFFC781001
:102D930012038E8F187BFF7A007907AF01EF54FF80
:102DA300F5199002297401F0227F00121267900432
:102DB300F9EFF09004F9E0FFE4FCFDFE9004CB1280
:102DC30003D67F011212679004F9EFF09004CBE071
:102DD300F8A3E0F9A3E0FAA3E0FB9004F9E0FFE431
:102DE300FCFDFEEB2FFFEA3EFEE93DFDE83CFC90D7
:102DF30004CB1203D67F021212679004F9EFF0900E
:102E030004CBE0F8A3E0F9A3E0FAA3E0FB9004F914
:102E1300E0FFE4FCFDFEEB2FFFEA3EFEE93DFDE8AB
:102E23003CFC9004CB1203D6229004AC1203D6537D
:102E3300B33F43B4C053B17F43B28043B34053B4B1
:102E4300BF9004ACE0F8A3E0F9A3E0FAA3E0FB7FB2
:102E5300007E307D2A7C001202EBC3E49FFFE49ED8
:102E6300FE9004B0EEF0A3EFF0538EEF538EF743D2
:102E73008E0453AFFB9004B0E0FEA3E0FFEEFF7EB1
:102E8300008FD69004B0E0FEA3E0FF8FD7438E10EF
:102E930043B501539A7F439A10E5BA54FEFFEF44BA
:102EA30001F5BAC2B743AF01229004FEEFF09004DC
:102EB300FEE0FF745F2FF582E43404F583E0FFEF57
:102EC30060159004FEE0FF745F2FF582E43404F58F
:102ED30083E014F07F01229004FEE0FF746F2FF56E
:102EE30082E43404F583C083C082E0FF90022AE0C9
:102EF300FE7401A806088002C333D8FCFEEF4EFF20
:102F0300D082D083EFF090045EE0FF90022AE0FECF
:102F13007401A806088002C333D8FCFEEF4EFF906D
:102F2300045EEFF07F00229004B21203D653B1FD8A
:102F330043B20243B10153B2FE9004B2E0F8A3E0FE
:102F4300F9A3E0FAA3E0FB7F007E307D2A7C001228
:102F530002EBC3E49FFFE49EFE9004B6EEF0A3EF02
:102F6300F0438E01538EEF538EF7438E0453AFFB22
:102F73009004B6E0FEA3E0FFEEFF7E008FD6900440
:102F8300B6E0FEA3E0FF8FD7438E10D2BCE5985482
:102F93003FFFEF4440F598D29C53A23FD2AC22901E
:102FA300FFFE120445EEF0A3EFF07B007A007D01F3
:102FB3007C007F031200037BFF7A38799A121EA7E5
:102FC300C28C7BFF7A3879A37D00123088D28C7B48
:102FD300007A007D407C007F031200037BFF7A3878
:102FE30079AB121EA7C28C7BFF7A3879B47D0012AD
:102FF3003088D28C7B007A007D007C087F0312002E
:10300300037B017A0279CD121EA7809E90000212E3
:103013000445229004DFEBF0A3EAF0A3E9F0C2AF8A
:10302300C2A99004DFE0FBA3E0FAA3E0F912013C9C
:10303300FF9004E2EFF09004DFE0FBA3E0FAA3E0EB
:10304300F97401120182D2AFD2A99004DFE0FBA38D
:10305300E0FAA3E0F9758201758300120155FF9030
:1030630004E2E0FEEF6E600F7B007A007D007C00DF
:103073007F0112000380D37B007A007D017C007FF7
:1030830002120003228B1F8A2089218D22C2ACE504
:10309300226028752300E523C395225051C299ABC2
:1030A3001FAA20A921AF238F82758300120155FF28
:1030B3008F993099FD052380DD8033752300C299F4
:1030C300AB1FAA20A921AF238F827583001201555C
:1030D300FFEF601AAB1FAA20A921AF238F8275834C
:1030E30000120155FF8F993099FD052380D0C298B6
:1030F300C299D2AC22900501EFF0900501E0FF7474
:1031030001A807088002C333D8FCFF900220E0FE29
:10311300EF5EFFEFD394004003D38001C340037FEE
:103123000022900501E0FF7401A807088002C33361
:10313300D8FCFF90045EE0FEEF5EFFEF60037F00CC
:1031430022900501E0FF7401A807088002C333D869
:10315300FCFF90043FE0FEEF5EFFEF60037F002281
:103163007F01220508C5267065C5268583098582EA
:103173000AF50B85F00C85D00D880E890F8A108B0C
:10318300118C128D138E148F15852416852517D057
:1031930018D01985811A7581277524007525471262
:1031A3003360851A81C019C018850983850A82E5B1
:1031B3000B850CF0850DD0A80EA90FAA10AB11AC8E
:1031C30012AD13AE14AF1585162485172532C52607
:1031D3003290022AE0FFEFC39408400590022AE4EC
:1031E300F090022AE0FF900500EFF0900500E0FF69
:1031F300EF04FFEF5407FF900500EFF0FF90022A62
:10320300E0FEEF6E600F900500E0FF1230F8EF6014
:10321300DA801F80D690022AE0FF1230F8EF600CAC
:1032230090022AE0FF900500EFF0800690050074FD
:1032330009F0900500E0FF229003D7E0FFEF60293B
:103243009003D7E4F090043BE0FCA3E0FDA3E0FE91
:10325300A3E0FFEF4400FFEE4410FEED4400FDEC5D
:103263004400FC90043B1203D690034EE0FFEF6052
:103273002990034EE4F090043BE0FCA3E0FDA3E0BF
:10328300FEA3E0FFEF4400FFEE4408FEED4400FD23
:10329300EC4400FC90043B1203D62285830985820B
:1032A3000AF50B85F00C85D00D880E890F8A108BDB
:1032B300118C128D138E148F15852416852517D026
:1032C30018D01985811A7581277524007525471231
:1032D3000026851A81C019C018850983850A82E5ED
:1032E3000B850CF0850DD0A80EA90FAA10AB11AC5D
:1032F30012AD13AE14AF158516248517253290042D
:10330300FCE4F09002CBE0FFEF3395E0FE9004FC89
:10331300E0FD7C00C3ED9FEE6480F8EC6480985080
:103323003990034FE0FBA3E0FAA3E0F99004FCE03B
:10333300FF8F82758300120155FF9004FCE0FE7439
:10334300CD2EF582E43402F583E0FEEE6F60037F59
:1033530000229004FCE004F080A97F0122AF08E47E
:10336300FCFDFEE51E2FF51EE51D3EF51DE51C3D8E
:10337300F51CE51B3CF51B900229E0FFEFC3950804
:103383004011900229E0FFC3EF9508FF900229EF57
:10339300F08005900229E4F01217F7750800122354
:1033A3007F12376BE5D820E20E900229E0FFEFD3BE
:1033B30094005003122D23229004FDE4F0123301F4
:1033C300EF60429004FDE4F09004FDE0FFEFC3944E
:1033D30040502A9004FDE0FF74CD2FF582E43402BF
:1033E300F583E0FF9004FDE0FE740E2EF582E434D5
:1033F30003F583EFF09004FDE004F080CB7B017ACA
:1034030003790E22227B007A007900227B007A0066
:103413007D007C007F041200037B007A007D007C2A
:10342300007F0612000390048FE0FFEF4440FF90FB
:10343300048FEFF07B007A007DF47C017F021200A1
:10344300037B007A007D007C007F0512000390045B
:103453008FE0FFEF54BFFF90048FEFF080BB22900B
:1034630004CFEFF09004D0EDF09004D1EBF0900492
:10347300CFE0FFEF9038DB93FF900490EFF09004E0
:10348300D0E0FFEF9038DB93FF900491EFF09004CE
:10349300D1E0FFEF9038DB93FF900492EFF09004BC
:1034A300D2E0FFEF9038DB93FF900493EFF022908C
:1034B30004D3EFF09004D4EDF09004D5EBF0900436
:1034C300D3E0FFEF9038DB93FF900494EFF0900488
:1034D300D4E0FFEF9038DB93FF900495EFF0900476
:1034E300D5E0FFEF9038DB93FF900496EFF0900464
:1034F300D6E0FFEF9038DB93FF900497EFF0227F45
:103503006D7E4E7DC67C419004CBE0F8A3E0F9A329
:10351300E0FAA3E0FB120260EF2439FFEE3430FE41
:10352300ED3400FDEC3400FCEF54FFFFEE54FFFEDE
:10353300ED54FFFDEC547FFC9004CB1203D69004B2
:10354300CBE0FCA3E0FDA3E0FEA3E0FF2290050295
:10355300E4F0900502E0FFEFC394125037900502A8
:10356300E0FF74092FF8E6FF900502E0FE90022ABF
:10357300E0FDED75F012A4242BF582E43402F5830B
:10358300E5822EF582E43583F583EFF0900502E0C2
:1035930004F080BE22900503E4F0900503E0FFEF02
:1035A300C394125037900503E0FF90022AE0FEEE29
:1035B30075F012A4242BF582E43402F583E5822FFF
:1035C300F582E43583F583E0FF900503E0FE74099B
:1035D3002EF8A607900503E004F080BE227B007A54
:1035E300007DF47C017F021200037B007A007D00E2
:1035F3007C007F0512000390048FE0FFEF4480FFFF
:1036030090048FEFF07B007A007D007C007F061230
:10361300000390048FE0FFEF547FFF90048FEFF0DF
:1036230080BB229004EBEFF09004ECE4F09004EC08
:10363300E0FFEFC39403502C9004ECE0FFEF75F030
:1036430015A424F0F582E43403F583E0FF9004EB42
:10365300E0FEEFB506069004ECE0FF229004ECE0F8
:1036630004F080C97FFF229004EDEFF075BD00E503
:10367300BC54E0FFEF4408FF9004EDE0FEEF4EF58D
:10368300BC000000009004EEE4F09004EEE0FFEFD5
:10369300C394FA5013E5BC30E40653BCEFAFBD222C
:1036A3009004EEE004F080E27F00229004F3EFF058
:1036B3009004F4EDF09004F3E0FF746F2FF582E4CF
:1036C3003404F583E4F09004F3E0FF74672FF5828C
:1036D300E43404F5837401F09004F4E0FF9004F300
:1036E300E0FE745F2EF582E43404F583EFF022905C
:1036F30004E9EFF09004EAE4F09004EAE0FFEFC39A
:10370300940550269004EAE0FFEF75F015A4244ACF
:10371300F8E6FF9004E9E0FEEFB506069004EAE060
:10372300FF229004EAE004F080CF7FFF229004BDE3
:10373300EFF09004BEEBF0A3EAF0A3E9F09004BD30
:10374300E0FF90030DEFF09004BEE0FBA3E0FAA3CB
:10375300E0F990034FEBF0A3EAF0A3E9F09004C182
:10376300E0FF9002CBEFF02290043B1203E2000053
:103773000000120A9C12323B7F0012202E7F01129E
:10378300202E7F0212202E7F0312202E7F04122070
:103793002E7F0512202E7F0612202E7F0712202E49
:1037A300229004E6EBF0A3EAF0A3E9F0C2AFC2A9CA
:1037B3009004E6E0FBA3E0FAA3E0F97582017583C8
:1037C3000074011201A4D2AFD2A97B007A007D015B
:1037D3007C007F021200032290FFFE120445EEF0EC
:1037E300A3EFF0852483852582E0FCA3E0FD7B0025
:1037F3007A007F0212000390048FE0FFEF640FFF53
:1038030090048FEFF080DC9000021204452290FFB9
:10381300FE120445EEF0A3EFF0852483852582E0B4
:10382300FCA3E0FD7B007A007F0212000390048F6B
:10383300E0FFEFF4FF90048FEFF080DD90000212C1
:103843000445229004E3EBF0A3EAF0A3E9F090042B
:10385300E3E0FBA3E0FAA3E0F9E41201D79004E369
:10386300E0FBA3E0FAA3E0F9758201758300E4129B
:1038730001E9229004FAE0FFEF701B759D9C43BCA5
:1038830080E5BC549FFFEF4460F5BC5397DFC2ADA6
:103893009004FA7401F02248454C4C4F202020003C
:1038A30068656C6C6F200000574F524C44202020F9
:1038B30000776F726C640D0A000010AF05AE24AF81
:1038C3002522AE24AF25D2AF2210AF058E248F253B
:1038D300228E248F25D2AF223F065B4F666D7D0774
:1038E3007F6F777C395E7971BF86DBCFE6EDFD872D
:1038F300FFEF3D760F0E753837545C7367314978A7
:093903003E1C7E646E5A00FF4078
:00000001FF
